:100000000C94DB000C9447080C9420080C94F9071E
:100010000C94D2070C9403010C9403010C94AB07CD
:100020000C9403010C946E080C9403090C9472094F
:100030000C9403010C9403010C9403010C94030130
:100040000C9403010C9403010C9403010C94030120
:100050000C9403010C9403010C9403010C94B90853
:100060000C9403010C9403010C9403010C94030100
:100070000C9403010C9403010C9403010C940301F0
:100080000C9403010C9403010C9403010C940301E0
:100090000C9403010C9403010C9403010C940301D0
:1000A0000C9403010C9403010C940301080B00024F
:1000B0000202000009040000010202000005240001
:1000C0001001052401010104240206052406000193
:1000D0000705810310004009040100020A00000026
:1000E00007050202400000070583024000000403E8
:1000F000090412010002EF020140FB1F002300016E
:1001000001020301506F6C6F6C7520436F72706F4A
:10011000726174696F6E00506F6C6F6C7520412D49
:100120005374617220333255340000000000240003
:1001300027002A002D0030000000000025002800C4
:100140002B002E00310000000000230026002900B3
:100150002C002F000404040404030405020202021C
:100160000403020202020606060606060404020250
:100170000204040408020110408040102040804026
:1001800080080204018040201002011080102040ED
:1001900040200000000200090F0000030401000CD1
:1001A000000000000000000000000000000000004F
:1001B0000000D70BC10F11241FBECFEFDAE0DEBF66
:1001C000CDBF22E0A2E8B1E001C01D92AF34B2077A
:1001D000E1F711E0A0E0B1E0E8E9F5E202C0059046
:1001E0000D92A238B107D9F710E0CAEDD0E004C0F3
:1001F0002197FE010E94B310C93DD107C9F70E94A3
:100200002E0C0C94BF120C940000FC018091BA01DA
:10021000882311F13FB7F89482E08093E9002091A0
:10022000F200822F90E01816190614F481E090E095
:10023000882339F0289844E64093B9014091F100B1
:100240004083222339F02091F200211103C02BE6D4
:100250002093E8003FBF08958FEF9FEF08952FB7D9
:10026000F89483E08093E9009091E800892F8072F0
:1002700095FF04C09091F20080E4891B2FBF089580
:1002800008952E98269A2D98259A2A98229A299888
:10029000219A80EA8093800081E18093810080E947
:1002A00091E09093870080938600109289001092CD
:1002B000880010928B0010928A000895CF93DF93EC
:1002C000EC018091B301811105C081E08093B301FD
:1002D0000E94410180E0D7FF04C0D195C195D109AA
:1002E00081E0D0938900C0938800811102C02998D1
:1002F00001C0299A219ADF91CF910895CF93DF937E
:10030000EC018091B301811105C081E08093B301BC
:100310000E94410180E0D7FF04C0D195C195D10969
:1003200081E0D0938B00C0938A00811102C02A988B
:1003300001C02A9A229ADF91CF9108958091AB0152
:1003400081110DC082E08093A70184E08093A80111
:100350001092AA011092A90181E08093AB0187EA73
:1003600091E0089581508F3008F047C0E82FF0E009
:10037000E454FE4F0C94B310D901DD01CB01D1013F
:10038000D501FD01FD01FD01E001E601EA01EE01FB
:10039000F401FD01F801809180008F778093800047
:1003A0000895809180008F7DF9CF80918000877FB4
:1003B000F5CF84B58F7784BD089584B58F7DFBCF4D
:1003C000809190008F7780939000089580919000A5
:1003D0008F7DF9CF80919000877FF5CF8091C0000D
:1003E0008F778093C00008958091C0008F7DF9CFF2
:1003F0008091C200877F8093C2000895CF93DF93DE
:10040000282F30E0F901EE56FE4F8491F901ED58A6
:10041000FE4FD491F901EC5AFE4FC491CC23A1F0C8
:1004200081110E94B201EC2FF0E0EE0FFF1FEA5B9A
:10043000FE4FA591B491EC91ED2381E090E009F499
:1004400080E0DF91CF91089580E090E0FACF1F9394
:10045000CF93DF93282F30E0F901EE56FE4F8491C1
:10046000F901ED58FE4FD491F901EC5AFE4FC491B9
:10047000CC23A9F0162F81110E94B201EC2FF0E0DD
:10048000EE0FFF1FE85CFE4FA591B4918FB7F89473
:10049000EC91111108C0D095DE23DC938FBFDF9162
:1004A000CF911F910895DE2BF8CFCF93DF9390E08B
:1004B000FC01ED58FE4F24918C5A9E4FFC01849113
:1004C0008823C9F090E0880F991FFC01E65DFE4F7C
:1004D000A591B491FC01E85CFE4FC591D4916111E6
:1004E0000DC09FB7F8948C91209582238C938881BE
:1004F000282328839FBFDF91CF910895623051F464
:100500009FB7F8943C91822F809583238C93E88148
:100510002E2BEFCF8FB7F894EC912E2B2C938FBF0F
:10052000EACFCF93DF93EC018D858F3F59F061E0E7
:100530000E94550261E08D850E9427028BE193E0C5
:100540000197F1F7DF91CF910895CF93DF93EC01FD
:100550008D858F3F59F061E00E94550260E08D85E6
:100560000E9427028BE193E00197F1F7DF91CF9191
:1005700008953FB7F8948091A3019091A401A091B0
:10058000A501B091A60126B5A89B05C02F3F19F083
:100590000196A11DB11D3FBFBA2FA92F982F882703
:1005A000BC01CD01620F711D811D911D42E0660FDE
:1005B000771F881F991F4A95D1F708957F928F92D0
:1005C0009F92AF92BF92CF92DF92EF92FF920F93E2
:1005D0001F93CF93DF93FC0122853385232B09F4EE
:1005E00076C06B01EC0110E08C851817E8F4E12E61
:1005F000F12C8E859F85F701EE0FFF1FEC0DFD1D81
:1006000091838083EA85FB85EE0DFF1D61E080818B
:100610000E942702EA85FB85EE0DFF1D61E08081C7
:100620000E9455021F5FE0CF83E290E00197F1F74F
:1006300010E08C851817A0F4E12EF12CEA85FB85DB
:10064000EE0DFF1D60E080810E945502EA85FB856A
:10065000EE0DFF1D60E080810E9427021F5FE9CF41
:100660000E94B9024B015C010E94B902AB01BC01BE
:10067000481959096A097B098E859F85B0E0A0E079
:10068000481759076A077B0710F50E94B9027B01DA
:10069000E818F908712C8C85781630F7072D10E0D2
:1006A000EA85FB85E00FF11F80810E94FE01892B06
:1006B00061F4000F111FF601E00FF11F808191819D
:1006C000E816F90610F4F182E0827394E4CFDF912A
:1006D000CF911F910F91FF90EF90DF90CF90BF903F
:1006E000AF909F908F907F9008958F929F92AF923E
:1006F000BF92CF92DF92EF92FF924B015C010E947A
:10070000B9026B017C010E94B9026C197D098E0946
:100710009F09683E734081059105A8F321E0821A84
:100720009108A108B10888EEC80E83E0D81EE11C2C
:10073000F11C81149104A104B10429F7FF90EF90FA
:10074000DF90CF90BF90AF909F908F900895409191
:10075000890150918A0120918701309188014217C7
:100760005307B4F49091E8009570E1F39091E8009C
:1007700092FD19C08093F1008091890190918A01C6
:1007800001968F739927892B19F48EEF8093E800D7
:100790008091890190918A01019690938A018093BA
:1007A000890181E0089580E00895DF92EF92FF9241
:1007B0000F931F93CF93DF93D82E8A01EB017B0118
:1007C000E40EF51ECE15DF0559F0D7FE12C0FE016E
:1007D00084910E94A70321968111F4CF0FEF1FEFA0
:1007E000C801DF91CF911F910F91FF90EF90DF90A3
:1007F00008958881EECF0F931F93CF93DF931F92BD
:10080000CDB7DEB782E0898342E450E06CEA70E065
:1008100080E80E94D5030E949E01DC0112960D9192
:100820001C910115110589F0D801ED91FC91028010
:10083000F381E02DBE016F5F7F4FC801099597FDE1
:1008400004C0F80100851185ECCF89810F90DF91FC
:10085000CF911F910F910895615030F02091F100D8
:10086000FC0120830196F8CF289884E68093B90193
:1008700008958F929F92AF92BF92CF92DF92EF92A4
:10088000FF920F931F93CF93DF936C017B018A013B
:1008900080910B01882309F45CC08091BA01882300
:1008A00009F457C080918D0180FF05C08091E00060
:1008B00082608093E000E801B12C8AEFA82E93E0DB
:1008C000892E2AE3922E209711F4BB20D9F10E94A1
:1008D0002F0181110AC0AA94AA20D9F161E070E029
:1008E00080E090E00E947503EECF8C171D0611F09A
:1008F0000CF08C2F9FB7F8948092E9002091E800CB
:1009000025FD02C09FBFDFCF282F30E0C21BD30BD5
:10091000F701815020F041914093F100FACFE20EAF
:10092000F31EBB2021F09092E800B12CEBCF809118
:10093000E80085FDE7CF9092E800BB24B3942097B0
:1009400009F3F3CF5D9884E680938C0110161106AD
:100950003CF081E090E0F6019383828310E000E0B8
:10096000C801DF91CF911F910F91FF90EF90DF9021
:10097000CF90BF90AF909F908F900895CF93DF93CB
:100980001F92CDB7DEB76983DC01ED91FC91028047
:10099000F381E02D41E050E0BE016F5F7F4F09958C
:1009A0000F90DF91CF91089583E08093E9008091CB
:1009B000F200882319F08AE38093E80008950E94EA
:1009C0002F0190E00895CF93DF931F92CDB7DEB74C
:1009D000FC018485958597FD08C02FEF3FEF358793
:1009E00024870F90DF91CF910895CE0101960E9448
:1009F0000501019719F4898190E0F3CF8FEF9FEF04
:100A0000F0CF0F931F93CF93DF931F92CDB7DEB735
:100A10008C01FC018485958597FF0BC0CE01019662
:100A20000E940501019771F4898190E0F801958792
:100A30008487F801848595850F90DF91CF911F9170
:100A40000F9108958FEF9FEFF1CFFC01848595857D
:100A500097FD0BC09FB7F89482E08093E9008091E6
:100A6000F2009FBF90E0019608959FB7F89482E04E
:100A70008093E9008091F2009FBF90E00895CF93AA
:100A8000DF93EC01888581110EC0898591E09887FC
:100A90009A8562E0911101C060E00E9455028FE0EA
:100AA00090E00197F1F789850E94FE013B8521E0E6
:100AB0003817190609F420E0822FDF91CF910895AD
:100AC000CF93DF93EC01E881F9810190F081E02D73
:100AD00009959FB7F89440919F015091A0016091B2
:100AE000A1017091A2019FBF9A81913081F030F0F5
:100AF0009230D9F09330F9F080E006C08111FCCF3C
:100B00005C834B8391E09A83DF91CF910895882392
:100B100011F01A82F1CF2B813C81421B530B4F30D5
:100B2000510590F382E08A83E7CF882369F35C83E1
:100B30004B8383E0F8CF8823A9F32B813C81421BB0
:100B4000530B4F305105C0F21A82DECF7F928F9245
:100B50009F92AF92BF92CF92DF92EF92FF920F934C
:100B60001F93CF93DF93EC016B018A819B81892BCB
:100B700009F452C08C819D81892B09F44DC0CE01AE
:100B80000E949102E881F9810190F081E02DB60187
:100B9000CE010995CE010E94A5028601F12CE12C1F
:100BA0008C858E151F04C1F1BCF1EA81FB81970190
:100BB000220F331FE20FF31F808191814C815D81F1
:100BC000240F351FD901ED91FC91E81BF90BD1F0F1
:100BD000D8012D913C9150E040E0281B390B410990
:100BE0005109A8EEB3E00E9421109F0150E040E0BF
:100BF0000E949410293EB3E03B0714F028EE33E046
:100C000037FF02C030E020E0F801219331938F01DB
:100C1000FFEFEF1AFF0AC4CF9C84F601B12CA12C80
:100C200050E040E0C12CD12C7601712C812C98141D
:100C3000D9F001911191093C11059CF40333110580
:100C400054F09501D8010E94B910C60ED71EE81EB7
:100C5000F91E400F511F839488E1A81A8CEFB80A3F
:100C6000E6CF77247394EDCF711028C0A92DA15041
:100C7000BB0B44EF51E0A49FC001A59F900DB49F12
:100C8000900D1124488959894817590714F148EEE5
:100C900053E0A49FC001A59F900DB49F900D112417
:100CA000DF91CF911F910F91FF90EF90DF90CF9048
:100CB000BF90AF909F908F907F9008959A0150E0E1
:100CC00040E0C701B6010E947210C901398B288B20
:100CD000E7CF90E080E0E4CF42E050E068E571E0EB
:100CE0008BEB91E00C943904CF93DF93FC010190DE
:100CF0000020E9F73197AF01481B590BBC018BEB82
:100D000091E00E943904EC010E946C068C0F9D1F3B
:100D1000DF91CF910895CF93DF93EC018881998182
:100D2000009711F00E946411198218821D821C82A2
:100D30001B821A82DF91CF9108950E94AA120F930D
:100D40001F93CF93DF93EC0188819981009759F02D
:100D50002A813B812617370730F081E0DF91CF9160
:100D60001F910F9108958B016F5F7F4F0E94ED11CE
:100D7000009759F0998388831B830A832C813D81D6
:100D8000232B59F7FC011082E8CF80E0E7CFCF9208
:100D9000DF92EF92FF920F931F93CF93DF9300D0D8
:100DA00000D000D01F92CDB7DEB77C01CB014AE066
:100DB0009E012F5F3F4F6901B9010E94F70FF601B5
:100DC00001900020E9F73197EC19FD09D9F0D7011E
:100DD00014960D911C910E0F1F1FB801C7010E94A0
:100DE0009F068823F9F0F701208131818481958164
:100DF000B601820F931F0E94B812D70115961C935B
:100E00000E931497C70127960FB6F894DEBF0FBE56
:100E1000CDBFDF91CF911F910F91FF90EF90DF90A9
:100E2000CF900895C7010E948B06ECCFEF92FF92FE
:100E30000F931F93CF93DF9300D0CDB7DEB78C0114
:100E400069831A82FC01E480F580FFEFEF1AFF0A44
:100E5000B7010E949F068823C9F0F80120813181E3
:100E600084819581BE016F5F7F4F820F931F0E9427
:100E7000B812F801F582E482C8010F900F90DF915B
:100E8000CF911F910F91FF90EF900895C8010E949C
:100E90008B06F2CFCF93DF93A2EEB0E09C911C9231
:100EA000E9EEF0E020811082C0EFD0E038811882B6
:100EB00040E028994160209942602098289A80E17A
:100EC0008A95F1F783B141FB0EF0209840FB0EF0BC
:100ED00028980EF4289A41FB0EF4209A1082388349
:100EE00020839C9380958170DF91CF910895CF935B
:100EF000DF93A2EEB0E09C911C92E9EEF0E020813D
:100F00001082C0EFD0E03881188240E05D994160E6
:100F10005599426055985D9A80E18A95F1F789B1BB
:100F200041FB0EF0559840FB0EF05D980EF45D9A73
:100F300041FB0EF4559A1082388320839C9390E0F5
:100F400025E0959587952A95E1F780959095817094
:100F5000DF91CF9108951F920F920FB60F92112437
:100F60002F933F934F935F936F937F938F939F93B1
:100F7000AF93BF93EF93FF93E0911401F0911501AC
:100F80000995FF91EF91BF91AF919F918F917F91C3
:100F90006F915F914F913F912F910F900FBE0F90E6
:100FA0001F9018951F920F920FB60F9211242F9336
:100FB0003F934F935F936F937F938F939F93AF93E1
:100FC000BF93EF93FF93E0911201F0911301099504
:100FD000FF91EF91BF91AF919F918F917F916F9111
:100FE0005F914F913F912F910F900FBE0F901F90E7
:100FF00018951F920F920FB60F9211242F933F93C3
:101000004F935F936F937F938F939F93AF93BF9310
:10101000EF93FF93E0911001F09111010995FF9179
:10102000EF91BF91AF919F918F917F916F915F9160
:101030004F913F912F910F900FBE0F901F901895D9
:101040001F920F920FB60F9211242F933F934F933D
:101050005F936F937F938F939F93AF93BF93EF9320
:10106000FF93E0910E01F0910F010995FF91EF912F
:10107000BF91AF919F918F917F916F915F914F91B0
:101080003F912F910F900FBE0F901F9018951F92B8
:101090000F920FB60F9211242F933F934F935F93AC
:1010A0006F937F938F939F93AF93BF93EF93FF9330
:1010B000E0910C01F0910D010995FF91EF91BF9125
:1010C000AF919F918F917F916F915F914F913F91E0
:1010D0002F910F900FBE0F901F9018951F920F9297
:1010E0000FB60F9211242F933F934F936F937F93DB
:1010F0008F939F938CB1282F30E0359527953595A8
:101100002795422F417083B190E064E095958795D3
:101110006A95E1F7822781702091B8019091B7011B
:101120006091B5017091B60128279427291B330BD4
:10113000260F371F3093B6012093B5012091B701D8
:101140009091B801281729F0941719F091E0909325
:10115000B4018093B7014093B8019F918F917F9123
:101160006F914F913F912F910F900FBE0F901F9055
:1011700018951F920F920FB60F9211242F933F9341
:101180008F939F93AF93BF9380919F019091A00104
:10119000A091A101B091A20130919E0123E0230F03
:1011A0002D3758F50196A11DB11D20939E01809306
:1011B0009F019093A001A093A101B093A2018091FF
:1011C000A3019091A401A091A501B091A60101965F
:1011D000A11DB11D8093A3019093A401A093A5012B
:1011E000B093A601BF91AF919F918F913F912F91A5
:1011F0000F900FBE0F901F90189526E8230F0296B0
:10120000A11DB11DD2CF1F920F920FB60F921124C4
:101210008F939F938091E1009091E100937F909351
:10122000E10083FF0FC01092E90091E09093EB0082
:101230001092EC0092E39093ED001092BA0198E0C6
:101240009093F00082FF22C093E09093E900909188
:10125000F200992319F09AE39093E80090918C01A1
:10126000992341F090918C01915090938C019111B0
:1012700001C05D9A9091B901992341F09091B90113
:1012800091509093B901911101C0289A84FF18C020
:101290008091E2008E7E81608093E2008091E10087
:1012A0008F7E8093E10080918D018E7E806180939E
:1012B0008D019F918F910F900FBE0F901F901895E9
:1012C00080FFF7CF8091E2008E7E80618093E20004
:1012D0008091E1008E7E8093E10080918D018E7E71
:1012E0008160E5CF1F920F920FB60F921124CF921B
:1012F000DF92EF92FF920F931F932F933F934F93A1
:101300005F936F937F938F939F93AF93BF93EF936D
:10131000FF93CF93DF93CDB7DEB76C97DEBFCDBF22
:101320001092E9008091E80083FF25C068E0CE01BB
:1013300045960E942C0482EF8093E8008D8987FFF8
:1013400039C09091E80090FFFCCF982F907609F07B
:1013500034C19E894F89588D2F89F88C911131C0E5
:10136000803861F580918E018093F1001092F10038
:101370008EEF8093E8006C960FB6F894DEBF0FBE38
:10138000CDBFDF91CF91FF91EF91BF91AF919F9131
:101390008F917F916F915F914F913F912F911F910D
:1013A0000F91FF90EF90DF90CF900F900FBE0F90B6
:1013B0001F9018959EEF9093E800C7CF1092F10010
:1013C000D5CF913059F48111D3CF4130510581F6F9
:1013D00080918E018D7F80938E01CACF933049F426
:1013E0008111C6CF4130510519F680918E0182607E
:1013F000F2CF953041F48091E80080FFFCCF206867
:101400002093E300B5CF963009F0A9C00B8D1C8D59
:1014100022E01092E90010928A0110928901F212E2
:101420002EC010928801109287010E94FB031F8238
:1014300099E09983FA8291E09E8390EA98879AEFE7
:1014400099872091890130918A01275F3F4F3C8322
:101450002B838D831092E90010928A0110928901EA
:10146000109388010093870149E050E0BE016F5F4F
:101470007F4F80E00E94D5030E94FB0379CF109339
:101480008801009387010E949E01DC0112960D9154
:101490001C910115110509F451C1D801ED91FC9180
:1014A0000480F581E02DBE016B5E7F4FC801099578
:1014B000009709F03EC1F80100851185EACFF3E0FD
:1014C000FF120EC08F89882309F440C0823061F476
:1014D00040E862E187E191E00E94A40B811148CFCE
:1014E00081E28093EB0047CF813029F440E862E14C
:1014F00084E091E0F1CF833099F70E949E01DC01F6
:101500001296ED90FC908E010F5F1F4F6801E11461
:10151000F10479F0D701ED91FC910680F781E02D7F
:10152000B801C7010995080F111DF701E084F18486
:10153000EECFD8011C92F60101900020E9F7319717
:10154000BF016C197D0940E0C601C6CF6EEE70E0A8
:10155000FB01449150E080E80E94D50309CF973009
:1015600009F4BECF983021F481E08093F10000CFE0
:10157000993009F0FDCE837009F0B2CFE2E2F1E0DC
:1015800081E031E096E32191222371F08093E9001C
:101590003093EB00DF0111972C912093EC00909396
:1015A000ED008F5F873079F78EE78093EA00109225
:1015B000EA008F898093BA01DBCE8B8D9C8D1092CF
:1015C000E90010928A01109289019093880180931A
:1015D0008701898D811192C08E899D89913A49F444
:1015E000813209F07DCF47E050E064E071E080E0B7
:1015F000B3CF913209F074CF833269F48F89988D1B
:10160000B0E0A0E08093000190930101A09302015B
:10161000B0930301ADCE803269F48091E80082FF7F
:10162000FCCF67E084E091E00E942C048BEF809374
:10163000E8009ECE823209F09BCE8F8980930B0109
:10164000EEEFFFE7859194918B3F9C4D51F1E0E0E7
:10165000F8E08091040190910501A0910601B091FC
:101660000701803B9440A105B105F1F480910B0185
:1016700080FD1AC0EE3F8AE0F80789F587E797E713
:10168000918380838091600080938B0188E19BE04F
:101690000FB6F894A895809360000FBE90936000F9
:1016A00067CEEEEFFAE0D5CF8081918187379747FB
:1016B00009F05ECEA89580916000886180936000FB
:1016C00080918B0180936000EE3F2AE0F20789F061
:1016D0008091FE0A9091FF0A9183808349CE808198
:1016E00091818737980751F29093FF0A8093FE0A01
:1016F000C5CF1092FF0A1092FE0A3ACE0E949E01B8
:10170000DC0112960D911C910115110509F4E8CE2A
:10171000D801ED91FC910190F081E02DBE016B5E4E
:101720007F4FC8010995811123CEF80100851185ED
:10173000EBCF181619060CF41BCED2CEF1E0FF1237
:10174000BECE62EF70E004CFEF92FF920F931F9333
:10175000CF93DF93F82E192FE62E042F81E0860F0A
:10176000880F0E94A70383E00E94A703CF2DD12FEB
:10177000EC0EFD2EF11CCE15DF05B9F007FF13C0EE
:10178000FE0184910E94A703182F80E00E94A70306
:10179000812321968111EFCFDF91CF911F910F917E
:1017A000FF90EF9008958881EDCF81E0F5CFEBEBCE
:1017B000F1E01382128288EE93E0A0E0B0E084832F
:1017C0009583A683B7838CE291E0918380838FEF2A
:1017D0009FEF95878487EFE3F2E0128215821086EF
:1017E0008EE0818781E08287838786E591E091831F
:1017F0008083E7E3F2E01282158280E591E0918335
:101800008083EFE2F2E01282158284E491E091831A
:101810008083E1E1F2E08AE0DF011D928A95E9F739
:101820001586148617861686118A108A138A128ADC
:10183000158A148A8EE391E093878287ABE0B2E049
:101840008DE292E011969C938E931396FC93EE9307
:10185000129715961C921E9214970895CF93DF93BA
:10186000CDB7DEB7C056D1090FB6F894DEBF0FBEB4
:10187000CDBF789484B5826084BD84B5816084BD19
:1018800085B5826085BD85B5816085BD80916E001E
:10189000816080936E00109281008091810082604F
:1018A000809381008091810081608093810080918C
:1018B000800081608093800080919100826080939D
:1018C00091008091910081608093910080919000BF
:1018D0008160809390008091C10084608093C100FA
:1018E0008091C10082608093C1008091C1008160BD
:1018F0008093C1008091C30081608093C300809178
:10190000C00082608093C0008091C200816080939B
:10191000C20080917A00846080937A0080917A007E
:10192000826080937A0080917A00816080937A004F
:1019300080917A00806880937A001092BA011092A8
:101940008E0110928D018091D70081608093D70025
:1019500080EA8093D80089B5806189BD89B58260AD
:1019600089BD09B400FEFDCF61E070E080E090E049
:101970000E9475038091D8008F7C80618093D8008D
:101980008091E000807F8093E0008091E1008E7E76
:101990008093E1008DE08093E200559A209A8FEFCA
:1019A0009FEF9093C8018093C70185E0ECE1F1E0DF
:1019B0008E010F5F1F4FD80101900D928A95E1F7BC
:1019C00010921E0210921D021092200210921F020D
:1019D00010922202109221021092240210922302ED
:1019E00010922C0210922B0285E0809327028091A6
:1019F000250290912602892BA9F080E09091270280
:101A0000891708F05FC0282F30E0E0912502F0919F
:101A10002602E20FF31F200F311FD9019C91908302
:101A20008F5FECCF85E090E00E94C8109093260273
:101A300080932502892B09F780ED97E090932A0285
:101A40008093290287E392E00E946005882309F4CD
:101A5000F8C08BE591E00E94740668EE73E080E0C8
:101A600090E00E947503F1EECF2EDD24DA94BCE302
:101A7000CB16D10458F588E39FEF0E947E0188ECD5
:101A800090E00E945E0180911F0290912002892BBC
:101A900021F5E0902702F12CC701880F991F0E94C1
:101AA000C8109093200280931F02009709F4B9C0D8
:101AB000FC0190E080E08E159F057CF4119211925C
:101AC0000196F9CF8BE080932802B6CF88EC90E0A6
:101AD0000E947E0188E39FEFD4CF80911D029091F8
:101AE0001E02892BE9F4E0902702F12CC701880F30
:101AF000991F0E94C81090931E0280931D020097A8
:101B000009F48FC02091290230912A02FC0190E053
:101B100080E08E159F0524F4219331930196F9CF2F
:101B2000F12CE12C8BE192E00E949102BE016F5BEF
:101B30007F4F8BE192E00E94DE028BE192E00E94F7
:101B4000A50260902702712C48019E012F5D3F4F36
:101B5000FE01EF5BFF4F5F012901D80150E040E03B
:101B60004615570524F5F501819191915F01E11426
:101B7000F10499F0F201608171816817790768F0CA
:101B80006D917C9111978617970768F04F5F5F4FB3
:101B90001296F2E04F0E511CE3CFF2019183808345
:101BA000E114F10469F711969C938E93EFCF6FEFD8
:101BB000E61AF60A8AE0E816F10409F0B3CFE090DD
:101BC0001D02F0901E02A0911F02B091200290E031
:101BD00080E0409127024817190619F114F1F40129
:101BE000419151914F016D917D916417750730F4CA
:101BF000BD0162507109FB0151834083F90141919C
:101C000051919F01F701619171917F01461757072B
:101C100030F4BF0162507109FB015183408301968A
:101C2000D8CFFFEFCF1ADF0A29E5C216D10409F099
:101C30001ECF90E080E00E947E0190E080E00E9454
:101C40005E018FE392E00E946005882371F08DE5CC
:101C500091E00E94740610929D0190E080E00E9445
:101C60007E0190E080E00E945E018FE292E00E949F
:101C70006005882339F08FE591E00E94740661E0E9
:101C800060939D0180919D01882309F477C0809124
:101C90000D0290910E02BC010A960E94A605805D7D
:101CA000974020910F0230911002AC01421B530B60
:101CB000A6E0A49F9001A59F300D1124AC0156957C
:101CC0004795240F351F9093100280930F02D12C5B
:101CD000C12C2C34BFEF3B074CF0690112161306E0
:101CE00014F4D12CC12CE4EBCE0ED11C54EBE52E18
:101CF000F12CE21AF30AF5EBEF16F1041CF044EBB9
:101D0000E42EF12CF7FE02C0F12CE12CE0910D0243
:101D1000F0910E022281338184819581821793078D
:101D200008F4C901268137818217930708F4C90195
:101D3000208531858217930708F4C90120813181FC
:101D40008217930708F4C9018333910508F4E7C0AB
:101D50008639910508F0EEC081E691E00E94740694
:101D600090E080E00E947E0190E080E00E945E01B1
:101D7000C6010E947E01C7010E945E012FB7F89440
:101D800080919F019091A001A091A101B091A20129
:101D90002FBF4091990150919A0160919B017091E0
:101DA0009C01841B950BA60BB70B883E9340A105A5
:101DB000B10508F4ACC02FB7F89480919F019091C1
:101DC000A001A091A101B091A2012FBF8093990120
:101DD00090939A01A0939B01B0939C018090110273
:101DE000909012029092900180928F01A090130225
:101DF000B0901402B0929201A0929101C09015028D
:101E0000D0901602D0929401C09293016090170274
:101E1000709018027092960160929501409019029C
:101E200050901A02509298014092970161E172E03D
:101E30008BE192E00E94A6051AA219A21CA21BA285
:101E40001EA21DA24AE0B8010E94F70FF8010190FE
:101E50000020E9F731977F01E01AF10AB701CE01BE
:101E600081960E949F0681117CC0CE0181960E94BE
:101E70008B061A8219821C821B821E821D82E9A097
:101E8000FAA0E114F10459F02DA03EA0B101C8015F
:101E90000E949F0681116DC0C8010E948B066CE7ED
:101EA000C8010E941607B4010E94C7066CE20E9496
:101EB0001607B5010E94C7066CE20E941607B6011C
:101EC0000E94C7066CE20E941607B3010E94C70673
:101ED0006CE20E941607B2010E94C706DC0114964C
:101EE0004D915C9115976D917C918BEB91E00E94E7
:101EF00039040E946C0689819A81009711F00E9432
:101F0000641189A19AA1009711F00E946411E0E088
:101F1000F0E0EF2B09F496CD0E94000093CD0097DE
:101F200049F487E691E00E947406D594C794F5942D
:101F3000E7941ECF8D5291408539910568F48BE668
:101F400091E00E947406D594C794D594C794F594F3
:101F5000E794F594E7940CCF81E791E00E94740632
:101F600007CFFEA2EDA2B80189A19AA10E94B812E2
:101F700080CF3E822D82B70189819A810E94B8125A
:101F80008ECF8AE491E090931C0280931B02809193
:101F9000250290912602009711F00E946411809111
:101FA0001F0290912002009711F00E94641180910D
:101FB000230290912402009711F00E9464118091F5
:101FC0001D0290911E02009711F00E9464118091F1
:101FD000210290912202009711F00E94641190E07A
:101FE00080E00E947E0190E080E00C945E01BB27BF
:101FF000FB015527AA27880F991FAA1FA41710F0C5
:10200000A41B83955051B9F7A05DAA3308F0A95DD0
:10201000A193009779F7B111B1931192CB010C9470
:102020001110DC01FC01672F71917723E1F73297E2
:1020300004C07C916D9370836291AE17BF07C8F3A3
:1020400008950E946310A59F900DB49F900DA49FCA
:10205000800D911D112408952F923F924F925F920F
:102060006F927F928F929F92AF92BF92CF92DF92A8
:10207000EF92FF920F931F93CF93DF93CDB7DEB70D
:10208000CA1BDB0B0FB6F894DEBF0FBECDBF0994A1
:102090002A88398848885F846E847D848C849B84F8
:1020A000AA84B984C884DF80EE80FD800C811B8106
:1020B000AA81B981CE0FD11D0FB6F894DEBF0FBE35
:1020C000CDBFED010895A29FB001B39FC001A39FB2
:1020D000700D811D1124911DB29F700D811D112461
:1020E000911D0895A1E21A2EAA1BBB1BFD010DC074
:1020F000AA1FBB1FEE1FFF1FA217B307E407F507B8
:1021000020F0A21BB30BE40BF50B661F771F881F93
:10211000991F1A9469F760957095809590959B0129
:10212000AC01BD01CF010895052E97FB1EF400946C
:102130000E94AB1057FD07D00E94721007FC03D01D
:102140004EF40C94AB1050954095309521953F4F2F
:102150004F4F5F4F089590958095709561957F4F93
:102160008F4F9F4F0895EE0FFF1F0590F491E02DC4
:1021700009940E946310332312F48A1B9B0B0C9466
:10218000C3100E946310B7FF0895821B930B08953C
:102190000F931F93CF93DF938230910510F482E069
:1021A00090E0E0914D02F0914E0230E020E0B0E08E
:1021B000A0E0309799F42115310509F44AC0281B95
:1021C000390B24303105D8F58A819B816115710561
:1021D00089F1FB0193838283FE0111C0408151810B
:1021E0000281138148175907E0F04817590799F4FD
:1021F000109761F012960C93129713961C933296D7
:10220000CF01DF91CF911F910F91089500934D025F
:1022100010934E02F4CF2115310551F042175307A8
:1022200038F0A901DB019A01BD01DF01F801C1CF3E
:10223000EF01F9CF90934E0280934D02CDCFFE0176
:10224000E20FF31F81939193225031093983288340
:10225000D7CF20914B0230914C02232B41F4209197
:1022600018013091190130934C0220934B022091B8
:102270001601309117012115310541F42DB73EB7F4
:1022800040911A0150911B01241B350BE0914B0228
:10229000F0914C02E217F307A0F42E1B3F0B281716
:1022A000390778F0AC014E5F5F4F2417350748F0CF
:1022B0004E0F5F1F50934C0240934B0281939193BA
:1022C0009FCFF0E0E0E09CCFCF93DF930097E9F061
:1022D000FC01329713821282A0914D02B0914E02FE
:1022E000ED0130E020E01097A1F420813181820FD0
:1022F000931F20914B0230914C022817390709F0A7
:1023000061C0F0934C02E0934B02DF91CF910895AE
:10231000EA01CE17DF07E8F54A815B819E0141158E
:102320005105B1F7E901FB83EA8349915991C40F43
:10233000D51FEC17FD0761F4808191810296840F0F
:10234000951FE90199838883828193819B838A8386
:10235000F0E0E0E012968D919C9113970097B9F50B
:102360002D913C911197CD010296820F931F2091E0
:102370004B0230914C022817390739F6309751F546
:1023800010924E0210924D02B0934C02A0934B0259
:10239000BCCFD383C28340815181840F951FC8175E
:1023A000D90761F44E5F5F4F88819981480F591FAB
:1023B000518340838A819B819383828321153105D8
:1023C00009F0B0CFF0934E02E0934D029ECFFD0195
:1023D000DC01C0CF13821282D7CFB0E0A0E0E3EFE0
:1023E000F1E10C942E108C01009751F4CB010E9466
:1023F000C8108C01C801CDB7DEB7E0E10C944A10DB
:10240000FC01E60FF71F9C0122503109E217F30788
:1024100008F49DC0D901CD91DC911197C617D7075B
:1024200098F0C530D10530F3CE0104978617970791
:1024300008F3C61BD70B2297C193D1936D937C935E
:10244000CF010E946411D6CF5B01AC1ABD0A4C01CA
:102450008C0E9D1EA0914D02B0914E02512C412C2C
:10246000F12CE12C109731F580914B0290914C02A8
:102470008815990509F05CC04616570608F058C043
:102480008091160190911701009741F48DB79EB786
:1024900040911A0150911B01841B950BE817F90715
:1024A00008F055C0F0934C02E0934B02F9017183A0
:1024B0006083A0CF8D919C91119712966C9012978A
:1024C00013967C901397A815B90559F56C0142E055
:1024D000C40ED11CCA14DB0420F1AC014A195B09FB
:1024E000DA011296159780F06282738251834083DD
:1024F000D9016D937C93E114F10471F0D701139627
:10250000FC93EE93129776CF22968C0F9D1FF901C4
:1025100091838083F301EFCFF0934E02E0934D025D
:1025200069CF4816590608F42C017D01D3019ACFD2
:10253000CB010E94C8107C01009749F0AE01B801A0
:102540000E94AF12C8010E946411870153CF10E0AE
:1025500000E050CF81E090E0F8940C94BF12FB01B2
:10256000DC0102C001900D9241505040D8F708950F
:10257000FB01DC0101900D920020E1F7089510E0CD
:10258000CAEDD0E004C0FE010E94B3102196CB3DFD
:08259000D107C9F7F894FFCF51
:10259800FFFFFFFF00E100000000000040014001D4
:1025A80040014001400100004F0280001214150450
:1025B8000C00C1808100000000000000BE04390446
:1025C800DF04D4042505E304010500000000DE0251
:1025D800000000004A07000000009D0600000000FF
:1025E8007707000000003F050D0A00420041004344
:1025F8000047726F656E00776974006772696A7365
:10260800006D697373636869656E207A77617274A7
:022618000000C0
:00000001FF
