:100000000C94DB000C9403010C9403010C94030189
:100010000C9403010C9403010C9403010C94030150
:100020000C9403010C9403010C9438050C94A7055F
:100030000C9403010C9403010C9403010C94030130
:100040000C9403010C9403010C9403010C94030120
:100050000C9403010C9403010C9403010C94EE0422
:100060000C9403010C9403010C9403010C94030100
:100070000C9403010C9403010C9403010C940301F0
:100080000C9403010C9403010C9403010C940301E0
:100090000C9403010C9403010C9403010C940301D0
:1000A0000C9403010C9403010C9403010000000064
:1000B0002300260029002C002F00080B000202025A
:1000C00000000904000001020200000524001001E4
:1000D0000524010101042402060524060001070588
:1000E000810310004009040100020A000000070516
:1000F00002024000000705830240000004030904D7
:1001000012010002EF020140FB1F00230001010267
:100110000301506F6C6F6C7520436F72706F72616A
:1001200074696F6E00506F6C6F6C7520412D537445
:100130006172203332553400000000002400270093
:100140002A002D00300000000000250028002B00B0
:100150002E00310004040404040304050202020218
:100160000403020202020606060606060404020250
:100170000204040408020110408040102040804026
:1001800080080204018040201002011080102040ED
:1001900040200000000200090F0000030401000CD1
:1001A000000000000000000000000000000000004F
:1001B0000000D907720A11241FBECFEFDAE0DEBFBC
:1001C000CDBF11E0A0E0B1E0E2E2FEE102C00590A7
:1001D0000D92A235B107D9F721E0A2E5B1E001C047
:1001E0001D92A43EB207E1F710E0CAEDD0E004C0D2
:1001F0002197FE010E94C00AC93DD107C9F70E949C
:10020000FF070C94040F0C940000FC018091720114
:10021000882311F13FB7F89482E08093E9002091A0
:10022000F200822F90E01816190614F481E090E095
:10023000882339F0289844E6409371014091F100F9
:100240004083222339F02091F200211103C02BE6D4
:100250002093E8003FBF08958FEF9FEF08952FB7D9
:10026000F89483E08093E9009091E800892F8072F0
:1002700095FF04C09091F20080E4891B2FBF089580
:100280008091690181110DC082E08093650184E055
:1002900080936601109268011092670181E080935B
:1002A000690185E691E0089581508F3008F047C0DC
:1002B000E82FF0E0E25AFE4F0C94C00A7B017F0168
:1002C0006D01730177019F019F019F0182018801E8
:1002D0008C01900196019F019A01809180008F7797
:1002E000809380000895809180008F7DF9CF809168
:1002F0008000877FF5CF84B58F7784BD089584B55E
:100300008F7DFBCF809190008F7780939000089530
:10031000809190008F7DF9CF80919000877FF5CFFD
:100320008091C0008F778093C00008958091C000B5
:100330008F7DF9CF8091C200877F8093C20008959E
:100340001F93CF93DF93282F30E0F901EE56FE4F35
:100350008491F901ED58FE4FD491F901EC5AFE4F0A
:10036000C491CC23A9F0162F81110E945401EC2FC7
:10037000F0E0EE0FFF1FEA5BFE4FA591B4918FB73F
:10038000F894EC91111108C0D095DE23DC938FBF57
:10039000DF91CF911F910895DE2BF8CFCF93DF939C
:1003A00090E0FC01ED58FE4F24918C5A9E4FFC01C9
:1003B00084918823D1F090E0880F991FFC01E85CBC
:1003C000FE4FA591B491FC01EA5BFE4FC591D4911B
:1003D00061110EC09FB7F8948C91E22FE0958E23A7
:1003E0008C932881E223E8839FBFDF91CF9108950A
:1003F0008FB7F894EC91E22BEC938FBFF6CF8091FE
:10040000D1018F3F61F061E00E94CE0160E08091F8
:10041000D1010E94A0018BE193E00197F1F70895CB
:100420003FB7F8948091610190916201A0916301BE
:10043000B091640126B5A89B05C02F3F19F0019625
:10044000A11DB11D3FBFBA2FA92F982F8827BC012E
:10045000CD01620F711D811D911D42E0660F771F56
:10046000881F991F4A95D1F70895CF92DF92EF9296
:10047000FF920E9410026B017C010E9410026C1915
:100480007D098E099F09683E734081059105A8F397
:10049000FF90EF90DF90CF900895409154015091DC
:1004A0005501209152013091530142175307B4F482
:1004B0009091E8009570E1F39091E80092FD19C0E9
:1004C0008093F100809154019091550101968F73B2
:1004D0009927892B19F48EEF8093E80080915401BD
:1004E000909155010196909355018093540181E0BC
:1004F000089580E00895EF92FF920F931F93CF939A
:10050000DF93F82E192FE62E042F81E0860F880F37
:100510000E944D0283E00E944D02CF2DD12FEC0EA0
:10052000FD2EF11CCE15DF05B9F007FF13C0FE014B
:1005300084910E944D02182F80E00E944D02812379
:1005400021968111EFCFDF91CF911F910F91FF90F5
:10055000EF9008958881EDCF81E0F5CFDF92EF92A3
:10056000FF920F931F93CF93DF93D82E8A01EB0155
:100570007B01E40EF51ECE15DF0559F0D7FE12C043
:10058000FE0184910E944D0221968111F4CF0FEF5C
:100590001FEFC801DF91CF911F910F91FF90EF9056
:1005A000DF9008958881EECF0F931F93CF93DF9351
:1005B0001F92CDB7DEB782E0898342E450E06AEB58
:1005C00070E080E80E94AE020E944001DC011296B9
:1005D0000D911C910115110589F0D801ED91FC9147
:1005E0000280F381E02DBE016F5F7F4FC801099546
:1005F00097FD04C0F80100851185ECCF89810F902B
:10060000DF91CF911F910F910895615030F02091AB
:10061000F100FC0120830196F8CF289884E68093AE
:10062000710108958F929F92AF92BF92CF92DF9205
:10063000EF92FF920F931F93CF93DF936C017B0197
:100640008A0180910B01882309F458C080917201BE
:10065000882309F453C08091580180FF05C0809120
:10066000E00082608093E000E801B12C8AEFA82EC0
:1006700093E0892E2AE3922E209711F4BB20B9F142
:100680000E942F01811106C0AA94AA20B9F10E94EC
:100690003502F2CF8C171D0611F00CF08C2F9FB78E
:1006A000F8948092E9002091E80025FD02C09FBFE8
:1006B000E3CF282F30E0C21BD30BF701815020F08D
:1006C00041914093F100FACFE20EF31EBB2021F0DE
:1006D0009092E800B12CEBCF8091E80085FDE7CF48
:1006E0009092E800BB24B394209709F3F3CF5D9870
:1006F00084E680935701101611063CF081E090E0EB
:10070000F6019383828310E000E0C801DF91CF916E
:100710001F910F91FF90EF90DF90CF90BF90AF901F
:100720009F908F900895CF93DF931F92CDB7DEB740
:100730006983DC01ED91FC910280F381E02D41E0C1
:1007400050E0BE016F5F7F4F09950F90DF91CF9111
:10075000089583E08093E9008091F200882319F0E6
:100760008AE38093E80008950E942F0190E00895A5
:10077000CF93DF931F92CDB7DEB7FC0184859585BB
:1007800097FD08C02FEF3FEF358724870F90DF914B
:10079000CF910895CE0101960E940501019719F4A9
:1007A000898190E0F3CF8FEF9FEFF0CF0F931F93EE
:1007B000CF93DF931F92CDB7DEB78C01FC01848508
:1007C000958597FF0BC0CE0101960E940501019708
:1007D00071F4898190E0F80195878487F801848518
:1007E00095850F90DF91CF911F910F9108958FEF15
:1007F0009FEFF1CFFC018485958597FD0BC09FB7D6
:10080000F89482E08093E9008091F2009FBF90E02D
:10081000019608959FB7F89482E08093E900809153
:10082000F2009FBF90E008955F926F927F928F9247
:100830009F92AF92BF92CF92DF92EF92FF920F936F
:100840001F93CF93DF93FC0122853385232B09F47B
:1008500092C06B01EC0110E08C851817E8F4E12ED2
:10086000F12C8E859F85F701EE0FFF1FEC0DFD1D0E
:1008700091838083EA85FB85EE0DFF1D61E0808119
:100880000E94A001EA85FB85EE0DFF1D61E08081DD
:100890000E94CE011F5FE0CF83E290E00197F1F765
:1008A00010E08C851817A0F4E12EF12CEA85FB8569
:1008B000EE0DFF1D60E080810E94CE01EA85FB8580
:1008C000EE0DFF1D60E080810E94A0011F5FE9CF57
:1008D0000E9410024B015C010E941002AB01BC019E
:1008E000481959096A097B098E859F85B0E0A0E007
:1008F000481759076A077B0708F03DC00E9410029D
:100900007B01E818F908612C8C85681628F7062DFC
:1009100010E0EA85FB85E00FF11F208130E0F9014E
:10092000EE56FE4F8491F901ED58FE4F7490F90197
:10093000EC5AFE4F549051100CC0000F111FF601DD
:10094000E00FF11F80819181E816F90688F0639429
:10095000DBCF81110E945401E52DF0E0EE0FFF1F67
:10096000E455FF4FA591B491EC917E2231F3EFCF86
:10097000F182E082ECCFDF91CF911F910F91FF9038
:10098000EF90DF90CF90BF90AF909F908F907F902F
:100990006F905F900895CF93DF93EC016623C9F0C9
:1009A0008091D1018F3F61F061E00E94CE0161E052
:1009B0008091D1010E94A0018BE193E00197F1F7B2
:1009C000BE0184EC91E00E941404DF91CF910C945D
:1009D000FF010E94FF01F4CF0E94270C1F920F928B
:1009E0000FB60F9211242F933F938F939F93AF9342
:1009F000BF9380915D0190915E01A0915F01B091E4
:100A0000600130915C0123E0230F2D3758F50196EA
:100A1000A11DB11D20935C0180935D0190935E0147
:100A2000A0935F01B0936001809161019091620198
:100A3000A0916301B09164010196A11DB11D809345
:100A4000610190936201A0936301B0936401BF912F
:100A5000AF919F918F913F912F910F900FBE0F906B
:100A60001F90189526E8230F0296A11DB11DD2CF25
:100A70001F920F920FB60F9211248F939F93809124
:100A8000E1009091E100937F9093E10083FF0FC01C
:100A90001092E90091E09093EB001092EC0092E349
:100AA0009093ED001092720198E09093F00082FF15
:100AB00022C093E09093E9009091F200992319F0FD
:100AC0009AE39093E80090915701992341F0909117
:100AD0005701915090935701911101C05D9A9091E7
:100AE0007101992341F0909171019150909371019E
:100AF000911101C0289A84FF18C08091E2008E7E77
:100B000081608093E2008091E1008F7E8093E1001C
:100B1000809158018E7E8061809358019F918F91C2
:100B20000F900FBE0F901F90189580FFF7CF809108
:100B3000E2008E7E80618093E2008091E1008E7EF3
:100B40008093E100809158018E7E8160E5CF1F92F5
:100B50000F920FB60F921124CF92DF92EF92FF9275
:100B60000F931F932F933F934F935F936F937F93B5
:100B70008F939F93AF93BF93EF93FF93CF93DF93A5
:100B8000CDB7DEB76C97DEBFCDBF1092E900809184
:100B9000E80083FF25C068E0CE0145960E9405036A
:100BA00082EF8093E8008D8987FF39C09091E8003B
:100BB00090FFFCCF982F907609F034C19E894F8921
:100BC000588D2F89F88C911131C0803861F5809152
:100BD00059018093F1001092F1008EEF8093E800AC
:100BE0006C960FB6F894DEBF0FBECDBFDF91CF91EC
:100BF000FF91EF91BF91AF919F918F917F916F91F5
:100C00005F914F913F912F911F910F91FF90EF9026
:100C1000DF90CF900F900FBE0F901F9018959EEF12
:100C20009093E800C7CF1092F100D5CF913059F4DE
:100C30008111D3CF4130510581F6809159018D7FCB
:100C400080935901CACF933049F48111C6CF413006
:100C5000510519F6809159018260F2CF953041F427
:100C60008091E80080FFFCCF20682093E300B5CF9F
:100C7000963009F0A9C00B8D1C8D22E01092E9007E
:100C80001092550110925401F2122EC0109253018D
:100C9000109252010E94D4021F8299E09983FA8235
:100CA00091E09E8390EA98879AEF9987209154016A
:100CB00030915501275F3F4F3C832B838D831092EA
:100CC000E9001092550110925401109353010093C2
:100CD000520149E050E0BE016F5F7F4F80E00E940B
:100CE000AE020E94D40279CF1093530100935201B7
:100CF0000E944001DC0112960D911C910115110515
:100D000009F451C1D801ED91FC910480F581E02DE9
:100D1000BE016B5E7F4FC8010995009709F03EC187
:100D2000F80100851185EACFF3E0FF120EC08F892C
:100D3000882309F440C0823061F440E862E185E232
:100D400091E00E947B02811148CF81E28093EB0009
:100D500047CF813029F440E862E182E191E0F1CFB0
:100D6000833099F70E944001DC011296ED90FC90CF
:100D70008E010F5F1F4F6801E114F10479F0D70174
:100D8000ED91FC910680F781E02DB801C70109952E
:100D9000080F111DF701E084F184EECFD8011C92F9
:100DA000F60101900020E9F73197BF016C197D0928
:100DB00040E0C601C6CF6CEF70E0FB01449150E00B
:100DC00080E80E94AE0209CF973009F4BECF983078
:100DD00021F481E08093F10000CF993009F0FDCE3D
:100DE000837009F0B2CFEEE1F1E081E031E096E30B
:100DF0002191222371F08093E9003093EB00DF0111
:100E000011972C912093EC009093ED008F5F873029
:100E100079F78EE78093EA001092EA008F89809339
:100E20007201DBCE8B8D9C8D1092E90010925501E2
:100E3000109254019093530180935201898D811136
:100E400092C08E899D89913A49F4813209F07DCF13
:100E500047E050E064E071E080E0B3CF913209F008
:100E600074CF833269F48F89988DB0E0A0E08093CD
:100E7000000190930101A0930201B0930301ADCE54
:100E8000803269F48091E80082FFFCCF67E084E063
:100E900091E00E9405038BEF8093E8009ECE8232A2
:100EA00009F09BCE8F8980930B01EEEFFFE78591D0
:100EB00094918B3F9C4D51F1E0E0F8E0809104016A
:100EC00090910501A0910601B0910701803B9440EB
:100ED000A105B105F1F480910B0180FD1AC0EE3F30
:100EE0008AE0F80789F587E797E791838083809107
:100EF00060008093560188E19BE00FB6F894A895B6
:100F0000809360000FBE9093600067CEEEEFFAE032
:100F1000D5CF808191818737974709F05ECEA8951C
:100F20008091600088618093600080915601809379
:100F30006000EE3F2AE0F20789F08091FE0A90916E
:100F4000FF0A9183808349CE8081918187379807FA
:100F500051F29093FF0A8093FE0AC5CF1092FF0AC8
:100F60001092FE0A3ACE0E944001DC0112960D91C9
:100F70001C910115110509F4E8CED801ED91FC9101
:100F80000190F081E02DBE016B5E7F4FC801099595
:100F9000811123CEF80100851185EBCF18161906B3
:100FA0000CF41BCED2CEF1E0FF12BECE60E071E0B9
:100FB00004CFE3E7F1E01382128288EE93E0A0E031
:100FC000B0E084839583A683B78388E291E0918320
:100FD00080838FEF9FEF95878487E3ECF1E01082A9
:100FE0001482138216821582108617821286118649
:100FF000148613868AE391E0928381830895CF93C8
:10100000DF93CDB7DEB7C059D1090FB6F894DEBF74
:101010000FBECDBF789484B5826084BD84B58160F5
:1010200084BD85B5826085BD85B5816085BD8091B3
:101030006E00816080936E0010928100809181002B
:101040008260809381008091810081608093810023
:101050008091800081608093800080919100826007
:1010600080939100809191008160809391008091A4
:1010700090008160809390008091C1008460809393
:10108000C1008091C10082608093C1008091C10045
:1010900081608093C1008091C30081608093C30010
:1010A0008091C00082608093C0008091C200816006
:1010B0008093C20080917A00846080937A0080914E
:1010C0007A00826080937A0080917A0081608093B8
:1010D0007A0080917A00806880937A001092720181
:1010E00010925901109258018091D700816080932D
:1010F000D70080EA8093D80089B5806189BD89B521
:10110000826089BD09B400FEFDCF0E943502809146
:10111000D8008F7C80618093D8008091E000807F30
:101120008093E0008091E1008E7E8093E1008DE06D
:101130008093E200559A209A8FEF9FEF9093800161
:1011400080937F0185E0E2E1F1E08E010F5F1F4FA8
:10115000D80101900D928A95E1F71092C701109283
:10116000C6011092C9011092C8011092CB011092D1
:10117000CA011092CD011092CC011092D5011092AB
:10118000D40185E08093D0018091CE019091CF0170
:10119000892BA1F080E09091D0018917F0F5282FDC
:1011A00030E0E091CE01F091CF01E20FF31F200F6C
:1011B000311FD9019C9190838F5FEDCF85E090E046
:1011C0000E94020B9093CF018093CE01892B11F7DF
:1011D00080ED97E09093D3018093D2018091C80174
:1011E0009091C901892BE9F4E090D001F12CC7015D
:1011F000880F991F0E94020B9093C9018093C80128
:10120000009709F4A3C0FC0190E080E08E159F05D3
:1012100044F4119211920196F9CF8BE08093D101A1
:10122000D7CF8091C6019091C701892BD9F4E09066
:10123000D001F12CC701880F991F0E94020B9093D7
:10124000C7018093C601009709F480C0FC0190E0BB
:1012500080E020ED37E08E159F0524F42193319333
:101260000196F9CFF12CE12C61E0CE018F589F4F10
:101270000E94CB048090D001912C58019E012F5ADE
:101280003F4FBE016F587F4F3901D80150E040E019
:101290004815590524F5FB0181919191BF01E11495
:1012A000F10499F0F301C080D180C816D90668F026
:1012B000CD90DC9011978C159D0568F04F5F5F4FC6
:1012C0001296F2E06F0E711CE3CFF30191838083DD
:1012D000E114F10469F711969C938E93EFCF4FEFD1
:1012E000E41AF40A8AE0E816F10409F0BDCFA091EF
:1012F000C601B091C701E090C801F090C90190E02B
:1013000080E04091D0014817190601F1FCF0F50189
:10131000419151915F01F7016081718164177507F7
:1013200010F451834083F901419151919F016D91D6
:101330007C9111974617570718F411965C934E93BA
:1013400001961296F2E0EF0EF11CDBCF81E0809364
:10135000C3019CE3692E91E0792E20E0422E20E02B
:10136000522E2FB7F89480915D0190915E01A0916B
:101370005F01B09160012FBF20915A0130915B0154
:10138000821B930B8436910508F4A5C02FB7F894FF
:1013900080915D0190915E01A0915F01B09160012B
:1013A0002FBF90935B0180935A018091C3018823E2
:1013B00009F456C08091C6019091C701892B09F4A8
:1013C00054C08091C8019091C901892B09F44DC086
:1013D00061E086ED91E00E94CB0486EDC82E81E0AD
:1013E000D82E8090C8019090C901A090C601B090FD
:1013F000C701F12CE12C8091D0018E151F04A9F1B9
:10140000A4F1D401ED91FD914D01D5018D919D91F6
:101410005D01E81BF90BD1F0D6012D913C9150E014
:1014200040E0281B390B41095109A8EEB3E00E94A6
:10143000C60A9F0150E040E00E94A10A293EB3E0A5
:101440003B0714F028EE33E037FF02C030E020E025
:10145000F601219331936F01FFEFEF1AFF0ACBCF13
:1014600061E086ED91E00E94CB048091DF018F93D3
:101470008091DE018F938091DD018F938091DC015B
:101480008F938091DB018F938091DA018F9380910C
:10149000D9018F938091D8018F938091D7018F9339
:1014A0008091D6018F937F926F921F930F930E942A
:1014B0002C0CF80101900020E9F73197AF01401B97
:1014C000510BB80183E791E00E9412030FB6F89424
:1014D000DEBF0FBECDBF4114510409F442CF0E94BC
:1014E00000003FCF8BE191E09093C5018093C40150
:1014F0008091CE019091CF01009711F00E949E0B38
:101500008091C8019091C901009711F00E949E0B33
:101510008091CC019091CD01009711F00E949E0B1B
:101520008091C6019091C701009711F00E949E0B17
:101530008091CA019091CB01009711F00C949E0B01
:101540000895052E97FB1EF400940E94B80A57FDDB
:1015500007D00E94D10A07FC03D04EF40C94B80ABD
:1015600050954095309521953F4F4F4F5F4F0895CF
:1015700090958095709561957F4F8F4F9F4F0895FF
:10158000EE0FFF1F0590F491E02D09940E94F30ADD
:10159000A59F900DB49F900DA49F800D911D1124C7
:1015A0000895A1E21A2EAA1BBB1BFD010DC0AA1FA4
:1015B000BB1FEE1FFF1FA217B307E407F50720F0BC
:1015C000A21BB30BE40BF50B661F771F881F991F37
:1015D0001A9469F760957095809590959B01AC0180
:1015E000BD01CF010895A29FB001B39FC001A39F89
:1015F000700D811D1124911DB29F700D811D11244C
:10160000911D08950F931F93CF93DF93823091051F
:1016100010F482E090E0E091E201F091E30130E02B
:1016200020E0B0E0A0E0309799F42115310509F4ED
:101630004AC0281B390B24303105D8F58A819B819B
:101640006115710589F1FB0193838283FE0111C04D
:10165000408151810281138148175907E0F04817F2
:10166000590799F4109761F012960C9312971396FC
:101670001C933296CF01DF91CF911F910F91089566
:101680000093E2011093E301F4CF2115310551F0ED
:101690004217530738F0A901DB019A01BD01DF01B0
:1016A000F801C1CFEF01F9CF9093E3018093E201FC
:1016B000CDCFFE01E20FF31F8193919322503109A8
:1016C00039832883D7CF2091E0013091E101232B8A
:1016D00041F420910E0130910F013093E1012093EC
:1016E000E00120910C0130910D012115310541F4EB
:1016F0002DB73EB74091100150911101241B350BBD
:10170000E091E001F091E101E217F307A0F42E1B54
:101710003F0B2817390778F0AC014E5F5F4F241755
:10172000350748F04E0F5F1F5093E1014093E001F1
:10173000819391939FCFF0E0E0E09CCFCF93DF9334
:101740000097E9F0FC01329713821282A091E20126
:10175000B091E301ED0130E020E01097A1F4208189
:101760003181820F931F2091E0013091E101281710
:10177000390709F061C0F093E101E093E001DF91E6
:10178000CF910895EA01CE17DF07E8F54A815B8122
:101790009E0141155105B1F7E901FB83EA834991A7
:1017A0005991C40FD51FEC17FD0761F48081918119
:1017B0000296840F951FE901998388838281938122
:1017C0009B838A83F0E0E0E012968D919C911397C1
:1017D0000097B9F52D913C911197CD010296820F9A
:1017E000931F2091E0013091E1012817390739F664
:1017F000309751F51092E3011092E201B093E101AC
:10180000A093E001BCCFD383C28340815181840F78
:10181000951FC817D90761F44E5F5F4F8881998182
:10182000480F591F518340838A819B819383828310
:101830002115310509F0B0CFF093E301E093E20107
:101840009ECFFD01DC01C0CF13821282D7CF81E091
:1018500090E0F8940C94040FAEE0B0E0E2E3FCE01A
:101860000C94DB0E0D891E8986E08C831A83098314
:101870008FEF9FE79E838D83AE01475E5F4F6F8939
:10188000788DCE0101960E944F0C2F813885020F72
:10189000131FF80110822E96E4E00C94F70EABE0D3
:1018A000B0E0E5E5FCE00C94CD0E7C013B018A0143
:1018B000FC0117821682838181FFC8C1CE01019687
:1018C0005C01F7019381F30193FD859193FF819171
:1018D0003F01882309F453C1853239F493FD859182
:1018E00093FF81913F01853229F4B70190E00E9476
:1018F0003F0EE7CF912C212C312CFFE1F31538F06E
:101900008B3211F190F4803209F1833229F137FCE6
:101910003CC020ED280F2A3050F536FE20C08AE06A
:10192000989E200D1124922E06C08D3291F08033A6
:1019300071F7689430F8F30193FD859193FF8191DD
:101940003F018111DACF21C0689431F8689432F8F0
:10195000F2CF689433F8EFCF689434F8ECCFEAE034
:101960002E9E200D1124222E689435F8E4CF8E325D
:1019700029F436FC04C1689436F8DDCF8C3619F4AE
:10198000689437F8D8CF8836B1F2982F9F7D955458
:101990009330E0F08336A1F18337C1F1833509F04C
:1019A00063C02801F2E04F0E511CF801C080D180C5
:1019B000692D70E036FC02C06FEF7FEFC6010E9418
:1019C000290E4C01689437F882010AC00C5F1F4F42
:1019D000FFE3F98388248394912C6501E89437F818
:1019E00033FE2DC0522C8114910471F5552009F459
:1019F00068CFB70180E290E00E943F0E5A94F6CF84
:101A0000F801808189830E5F1F4FE4CF2801F2E047
:101A10004F0E511CF801C080D180692D70E036FC5A
:101A200002C06FEF7FEFC6010E94340E4C018201AD
:101A3000D5CFB70180E290E00E943F0E2A9428148F
:101A4000190409F0B0F7CECFF60137FC859137FEC7
:101A500081916F01B70190E00E943F0E51105A949E
:101A6000F1E08F1A9108BFCF843619F0893609F05A
:101A700077C0F80137FE6BC06081718182819381EC
:101A80000C5F1F4FF32DFF763F2E97FF09C09095F7
:101A90008095709561957F4F8F4F9F4F689437F871
:101AA0002AE030E0A5010E946F0EC82ECA188C2CC7
:101AB000432C36FE0CC0E89440F8C91440F434FEC0
:101AC00005C032FC03C0F32DFE7E4F2E892C44FE50
:101AD00095C0FE01EC0DF11D8081803309F087C0B7
:101AE000242D297E422E842D8870582E43FC95C0CB
:101AF00040FE8FC09C2C821418F42C0C922C981849
:101B000044FE91C0B70180E390E00E943F0E42FE88
:101B100009C088E790E041FE02C088E590E0B70187
:101B20000E943F0EC91408F48AC0CA94D12C9FEFBA
:101B3000C91AD90ACA0CDB1CF60182916F01B701E0
:101B400090E00E943F0EAC14BD04B1F74FCF60810E
:101B50007181072E000C880B990B0E5F1F4F92CFDF
:101B6000D32CE894D4F82AE030E0853739F1232DDE
:101B7000297FD22E8F3601F148F48835A9F0F7017C
:101B8000868197812B96E2E10C94E90E803749F02B
:101B90008837A9F7D4FE02C06894D2F820E130E07B
:101BA0000DC06894D4F8F6CF34FE03C0822F86604F
:101BB000D82E20E132E002C028E030E0F801D7FE64
:101BC0000FC060817181828193810C5F1F4FA501DD
:101BD0000E946F0EC82ECA183D2CE89437F867CFC4
:101BE0006081718190E080E00E5F1F4FF0CF42FC7A
:101BF00002C0839478CF8394839475CF842D8678A4
:101C000009F471CFF6CFB70180E290E00E943F0E59
:101C100083948214C0F3512C73CF522C5818821421
:101C200008F46ECFF8CF842D867809F47BCF8BE251
:101C300041FE80E247FC8DE2B70190E071CFB70131
:101C400080E390E00E943F0E9A946CCF8FEF9FEF5D
:101C500099CFFC010590615070400110D8F7809534
:101C600090958E0F9F1F0895FC0161507040019068
:101C70000110D8F7809590958E0F9F1F08950F93B0
:101C80001F93CF93DF93182F092FEB018B8181FDD9
:101C900009C01FEF0FEF812F902FDF91CF911F9180
:101CA0000F91089582FF14C02E813F818C819D8108
:101CB000281739073CF4E881F981CF01019699830F
:101CC000888310838E819F8101969F838E83E3CFCB
:101CD000E885F985812F0995892BA1F3DACFFA01DF
:101CE000AA27283051F1203181F1E8946F936E7F5B
:101CF0006E5F7F4F8F4F9F4FAF4FB1E03ED0B4E04C
:101D00003CD0670F781F891F9A1FA11D680F791F8C
:101D10008A1F911DA11D6A0F711D811D911DA11D9D
:101D200020D009F468943F912AE0269F11243019AD
:101D3000305D3193DEF6CF010895462F4770405D48
:101D40004193B3E00FD0C9F7F6CF462F4F70405DF7
:101D50004A3318F0495D31FD4052419302D0A9F752
:101D6000EACFB4E0A6959795879577956795BA954C
:101D7000C9F700976105710508959B01AC010A2E12
:101D800006945795479537952795BA95C9F7620FE9
:101D9000731F841F951FA01D08952F923F924F928D
:101DA0005F926F927F928F929F92AF92BF92CF92EB
:101DB000DF92EF92FF920F931F93CF93DF93CDB7F4
:101DC000DEB7CA1BDB0B0FB6F894DEBF0FBECDBF6C
:101DD00009942A88398848885F846E847D848C843D
:101DE0009B84AA84B984C884DF80EE80FD800C8146
:101DF0001B81AA81B981CE0FD11D0FB6F894DEBF29
:101E00000FBECDBFED01089510E0CAEDD0E004C0D3
:101E1000FE010E94C00A2196CB3DD107C9F7F89474
:021E2000FFCFF2
:101E2200FFFFFFFF00E10000000000000000E401EE
:101E32008000121415040C00000000EC0400C180A4
:101E4200810000000000000093031203B403A90301
:101E5200FA03B803D60300000000140425346420FA
:101E62002534642025346420253464202534640A12
:021E720000006E
:00000001FF
