:100000000C94DB000C9409090C94E2080C94BB08D6
:100010000C9494080C9403010C9403010C946D0847
:100020000C9403010C9430090C94C5090C94340A07
:100030000C9403010C9403010C9403010C94030130
:100040000C9403010C9403010C9403010C94030120
:100050000C9403010C9403010C9403010C947B0990
:100060000C9403010C9403010C9403010C94030100
:100070000C9403010C9403010C9403010C940301F0
:100080000C9403010C9403010C9403010C940301E0
:100090000C9403010C9403010C9403010C940301D0
:1000A0000C9403010C94660C0C940301080B0002E1
:1000B0000202000009040000010202000005240001
:1000C0001001052401010104240206052406000193
:1000D0000705810310004009040100020A00000026
:1000E00007050202400000070583024000000403E8
:1000F000090412010002EF020140FB1F002300016E
:1001000001020301506F6C6F6C7520436F72706F4A
:10011000726174696F6E00506F6C6F6C7520412D49
:100120005374617220333255340000000000240003
:1001300027002A002D0030000000000025002800C4
:100140002B002E00310000000000230026002900B3
:100150002C002F000404040404030405020202021C
:100160000403020202020606060606060404020250
:100170000204040408020110408040102040804026
:1001800080080204018040201002011080102040ED
:1001900040200000000200090F0000030401000CD1
:1001A000000000000000000000000000000000004F
:1001B0000000EA0C531011241FBECFEFDAE0DEBFBF
:1001C000CDBF11E0A0E0B1E0E0ECF4E202C00590A8
:1001D0000D92A238B107D9F722E0A2E8B1E001C040
:1001E0001D92A234B207E1F710E0CAEDD0E004C0DE
:1001F0002197FE010E94FA10C93DD107C9F70E945C
:10020000340D0C9453120C940000FC018091B50144
:10021000882311F13FB7F89482E08093E9002091A0
:10022000F200822F90E01816190614F481E090E095
:10023000882339F0289844E64093B4014091F100B6
:100240004083222339F02091F200211103C02BE6D4
:100250002093E8003FBF08958FEF9FEF08952FB7D9
:10026000F89483E08093E9009091E800892F8072F0
:1002700095FF04C09091F20080E4891B2FBF089580
:1002800008952E98269A2D98259A2A98229A299888
:10029000219A80EA8093800081E18093810080E947
:1002A00091E09093870080938600109289001092CD
:1002B000880010928B0010928A000895CF93DF93EC
:1002C000EC018091AE01811105C081E08093AE0107
:1002D0000E94410180E0D7FF04C0D195C195D109AA
:1002E00081E0D0938900C0938800811102C02998D1
:1002F00001C0299A219ADF91CF910895CF93DF937E
:10030000EC018091AE01811105C081E08093AE01C6
:100310000E94410180E0D7FF04C0D195C195D10969
:1003200081E0D0938B00C0938A00811102C02A988B
:1003300001C02A9A229ADF91CF9108958091A60157
:1003400081110DC082E08093A20184E08093A3011B
:100350001092A5011092A40181E08093A60182EA87
:1003600091E0089581508F3008F047C0E82FF0E009
:10037000E454FE4F0C94FA10D901DD01CB01D101F8
:10038000D501FD01FD01FD01E001E601EA01EE01FB
:10039000F401FD01F801809180008F778093800047
:1003A0000895809180008F7DF9CF80918000877FB4
:1003B000F5CF84B58F7784BD089584B58F7DFBCF4D
:1003C000809190008F7780939000089580919000A5
:1003D0008F7DF9CF80919000877FF5CF8091C0000D
:1003E0008F778093C00008958091C0008F7DF9CFF2
:1003F0008091C200877F8093C2000895CF93DF93DE
:10040000282F30E0F901EE56FE4F8491F901ED58A6
:10041000FE4FD491F901EC5AFE4FC491CC23A1F0C8
:1004200081110E94B201EC2FF0E0EE0FFF1FEA5B9A
:10043000FE4FA591B491EC91ED2381E090E009F499
:1004400080E0DF91CF91089580E090E0FACF1F9394
:10045000CF93DF93282F30E0F901EE56FE4F8491C1
:10046000F901ED58FE4FD491F901EC5AFE4FC491B9
:10047000CC23A9F0162F81110E94B201EC2FF0E0DD
:10048000EE0FFF1FE85CFE4FA591B4918FB7F89473
:10049000EC91111108C0D095DE23DC938FBFDF9162
:1004A000CF911F910895DE2BF8CFCF93DF9390E08B
:1004B000FC01ED58FE4F24918C5A9E4FFC01849113
:1004C0008823C9F090E0880F991FFC01E65DFE4F7C
:1004D000A591B491FC01E85CFE4FC591D4916111E6
:1004E0000DC09FB7F8948C91209582238C938881BE
:1004F000282328839FBFDF91CF910895623051F464
:100500009FB7F8943C91822F809583238C93E88148
:100510002E2BEFCF8FB7F894EC912E2B2C938FBF0F
:10052000EACF3FB7F89480919E0190919F01A091EE
:10053000A001B091A10126B5A89B05C02F3F19F0DD
:100540000196A11DB11D3FBFBA2FA92F982F882753
:10055000BC01CD01620F711D811D911D42E0660F2E
:10056000771F881F991F4A95D1F708958F929F9200
:10057000AF92BF92CF92DF92EF92FF924B015C015C
:100580000E9491026B017C010E9491026C197D090D
:100590008E099F09683E734081059105A8F321E00B
:1005A000821A9108A108B10888EEC80E83E0D81E0F
:1005B000E11CF11C81149104A104B10429F7FF90FE
:1005C000EF90DF90CF90BF90AF909F908F90089565
:1005D00040918E0150918F0120918C0130918D01BD
:1005E00042175307B4F49091E8009570E1F39091AD
:1005F000E80092FD19C08093F10080918E019091E6
:100600008F0101968F739927892B19F48EEF8093B0
:10061000E80080918E0190918F01019690938F0157
:1006200080938E0181E0089580E00895DF92EF923B
:10063000FF920F931F93CF93DF93D82E8A01EB0184
:100640007B01E40EF51ECE15DF0559F0D7FE12C072
:10065000FE0184910E94E80221968111F4CF0FEFF0
:100660001FEFC801DF91CF911F910F91FF90EF9085
:10067000DF9008958881EECF0F931F93CF93DF9380
:100680001F92CDB7DEB782E0898342E450E06CEA86
:1006900070E080E80E9416030E949E01DC01129621
:1006A0000D911C910115110589F0D801ED91FC9176
:1006B0000280F381E02DBE016F5F7F4FC801099575
:1006C00097FD04C0F80100851185ECCF89810F905A
:1006D000DF91CF911F910F910895615030F02091DB
:1006E000F100FC0120830196F8CF289884E68093DE
:1006F000B40108958F929F92AF92BF92CF92DF92F2
:10070000EF92FF920F931F93CF93DF936C017B01C6
:100710008A0180911501882309F45CC08091B5019C
:10072000882309F457C08091920180FF05C0809111
:10073000E00082608093E000E801B12C8AEFA82EEF
:1007400093E0892E2AE3922E209711F4BB20D9F151
:100750000E942F0181110AC0AA94AA20D9F161E058
:1007600070E080E090E00E94B602EECF8C171D068C
:1007700011F00CF08C2F9FB7F8948092E900209133
:10078000E80025FD02C09FBFDFCF282F30E0C21B4D
:10079000D30BF701815020F041914093F100FACF43
:1007A000E20EF31EBB2021F09092E800B12CEBCFBB
:1007B0008091E80085FDE7CF9092E800BB24B394D8
:1007C000209709F3F3CF5D9884E68093910110168A
:1007D00011063CF081E090E0F6019383828310E003
:1007E00000E0C801DF91CF911F910F91FF90EF9032
:1007F000DF90CF90BF90AF909F908F900895CF9350
:10080000DF931F92CDB7DEB76983DC01ED91FC91D8
:100810000280F381E02D41E050E0BE016F5F7F4F29
:1008200009950F90DF91CF91089583E08093E900BF
:100830008091F200882319F08AE38093E8000895FC
:100840000E942F0190E00895CF93DF931F92CDB7C0
:10085000DEB7FC018485958597FD08C02FEF3FEF3B
:10086000358724870F90DF91CF910895CE010196AF
:100870000E940501019719F4898190E0F3CF8FEF71
:100880009FEFF0CF0F931F93CF93DF931F92CDB7BE
:10089000DEB78C01FC018485958597FF0BC0CE01E6
:1008A00001960E940501019771F4898190E0F80199
:1008B00095878487F801848595850F90DF91CF9186
:1008C0001F910F9108958FEF9FEFF1CFFC01848569
:1008D000958597FD0BC09FB7F89482E08093E9005F
:1008E0008091F2009FBF90E0019608959FB7F89421
:1008F00082E08093E9008091F2009FBF90E008952C
:100900007F928F929F92AF92BF92CF92DF92EF929F
:10091000FF920F931F93CF93DF93FC0122853385C2
:10092000232B09F476C06B01EC0110E08C851817BD
:10093000E8F4E12EF12C8E859F85F701EE0FFF1F65
:10094000EC0DFD1D91838083EA85FB85EE0DFF1D77
:1009500061E080810E942702EA85FB85EE0DFF1D84
:1009600061E080810E9455021F5FE0CF83E290E04A
:100970000197F1F710E08C851817A0F4E12EF12C07
:10098000EA85FB85EE0DFF1D60E080810E94550227
:10099000EA85FB85EE0DFF1D60E080810E94270245
:1009A0001F5FE9CF0E9491024B015C010E949102FE
:1009B000AB01BC01481959096A097B098E859F85DD
:1009C000B0E0A0E0481759076A077B0710F50E94BE
:1009D00091027B01E818F908712C8C85781630F7A4
:1009E000072D10E0EA85FB85E00FF11F80810E9452
:1009F000FE01892B61F4000F111FF601E00FF11FBA
:100A000080819181E816F90610F4F182E0827394F6
:100A1000E4CFDF91CF911F910F91FF90EF90DF9086
:100A2000CF90BF90AF909F908F907F900895CF937D
:100A3000DF93EC018D858F3F59F061E00E945502F4
:100A400061E08D850E9427028BE193E00197F1F729
:100A5000DF91CF910895CF93DF93EC018D858F3F88
:100A600059F061E00E94550260E08D850E942702E6
:100A70008BE193E00197F1F7DF91CF910895809199
:100A80009501E0919601F0919701882339F08491C6
:100A90009FEB980F9A3120F4805E08958081F8CF03
:100AA000803269F42091960130919701A9014F5F3E
:100AB0005F4F5093970140939601232B01F70895C0
:100AC0001F93CF93DF930E943F05D0E0C0E01AE070
:100AD00090ED980F9A30B8F41C9F90011D9F300D37
:100AE0001124E901C80FD11D87FDDA95E0978091A7
:100AF00096019091970101969093970180939601AA
:100B00000E943F05E5CFCE01DF91CF911F9108955F
:100B10003F924F925F926F927F928F929F92AF928D
:100B2000BF92CF92DF92EF92FF920F931F93CF93DA
:100B3000DF937B01D42E2091880121111BC021E07D
:100B400020938801109272001092C00034E030931C
:100B5000C10039E03093C2002093C30023E020930A
:100B6000BF0028EE2093D1001092BF001092D20057
:100B7000579A789410920001CC24C39497FF03C035
:100B80009F77AAE0CA2EC8E2CC9EC02D1124D0E0E7
:100B90008C179D0750F021E0EC01C21206C0C13154
:100BA00087E2D80710F0C0E1D7E24E01B12CA12CAA
:100BB0004C2C512C712C612C9E01AFEFB7E00E94A0
:100BC0000811640D751D861D971D9695879577955F
:100BD0006795A30192010E94B91060E072E18AE773
:100BE00090E0312C3394621773078407950728F03F
:100BF0009695879577956795F5CFA30192010E9409
:100C000089109E0136952795620F731F811D911DD6
:100C1000A50194010E94B910722E022F132F2AE011
:100C2000C21207C0CE0105966AE070E00E94A510CE
:100C3000EB01C83E83E0D80759F09701DE010E941E
:100C4000081128EE33E040E050E00E94DB1079010B
:100C5000109272008091C100807F83298093C1002F
:100C60001093BF007092D1004D2D403108F04FE03D
:100C700080E190E0841B910902C0169507958A9542
:100C8000E2F71093BF000093D200F0928A01E09245
:100C9000890189B38FEF89BB84E080937200DF9173
:100CA000CF911F910F91FF90EF90DF90CF90BF9069
:100CB000AF909F908F907F906F905F904F903F90FC
:100CC00008956F927F928F929F92AF92BF92CF9230
:100CD000DF92EF92FF920F931F93CF93DF93909049
:100CE000090180918B018823E9F080919401882388
:100CF000C9F06091940170E040E088EE93E00E94BA
:100D0000880510929401DF91CF911F910F91FF9070
:100D1000EF90DF90CF90BF90AF909F908F907F909B
:100D20006F9008957724739470ECA72E7DE5B72E0D
:100D3000EAE06E2EF4E08F2EA0EDCA2EA7E0DA2EA8
:100D4000B4E0EB2EF12C04EF11E0CFE0D0E00E94F4
:100D50003F0520919601309197012F5F3F4F3093CF
:100D6000970120939601853609F473C00CF047C0B3
:100D7000813609F4B4C024F58C3309F468C08E338D
:100D800009F463C0813209F043C080920901D09216
:100D90000601C0920501F0920801E092070110934C
:100DA000040100930301D0930201C093010110924A
:100DB0008B01909009018091030190910401C7CFAC
:100DC000833609F48FC0C0E0DBE0843614F0C0E065
:100DD000D2E04CE0949ED00D11240E943F05982F44
:100DE000977F933209F080C080919601909197018E
:100DF00001969093970180939601DF5FEECF8D3639
:100E000009F445C054F4873651F134F18C3651F170
:100E1000109297011092960176CF823709F44CC058
:100E200044F48F36A9F70E946005982E809309013B
:100E30008ECF843709F443C0863751F70E9460058E
:100E4000909302018093010182CF939480CF9A9472
:100E50007ECFC0E0D4E0BDCFC0E0D5E0BACFC0E0E7
:100E6000D7E0B7CF0E9460059093080180930701F7
:100E70008091050190910601609107017091080130
:100E80000E94A510709304016093030160CF0E943B
:100E90003F058C3661F410928B0180919601909100
:100EA00097010196909397018093960150CF70928D
:100EB0008B0110929401F1CFC1E0D0E08ACF0E9463
:100EC0006005BC01C5010E94A510669EC001679E19
:100ED000900D11249093060180930501C9CFC0E0C5
:100EE000D9E077CFC0E0E9CF8D3269F480919601E7
:100EF0009091970101969093970180939601D1501C
:100F00000E943F05F1CF009103011091040181532C
:100F1000883058F400910501109106010E94600587
:100F2000BC01C8010E94A5108B017801F694E794DA
:100F30000E943F058E3261F4809196019091970155
:100F4000019690939701809396010E0D1F1DEECF91
:100F500080918B01882349F0C801969587958093ED
:100F6000940180919401081B1109E0900101F09017
:100F70000201C11104C0DF3F11F0E11014C040E0D4
:100F8000B80188EE93E0DF91CF911F910F91FF9010
:100F9000EF90DF90CF90BF90AF909F908F907F9019
:100FA0006F900C948805D13128F0C0EFCD0FC0367A
:100FB00008F0CFE58C2F6CE00E949910582F44EF79
:100FC0004503900111242C0F311D2C303105C8F43C
:100FD000220F331FF901E55DFE4F208131818730FB
:100FE000D9F0082E02C0220F331F0A94E2F7823094
:100FF00058F0C90105966AE070E00E94A510CB0187
:1010000005C030E020E0EBCFC90190584E2D4031B3
:1010100008F04FE0B801B7CFC90126E0880F991F4B
:101020002A95E1F7029665E070E0E7CFCF93DF9372
:10103000EC01888581110EC0898591E098879A8599
:1010400062E0911101C060E00E9455028FE090E0E3
:101050000197F1F789850E94FE013B8521E0381751
:10106000190609F420E0822FDF91CF9108950E94A4
:101070004E12CF93DF93A2EEB0E09C911C92E9EE6A
:10108000F0E020811082C0EFD0E03881188240E08B
:101090005D9941605599426055985D9A80E18A95C5
:1010A000F1F789B141FB0EF0559840FB0EF05D98C9
:1010B0000EF45D9A41FB0EF4559A1082388320831A
:1010C0009C9390E025E0959587952A95E1F780958A
:1010D00090958170DF91CF9108951F920F920FB676
:1010E0000F9211242F933F934F935F936F937F93AE
:1010F0008F939F93AF93BF93EF93FF93E0911E0164
:10110000F0911F010995FF91EF91BF91AF919F91D0
:101110008F917F916F915F914F913F912F910F90A0
:101120000FBE0F901F9018951F920F920FB60F923F
:1011300011242F933F934F935F936F937F938F93DC
:101140009F93AF93BF93EF93FF93E0911C01F091B6
:101150001D010995FF91EF91BF91AF919F918F91E3
:101160007F916F915F914F913F912F910F900FBEA3
:101170000F901F9018951F920F920FB60F92112487
:101180002F933F934F935F936F937F938F939F938F
:10119000AF93BF93EF93FF93E0911A01F0911B017E
:1011A0000995FF91EF91BF91AF919F918F917F91A1
:1011B0006F915F914F913F912F910F900FBE0F90C4
:1011C0001F9018951F920F920FB60F9211242F9314
:1011D0003F934F935F936F937F938F939F93AF93BF
:1011E000BF93EF93FF93E0911801F09119010995D6
:1011F000FF91EF91BF91AF919F918F917F916F91EF
:101200005F914F913F912F910F900FBE0F901F90C4
:1012100018951F920F920FB60F9211242F933F93A0
:101220004F935F936F937F938F939F93AF93BF93EE
:10123000EF93FF93E0911601F09117010995FF914B
:10124000EF91BF91AF919F918F917F916F915F913E
:101250004F913F912F910F900FBE0F901F901895B7
:101260001F920F920FB60F9211242F933F934F931B
:101270006F937F938F939F938CB1282F30E0359598
:10128000279535952795422F417083B190E064E012
:10129000959587956A95E1F7822781702091B30132
:1012A0009091B2016091B0017091B101282794270B
:1012B000291B330B260F371F3093B1012093B00148
:1012C0002091B2019091B301281729F0941719F0D9
:1012D00091E09093AF018093B2014093B3019F914D
:1012E0008F917F916F914F913F912F910F900FBEF2
:1012F0000F901F9018951F920F920FB60F92112406
:101300002F933F938F939F93AF93BF9380919A01B5
:1013100090919B01A0919C01B0919D013091990108
:1013200023E0230F2D3758F50196A11DB11D209301
:10133000990180939A0190939B01A0939C01B09393
:101340009D0180919E0190919F01A091A001B0917B
:10135000A1010196A11DB11D80939E0190939F0153
:10136000A093A001B093A101BF91AF919F918F91E4
:101370003F912F910F900FBE0F901F90189526E868
:10138000230F0296A11DB11DD2CF1F920F920FB64F
:101390000F9211248F939F938091E1009091E1002F
:1013A000937F9093E10083FF0FC01092E90091E0DA
:1013B0009093EB001092EC0092E39093ED0010926A
:1013C000B50198E09093F00082FF22C093E09093E3
:1013D000E9009091F200992319F09AE39093E800C4
:1013E00090919101992341F09091910191509093A6
:1013F0009101911101C05D9A9091B401992341F03E
:101400009091B40191509093B401911101C0289A28
:1014100084FF18C08091E2008E7E81608093E2009C
:101420008091E1008F7E8093E100809192018E7E19
:101430008061809392019F918F910F900FBE0F90CA
:101440001F90189580FFF7CF8091E2008E7E80611B
:101450008093E2008091E1008E7E8093E100809194
:1014600092018E7E8160E5CF1F920F920FB60F9290
:101470001124CF92DF92EF92FF920F931F932F933D
:101480003F934F935F936F937F938F939F93AF930C
:10149000BF93EF93FF93CF93DF93CDB7DEB76C97F6
:1014A000DEBFCDBF1092E9008091E80083FF25C028
:1014B00068E0CE0145960E946D0382EF8093E800BC
:1014C0008D8987FF39C09091E80090FFFCCF982F5D
:1014D000907609F034C19E894F89588D2F89F88CF8
:1014E000911131C0803861F5809193018093F100B2
:1014F0001092F1008EEF8093E8006C960FB6F8948E
:10150000DEBF0FBECDBFDF91CF91FF91EF91BF91B5
:10151000AF919F918F917F916F915F914F913F918B
:101520002F911F910F91FF90EF90DF90CF900F9030
:101530000FBE0F901F9018959EEF9093E800C7CFB5
:101540001092F100D5CF913059F48111D3CF4130B1
:10155000510581F6809193018D7F80939301CACFCD
:10156000933049F48111C6CF4130510519F680916D
:1015700093018260F2CF953041F48091E80080FFC2
:10158000FCCF20682093E300B5CF963009F0A9C0C6
:101590000B8D1C8D22E01092E90010928F011092A9
:1015A0008E01F2122EC010928D0110928C010E94B9
:1015B0003C031F8299E09983FA8291E09E8390EA2E
:1015C00098879AEF998720918E0130918F01275F3C
:1015D0003F4F3C832B838D831092E90010928F0143
:1015E00010928E0110938D0100938C0149E050E020
:1015F000BE016F5F7F4F80E00E9416030E943C0394
:1016000079CF10938D0100938C010E949E01DC0123
:1016100012960D911C910115110509F451C1D801C3
:10162000ED91FC910480F581E02DBE016B5E7F4F52
:10163000C8010995009709F03EC1F80100851185A0
:10164000EACFF3E0FF120EC08F89882309F440C06F
:10165000823061F440E862E187E191E00E94B70CDA
:10166000811148CF81E28093EB0047CF813029F48C
:1016700040E862E184E091E0F1CF833099F70E9485
:101680009E01DC011296ED90FC908E010F5F1F4FC2
:101690006801E114F10479F0D701ED91FC91068025
:1016A000F781E02DB801C7010995080F111DF70159
:1016B000E084F184EECFD8011C92F6010190002065
:1016C000E9F73197BF016C197D0940E0C601C6CF2B
:1016D0006EEE70E0FB01449150E080E80E9416033A
:1016E00009CF973009F4BECF983021F481E0809380
:1016F000F10000CF993009F0FDCE837009F0B2CF30
:10170000E4E4F1E081E031E096E32191222371F0FD
:101710008093E9003093EB00DF0111972C91209327
:10172000EC009093ED008F5F873079F78EE7809320
:10173000EA001092EA008F898093B501DBCE8B8D91
:101740009C8D1092E90010928F0110928E0190935F
:101750008D0180938C01898D811192C08E899D8924
:10176000913A49F4813209F07DCF47E050E06EE0D4
:1017700071E080E0B3CF913209F074CF833269F425
:101780008F89988DB0E0A0E080930A0190930B01BF
:10179000A0930C01B0930D01ADCE803269F480911D
:1017A000E80082FFFCCF67E08EE091E00E946D03CD
:1017B0008BEF8093E8009ECE823209F09BCE8F891A
:1017C00080931501EEEFFFE7859194918B3F9C4D3F
:1017D00051F1E0E0F8E080910E0190910F01A091AD
:1017E0001001B0911101803B9440A105B105F1F4C5
:1017F0008091150180FD1AC0EE3F8AE0F80789F557
:1018000087E797E7918380838091600080939001C0
:1018100088E19BE00FB6F894A895809360000FBE16
:101820009093600067CEEEEFFAE0D5CF8081918192
:101830008737974709F05ECEA89580916000886150
:10184000809360008091900180936000EE3F2AE0D9
:10185000F20789F08091FE0A9091FF0A91838083BC
:1018600049CE808191818737980751F29093FF0A82
:101870008093FE0AC5CF1092FF0A1092FE0A3ACE5C
:101880000E949E01DC0112960D911C91011511051B
:1018900009F4E8CED801ED91FC910190F081E02DA2
:1018A000BE016B5E7F4FC8010995811123CEF801FF
:1018B00000851185EBCF181619060CF41BCED2CE7D
:1018C000F1E0FF12BECE62EF70E004CF1F920F92E4
:1018D0000FB60F9211242F933F934F935F936F9303
:1018E0007F938F939F93AF93BF93EF93FF938091D9
:1018F000890190918A019C012150310930938A011C
:1019000020938901892B11F51092720078948091AF
:10191000C100807F84608093C10083E08093BF001A
:1019200088EE8093D1001092BF001092D20081E027
:10193000809300018091960190919701892B31F05D
:1019400080918701811102C00E946106FF91EF9191
:10195000BF91AF919F918F917F916F915F914F91C7
:101960003F912F910F900FBE0F901F901895EF92FF
:10197000FF920F931F93CF93DF93F82E192FE62E2C
:10198000042F81E0860F880F0E94E80283E00E9406
:10199000E802CF2DD12FEC0EFD2EF11CCE15DF0568
:1019A000B9F007FF13C0FE0184910E94E802182FCE
:1019B00080E00E94E802812321968111EFCFDF9120
:1019C000CF911F910F91FF90EF9008958881EDCFF7
:1019D00081E0F5CFE6EBF1E01382128288EE93E02E
:1019E000A0E0B0E084839583A683B7838EE491E082
:1019F000918380838FEF9FEF95878487E2E3F2E006
:101A00001282158210868EE0818781E0828783872B
:101A100082E791E091838083EAE2F2E0128215820C
:101A20008CE691E091838083ECE0F2E013821282F5
:101A300015821482178216821186108613861286EA
:101A400080E691E091838083A6E0B2E088E292E0B4
:101A500011969C938E931396FC93EE931297159682
:101A60001C921E9214970895CF93DF93CDB7DEB7E3
:101A7000C056D1090FB6F894DEBF0FBECDBF789423
:101A800084B5826084BD84B5816084BD85B5826083
:101A900085BD85B5816085BD80916E008160809334
:101AA0006E0010928100809181008260809381009D
:101AB00080918100816080938100809180008160AD
:101AC000809380008091910082608093910080914A
:101AD000910081608093910080919000816080935B
:101AE00090008091C10084608093C1008091C1000A
:101AF00082608093C1008091C10081608093C100A9
:101B00008091C30081608093C3008091C000826097
:101B10008093C0008091C20081608093C200809158
:101B20007A00846080937A0080917A00826080934A
:101B30007A0080917A00816080937A0080917A00A7
:101B4000806880937A001092B501109293011092F0
:101B500092018091D70081608093D70080EA8093C2
:101B6000D80089B5806189BD89B5826089BD89B594
:101B7000482F4170742E80FFFACF61E070E080E062
:101B800090E00E94B6028091D8008F7C80618093A3
:101B9000D8008091E000807F8093E0008091E10098
:101BA0008E7E8093E1008DE08093E200559A209A2A
:101BB0008FEF9FEF9093C3018093C20185E0E6E22F
:101BC000F1E0DE01119601900D928A95E1F71092F5
:101BD0000F0210920E021092110210921002109237
:101BE0001302109212021092150210921402109217
:101BF0001D0210921C0285E080931802809116024B
:101C000090911702892BC9F080E0909118028917F2
:101C100008F058C0282F30E0E0911602F09117022A
:101C2000E20FF31FA1E0B0E0AC0FBD1F2A0F3B1F76
:101C3000D9019C9190838F5FE8CF85E090E00E946E
:101C400029119093170280931602892BE9F680EDF3
:101C500097E090931B0280931A0268EE73E080E095
:101C600090E00E94B602F1EEEF2EFF24FA94BCE35E
:101C7000EB16F10458F588E39FEF0E947E0188EC93
:101C800090E00E945E018091100290911102892BD8
:101C900021F50091180210E0C801880F991F0E94D9
:101CA00029119093110280931002009709F4B8C093
:101CB000FC0190E080E0801791077CF41192119272
:101CC0000196F9CF8BE080931902C1CF88EC90E0A8
:101CD0000E947E0188E39FEFD4CF80910E02909105
:101CE0000F02892BE9F40091180210E0C801880F57
:101CF000991F0E94291190930F0280930E02009762
:101D000009F48EC020911A0230911B02FC0190E070
:101D100080E08017910724F4219331930196F9CF45
:101D200010E000E08CE092E00E941705BE016F5BBE
:101D30007F4F8CE092E00E9480048CE092E00E9451
:101D40002B0580901802912CFE0131965F019E01B7
:101D50002F5D3F4FBE016F5B7F4F2901DF0150E0D8
:101D600040E04815590524F5FB0181919191BF018F
:101D70000115110599F0F201C080D180C816D9066D
:101D800068F0CD90DC9011978C159D0568F04F5F41
:101D90005F4F1296F2E04F0E511CE3CFF201918398
:101DA00080830115110569F711969C938E93EFCFEF
:101DB0000F5F1F4F0A30110509F0B4CFA0910E023A
:101DC000B0910F02009110021091110290E080E09A
:101DD000409118024817190619F114F1F5014191C3
:101DE00051915F01F801619171918F01641775073D
:101DF00030F4BF0162507109FB0151834083F90146
:101E0000419151919F016D917D914617570730F493
:101E1000BD0162507109FB01518340830196D8CF07
:101E2000FFEFEF1AFF0A49E5E416F10409F01FCFAE
:101E300090E080E00E947E0190E080E00E945E01E0
:101E40001092720084E791E090939701809396013D
:101E500010929501109294010E94610660E0862E16
:101E600060E0962E8AE292E00E943908882319F0F9
:101E700051E05093980182E392E00E941608882373
:101E800051F01092980190E080E00E947E0190E075
:101E900080E00E945E0180919801882309F4EBC0E4
:101EA0000091080210910902780182E1E80EF11C0C
:101EB000D80112968D919C911397892B09F453C0E8
:101EC00014968D919C91892B09F44DC0C8010E94F4
:101ED0001705B701C8010E948004C8010E942B05A4
:101EE0005701D12CC12CF80184858C151D04D9F122
:101EF000D4F10280F381E02D9601220F331FE20F0F
:101F0000F31F80819181D80114964D915C91240F2B
:101F1000351FD901ED91FC91E81BF90BD1F0D501EA
:101F20002D913C9150E040E0281B390B41095109AB
:101F3000A8EEB3E00E941E119F0150E040E00E9415
:101F4000DB10293EB3E03B0714F028EE33E037FF07
:101F500002C030E020E0F501219331935F01FFEFF3
:101F6000CF1ADF0AC0CFD8011C96BC90D12CC12C4F
:101F700050E040E0212C312C2101612CA12CBA141D
:101F8000E1F0D701ED91FD917D01E93CF1059CF473
:101F9000E333F10554F09601DF010E940011260E93
:101FA000371E481E591E4E0F5F1FA394B8E1CB1A6F
:101FB000BCEFDB0AE4CF672CEECF611063C0EB2DE2
:101FC000E150FF0B9F0144EF51E0E49FC001E59F0A
:101FD000900DF49F900D1124D80150964D915C9175
:101FE000481759070CF45CC0E8EEF3E02E9FC001DF
:101FF0002F9F900D3E9F900D1124805D9740209162
:102000000A0230910B02FC01E21BF30B9F01F6E088
:10201000F29F8001F39F100D11249C0197FF02C0D5
:102020002D5F3F4F3595279535952795020F131F47
:1020300090930B0280930A0290E080E008334FEF08
:10204000140744F0C8011016110614F490E080E063
:1020500088539F4F0E947E0188EC90E0801B910B7B
:10206000893C910514F088EC90E097FF02C090E065
:1020700080E00E945E018114910409F4F3CE0E9475
:102080000000F0CE9A0150E040E0C201B1010E9490
:10209000B910C901D80151963C932E935097ADCFFA
:1020A00090E080E0AACF86E691E090930D028093C5
:1020B0000C028091160290911702009711F00E9475
:1020C000C5118091100290911102009711F00E94A9
:1020D000C5118091140290911502009711F00E9491
:1020E000C51180910E0290910F02009711F00E948D
:1020F000C5118091120290911302009711F00E9475
:10210000C51190E080E00E947E0190E080E00C9498
:102110005E01DB018F939F930E941E11BF91AF91CF
:10212000A29F800D911DA39F900DB29F900D112431
:102130000895991B79E004C0991F961708F0961B23
:10214000881F7A95C9F780950895AA1BBB1B51E19A
:1021500007C0AA1FBB1FA617B70710F0A61BB70B17
:10216000881F991F5A95A9F780959095BC01CD01BC
:102170000895A1E21A2EAA1BBB1BFD010DC0AA1FC8
:10218000BB1FEE1FFF1FA217B307E407F50720F0E0
:10219000A21BB30BE40BF50B661F771F881F991F5B
:1021A0001A9469F760957095809590959B01AC01A4
:1021B000BD01CF010895052E97FB1EF400940E94E7
:1021C000F21057FD07D00E94B91007FC03D04EF45F
:1021D0000C94F21050954095309521953F4F4F4FFC
:1021E0005F4F089590958095709561957F4F8F4FC3
:1021F0009F4F0895EE0FFF1F0590F491E02D099475
:102200000E940811332312F48A1B9B0B0C941911A2
:10221000A29FB001B39FC001A39F700D811D112427
:10222000911DB29F700D811D1124911D08950E9472
:102230000811B7FF0895821B930B08950E9408119F
:10224000A59F900DB49F900DA49F800D911D11240A
:1022500008950F931F93CF93DF938230910510F46D
:1022600082E090E0E0914002F091410230E020E015
:10227000B0E0A0E0309799F42115310509F44AC087
:10228000281B390B24303105D8F58A819B816115D3
:10229000710589F1FB0193838283FE0111C04081A6
:1022A00051810281138148175907E0F048175907F7
:1022B00099F4109761F012960C93129713961C9351
:1022C0003296CF01DF91CF911F910F910895009326
:1022D000400210934102F4CF2115310551F042170D
:1022E000530738F0A901DB019A01BD01DF01F801B4
:1022F000C1CFEF01F9CF9093410280934002CDCF3F
:10230000FE01E20FF31F819391932250310939832B
:102310002883D7CF20913E0230913F02232B41F4F6
:10232000209122013091230130933F0220933E02FD
:1023300020912001309121012115310541F42DB763
:102340003EB74091240150912501241B350BE091AB
:102350003E02F0913F02E217F307A0F42E1B3F0B61
:102360002817390778F0AC014E5F5F4F2417350707
:1023700048F04E0F5F1F50933F0240933E028193FF
:1023800091939FCFF0E0E0E09CCFCF93DF93009755
:10239000E9F0FC01329713821282A0914002B091C1
:1023A0004102ED0130E020E01097A1F4208131815D
:1023B000820F931F20913E0230913F022817390768
:1023C00009F061C0F0933F02E0933E02DF91CF91AC
:1023D0000895EA01CE17DF07E8F54A815B819E0187
:1023E00041155105B1F7E901FB83EA834991599100
:1023F000C40FD51FEC17FD0761F48081918102960F
:10240000840F951FE90199838883828193819B833F
:102410008A83F0E0E0E012968D919C9113970097EB
:10242000B9F52D913C911197CD010296820F931F22
:1024300020913E0230913F022817390739F6309734
:1024400051F51092410210924002B0933F02A093C6
:102450003E02BCCFD383C28340815181840F951F3C
:10246000C817D90761F44E5F5F4F88819981480F83
:10247000591F518340838A819B81938382832115D5
:10248000310509F0B0CFF0934102E09340029ECFB6
:10249000FD01DC01C0CF13821282D7CF81E090E032
:1024A000F8940C94531210E0CAEDD0E004C0FE0181
:1024B0000E94FA102196CB3DD107C9F7F894FFCFBF
:1024C000010F00F401D007040004FFFFFFFF00E14B
:1024D00000000000000040014001400140014001B7
:1024E000000042028000121415040C9C01B501CFBB
:1024F00001EA0107022602470269028E02B502DEE6
:10250000020A0300C1808100000000000000FF03F8
:102510007A03200415046604240442040000000029
:1025200080040000000037080000000039080000A7
:10253000000016084C3136206364656772656734A5
:02254000000099
:00000001FF
