:100000000C94DB000C9432060C940B060C94E40563
:100010000C94BD050C9403010C9403010C949605FB
:100020000C9403010C9459060C94EE060C945D0795
:100030000C9403010C9403010C9403010C94030130
:100040000C9403010C9403010C9403010C94030120
:100050000C9403010C9403010C9403010C94A4066A
:100060000C9403010C9403010C9403010C94030100
:100070000C9403010C9403010C9403010C940301F0
:100080000C9403010C9403010C9403010C940301E0
:100090000C9403010C9403010C9403010C940301D0
:1000A0000C9403010C9403010C940301080B00024F
:1000B0000202000009040000010202000005240001
:1000C0001001052401010104240206052406000193
:1000D0000705810310004009040100020A00000026
:1000E00007050202400000070583024000000403E8
:1000F000090412010002EF020140FB1F002300016E
:1001000001020301506F6C6F6C7520436F72706F4A
:10011000726174696F6E00506F6C6F6C7520412D49
:100120005374617220333255340000000000240003
:1001300027002A002D0030000000000025002800C4
:100140002B002E00310000000000230026002900B3
:100150002C002F000404040404030405020202021C
:100160000403020202020606060606060404020250
:100170000204040408020110408040102040804026
:1001800080080204018040201002011080102040ED
:1001900040200000000200090F0000030401000CD1
:1001A000000000000000000000000000000000004F
:1001B0000000C2091E0D11241FBECFEFDAE0DEBF22
:1001C000CDBF11E0A0E0B1E0E6EFFDE102C0059097
:1001D0000D92A235B107D9F722E0A2E5B1E001C046
:1001E0001D92A930B207E1F710E0CAEDD0E004C0DB
:1001F0002197FE010E94950DC93DD107C9F70E94C4
:100200000C0A0C94EE0E0C940000FC0180917C0111
:10021000882311F13FB7F89482E08093E9002091A0
:10022000F200822F90E01816190614F481E090E095
:10023000882339F0289844E640937B014091F100EF
:100240004083222339F02091F200211103C02BE6D4
:100250002093E8003FBF08958FEF9FEF08952FB7D9
:10026000F89483E08093E9009091E800892F8072F0
:1002700095FF04C09091F20080E4891B2FBF089580
:1002800008952E98269A2D98259A2A98229A299888
:10029000219A80EA8093800081E18093810080E947
:1002A00091E09093870080938600109289001092CD
:1002B000880010928B0010928A000895CF93DF93EC
:1002C000EC0180917501811105C081E08093750179
:1002D0000E94410180E0D7FF04C0D195C195D109AA
:1002E00081E0D0938900C0938800811102C02998D1
:1002F00001C0299A219ADF91CF910895CF93DF937E
:10030000EC0180917501811105C081E08093750138
:100310000E94410180E0D7FF04C0D195C195D10969
:1003200081E0D0938B00C0938A00811102C02A988B
:1003300001C02A9A229ADF91CF91089580916D0190
:1003400081110DC082E08093690184E080936A018D
:1003500010926C0110926B0181E080936D0189E62F
:1003600091E0089581508F3008F047C0E82FF0E009
:10037000E454FE4F0C94950DD901DD01CB01D10160
:10038000D501FD01FD01FD01E001E601EA01EE01FB
:10039000F401FD01F801809180008F778093800047
:1003A0000895809180008F7DF9CF80918000877FB4
:1003B000F5CF84B58F7784BD089584B58F7DFBCF4D
:1003C000809190008F7780939000089580919000A5
:1003D0008F7DF9CF80919000877FF5CF8091C0000D
:1003E0008F778093C00008958091C0008F7DF9CFF2
:1003F0008091C200877F8093C2000895CF93DF93DE
:10040000282F30E0F901EE56FE4F8491F901ED58A6
:10041000FE4FD491F901EC5AFE4FC491CC23A1F0C8
:1004200081110E94B201EC2FF0E0EE0FFF1FEA5B9A
:10043000FE4FA591B491EC91ED2381E090E009F499
:1004400080E0DF91CF91089580E090E0FACF1F9394
:10045000CF93DF93282F30E0F901EE56FE4F8491C1
:10046000F901ED58FE4FD491F901EC5AFE4FC491B9
:10047000CC23A9F0162F81110E94B201EC2FF0E0DD
:10048000EE0FFF1FE85CFE4FA591B4918FB7F89473
:10049000EC91111108C0D095DE23DC938FBFDF9162
:1004A000CF911F910895DE2BF8CFCF93DF9390E08B
:1004B000FC01ED58FE4F24918C5A9E4FFC01849113
:1004C0008823C9F090E0880F991FFC01E65DFE4F7C
:1004D000A591B491FC01E85CFE4FC591D4916111E6
:1004E0000DC09FB7F8948C91209582238C938881BE
:1004F000282328839FBFDF91CF910895623051F464
:100500009FB7F8943C91822F809583238C93E88148
:100510002E2BEFCF8FB7F894EC912E2B2C938FBF0F
:10052000EACF3FB7F8948091650190916601A09160
:100530006701B091680126B5A89B05C02F3F19F04F
:100540000196A11DB11D3FBFBA2FA92F982F882753
:10055000BC01CD01620F711D811D911D42E0660F2E
:10056000771F881F991F4A95D1F708958F929F9200
:10057000AF92BF92CF92DF92EF92FF924B015C015C
:100580000E9491026B017C010E9491026C197D090D
:100590008E099F09683E734081059105A8F321E00B
:1005A000821A9108A108B10888EEC80E83E0D81E0F
:1005B000E11CF11C81149104A104B10429F7FF90FE
:1005C000EF90DF90CF90BF90AF909F908F90089565
:1005D0004091590150915A01209157013091580191
:1005E00042175307B4F49091E8009570E1F39091AD
:1005F000E80092FD19C08093F1008091590190911B
:100600005A0101968F739927892B19F48EEF8093E5
:10061000E8008091590190915A01019690935A01F6
:100620008093590181E0089580E00895DF92EF9270
:10063000FF920F931F93CF93DF93D82E8A01EB0184
:100640007B01E40EF51ECE15DF0559F0D7FE12C072
:10065000FE0184910E94E80221968111F4CF0FEFF0
:100660001FEFC801DF91CF911F910F91FF90EF9085
:10067000DF9008958881EECF0F931F93CF93DF9380
:100680001F92CDB7DEB782E0898342E450E06CEA86
:1006900070E080E80E9416030E949E01DC01129621
:1006A0000D911C910115110589F0D801ED91FC9176
:1006B0000280F381E02DBE016F5F7F4FC801099575
:1006C00097FD04C0F80100851185ECCF89810F905A
:1006D000DF91CF911F910F910895615030F02091DB
:1006E000F100FC0120830196F8CF289884E68093DE
:1006F0007B0108958F929F92AF92BF92CF92DF922B
:10070000EF92FF920F931F93CF93DF936C017B01C6
:100710008A0180910B01882309F45CC080917C01DF
:10072000882309F457C080915D0180FF05C0809146
:10073000E00082608093E000E801B12C8AEFA82EEF
:1007400093E0892E2AE3922E209711F4BB20D9F151
:100750000E942F0181110AC0AA94AA20D9F161E058
:1007600070E080E090E00E94B602EECF8C171D068C
:1007700011F00CF08C2F9FB7F8948092E900209133
:10078000E80025FD02C09FBFDFCF282F30E0C21B4D
:10079000D30BF701815020F041914093F100FACF43
:1007A000E20EF31EBB2021F09092E800B12CEBCFBB
:1007B0008091E80085FDE7CF9092E800BB24B394D8
:1007C000209709F3F3CF5D9884E680935C011016BF
:1007D00011063CF081E090E0F6019383828310E003
:1007E00000E0C801DF91CF911F910F91FF90EF9032
:1007F000DF90CF90BF90AF909F908F900895CF9350
:10080000DF931F92CDB7DEB76983DC01ED91FC91D8
:100810000280F381E02D41E050E0BE016F5F7F4F29
:1008200009950F90DF91CF91089583E08093E900BF
:100830008091F200882319F08AE38093E8000895FC
:100840000E942F0190E00895CF93DF931F92CDB7C0
:10085000DEB7FC018485958597FD08C02FEF3FEF3B
:10086000358724870F90DF91CF910895CE010196AF
:100870000E940501019719F4898190E0F3CF8FEF71
:100880009FEFF0CF0F931F93CF93DF931F92CDB7BE
:10089000DEB78C01FC018485958597FF0BC0CE01E6
:1008A00001960E940501019771F4898190E0F80199
:1008B00095878487F801848595850F90DF91CF9186
:1008C0001F910F9108958FEF9FEFF1CFFC01848569
:1008D000958597FD0BC09FB7F89482E08093E9005F
:1008E0008091F2009FBF90E0019608959FB7F89421
:1008F00082E08093E9008091F2009FBF90E008952C
:100900007F928F929F92AF92BF92CF92DF92EF929F
:10091000FF920F931F93CF93DF93FC0122853385C2
:10092000232B09F476C06B01EC0110E08C851817BD
:10093000E8F4E12EF12C8E859F85F701EE0FFF1F65
:10094000EC0DFD1D91838083EA85FB85EE0DFF1D77
:1009500061E080810E942702EA85FB85EE0DFF1D84
:1009600061E080810E9455021F5FE0CF83E290E04A
:100970000197F1F710E08C851817A0F4E12EF12C07
:10098000EA85FB85EE0DFF1D60E080810E94550227
:10099000EA85FB85EE0DFF1D60E080810E94270245
:1009A0001F5FE9CF0E9491024B015C010E949102FE
:1009B000AB01BC01481959096A097B098E859F85DD
:1009C000B0E0A0E0481759076A077B0710F50E94BE
:1009D00091027B01E818F908712C8C85781630F7A4
:1009E000072D10E0EA85FB85E00FF11F80810E9452
:1009F000FE01892B61F4000F111FF601E00FF11FBA
:100A000080819181E816F90610F4F182E0827394F6
:100A1000E4CFDF91CF911F910F91FF90EF90DF9086
:100A2000CF90BF90AF909F908F907F900895CF937D
:100A3000DF93EC018D858F3F59F061E00E945502F4
:100A400061E08D850E9427028BE193E00197F1F729
:100A5000DF91CF910895CF93DF93EC018D858F3F88
:100A600059F061E00E94550260E08D850E942702E6
:100A70008BE193E00197F1F7DF91CF910895CF9348
:100A8000DF93EC01888581110EC0898591E09887FC
:100A90009A8562E0911101C060E00E9455028FE0EA
:100AA00090E00197F1F789850E94FE013B8521E0E6
:100AB0003817190609F420E0822FDF91CF910895AD
:100AC0000E94E90ECF93DF93A2EEB0E09C911C92BE
:100AD000E9EEF0E020811082C0EFD0E0388118828A
:100AE00040E05D9941605599426055985D9A80E17A
:100AF0008A95F1F789B141FB0EF0559840FB0EF055
:100B00005D980EF45D9A41FB0EF4559A108238837D
:100B100020839C9390E025E0959587952A95E1F7B1
:100B2000809590958170DF91CF9108951F920F92DB
:100B30000FB60F9211242F933F934F935F936F93B0
:100B40007F938F939F93AF93BF93EF93FF93E09126
:100B50001401F09115010995FF91EF91BF91AF91AB
:100B60009F918F917F916F915F914F913F912F91C5
:100B70000F900FBE0F901F9018951F920F920FB6F7
:100B80000F9211242F933F934F935F936F937F9313
:100B90008F939F93AF93BF93EF93FF93E0911201D5
:100BA000F09113010995FF91EF91BF91AF919F9142
:100BB0008F917F916F915F914F913F912F910F9006
:100BC0000FBE0F901F9018951F920F920FB60F92A5
:100BD00011242F933F934F935F936F937F938F9342
:100BE0009F93AF93BF93EF93FF93E0911001F09128
:100BF00011010995FF91EF91BF91AF919F918F9155
:100C00007F916F915F914F913F912F910F900FBE08
:100C10000F901F9018951F920F920FB60F921124EC
:100C20002F933F934F935F936F937F938F939F93F4
:100C3000AF93BF93EF93FF93E0910E01F0910F01FB
:100C40000995FF91EF91BF91AF919F918F917F9106
:100C50006F915F914F913F912F910F900FBE0F9029
:100C60001F9018951F920F920FB60F9211242F9379
:100C70003F934F935F936F937F938F939F93AF9324
:100C8000BF93EF93FF93E0910C01F0910D01099553
:100C9000FF91EF91BF91AF919F918F917F916F9154
:100CA0005F914F913F912F910F900FBE0F901F902A
:100CB00018951F920F920FB60F9211242F933F9306
:100CC0004F936F937F938F939F938CB1282F30E036
:100CD0003595279535952795422F417083B190E042
:100CE00064E0959587956A95E1F782278170209158
:100CF0007A019091790160917701709178012827AC
:100D00009427291B330B260F371F3093780120932C
:100D100077012091790190917A01281729F0941791
:100D200019F091E0909376018093790140937A01D4
:100D30009F918F917F916F914F913F912F910F9044
:100D40000FBE0F901F9018951F920F920FB60F9223
:100D500011242F933F938F939F93AF93BF938091D1
:100D6000610190916201A0916301B09164013091A1
:100D7000600123E0230F2D3758F50196A11DB11D09
:100D8000209360018093610190936201A0936301BD
:100D9000B09364018091650190916601A091670113
:100DA000B09168010196A11DB11D809365019093DA
:100DB0006601A0936701B0936801BF91AF919F91C5
:100DC0008F913F912F910F900FBE0F901F9018950C
:100DD00026E8230F0296A11DB11DD2CF1F920F92BC
:100DE0000FB60F9211248F939F938091E100909101
:100DF000E100937F9093E10083FF0FC01092E90020
:100E000091E09093EB001092EC0092E39093ED0050
:100E100010927C0198E09093F00082FF22C093E052
:100E20009093E9009091F200992319F09AE390933E
:100E3000E80090915C01992341F090915C01915000
:100E400090935C01911101C05D9A90917B0199236F
:100E500041F090917B01915090937B01911101C0E1
:100E6000289A84FF18C08091E2008E7E8160809372
:100E7000E2008091E1008F7E8093E10080915D012E
:100E80008E7E806180935D019F918F910F900FBE48
:100E90000F901F90189580FFF7CF8091E2008E7E13
:100EA00080618093E2008091E1008E7E8093E1007A
:100EB00080915D018E7E8160E5CF1F920F920FB60B
:100EC0000F921124CF92DF92EF92FF920F931F9314
:100ED0002F933F934F935F936F937F938F939F9342
:100EE000AF93BF93EF93FF93CF93DF93CDB7DEB76D
:100EF0006C97DEBFCDBF1092E9008091E80083FFC0
:100F000025C068E0CE0145960E946D0382EF809374
:100F1000E8008D8987FF39C09091E80090FFFCCFF1
:100F2000982F907609F034C19E894F89588D2F896A
:100F3000F88C911131C0803861F580915E01809309
:100F4000F1001092F1008EEF8093E8006C960FB6DE
:100F5000F894DEBF0FBECDBFDF91CF91FF91EF912F
:100F6000BF91AF919F918F917F916F915F914F91C1
:100F70003F912F911F910F91FF90EF90DF90CF90B5
:100F80000F900FBE0F901F9018959EEF9093E80062
:100F9000C7CF1092F100D5CF913059F48111D3CF42
:100FA0004130510581F680915E018D7F80935E0115
:100FB000CACF933049F48111C6CF4130510519F69B
:100FC00080915E018260F2CF953041F48091E8001B
:100FD00080FFFCCF20682093E300B5CF963009F066
:100FE000A9C00B8D1C8D22E01092E90010925A01CD
:100FF00010925901F2122EC010925801109257010E
:101000000E943C031F8299E09983FA8291E09E83BB
:1010100090EA98879AEF99872091590130915A0167
:10102000275F3F4F3C832B838D831092E900109202
:101030005A0110925901109358010093570149E049
:1010400050E0BE016F5F7F4F80E00E9416030E9458
:101050003C0379CF10935801009357010E949E01E1
:10106000DC0112960D911C910115110509F451C175
:10107000D801ED91FC910480F581E02DBE016B5EFD
:101080007F4FC8010995009709F03EC1F80100851E
:101090001185EACFF3E0FF120EC08F89882309F48F
:1010A00040C0823061F440E862E187E191E00E9453
:1010B0008F09811148CF81E28093EB0047CF8130C7
:1010C00029F440E862E184E091E0F1CF833099F7C0
:1010D0000E949E01DC011296ED90FC908E010F5F44
:1010E0001F4F6801E114F10479F0D701ED91FC91F3
:1010F0000680F781E02DB801C7010995080F111D81
:10110000F701E084F184EECFD8011C92F601019042
:101110000020E9F73197BF016C197D0940E0C60155
:10112000C6CF6EEE70E0FB01449150E080E80E9473
:10113000160309CF973009F4BECF983021F481E02F
:101140008093F10000CF993009F0FDCE837009F053
:10115000B2CFE2E2F1E081E031E096E32191222397
:1011600071F08093E9003093EB00DF0111972C912F
:101170002093EC009093ED008F5F873079F78EE736
:101180008093EA001092EA008F8980937C01DBCE85
:101190008B8D9C8D1092E90010925A01109259018A
:1011A0009093580180935701898D811192C08E8947
:1011B0009D89913A49F4813209F07DCF47E050E0B2
:1011C00064E071E080E0B3CF913209F074CF8332F4
:1011D00069F48F89988DB0E0A0E08093000190932E
:1011E0000101A0930201B0930301ADCE803269F4F6
:1011F0008091E80082FFFCCF67E084E091E00E94EC
:101200006D038BEF8093E8009ECE823209F09BCE77
:101210008F8980930B01EEEFFFE7859194918B3FCF
:101220009C4D51F1E0E0F8E08091040190910501BE
:10123000A0910601B0910701803B9440A105B10542
:10124000F1F480910B0180FD1AC0EE3F8AE0F807AF
:1012500089F587E797E79183808380916000809389
:101260005B0188E19BE00FB6F894A895809360003D
:101270000FBE9093600067CEEEEFFAE0D5CF80818D
:1012800091818737974709F05ECEA89580916000DD
:1012900088618093600080915B0180936000EE3FE5
:1012A0002AE0F20789F08091FE0A9091FF0A91836B
:1012B000808349CE808191818737980751F290933E
:1012C000FF0A8093FE0AC5CF1092FF0A1092FE0A11
:1012D0003ACE0E949E01DC0112960D911C910115DF
:1012E000110509F4E8CED801ED91FC910190F0814F
:1012F000E02DBE016B5E7F4FC8010995811123CEA1
:10130000F80100851185EBCF181619060CF41BCED9
:10131000D2CEF1E0FF12BECE62EF70E004CFEF92CA
:10132000FF920F931F93CF93DF93F82E192FE62E82
:10133000042F81E0860F880F0E94E80283E00E945C
:10134000E802CF2DD12FEC0EFD2EF11CCE15DF05BE
:10135000B9F007FF13C0FE0184910E94E802182F24
:1013600080E00E94E802812321968111EFCFDF9176
:10137000CF911F910F91FF90EF9008958881EDCF4D
:1013800081E0F5CFEDE7F1E01382128288EE93E081
:10139000A0E0B0E084839583A683B7838CE291E0DC
:1013A000918380838FEF9FEF95878487E9EFF1E04A
:1013B0001282158210868EE0818781E08287838782
:1013C00080E591E091838083E1EFF1E01282158264
:1013D0008AE491E091838083E3EDF1E0138212824D
:1013E0001582148217821682118610861386128641
:1013F0008EE391E091838083ADECB1E08FEE91E0DC
:1014000011969C938E931396FC93EE9312971596D8
:101410001C921E9214970895CF93DF93CDB7DEB739
:10142000C056D1090FB6F894DEBF0FBECDBF789479
:1014300084B5826084BD84B5816084BD85B58260D9
:1014400085BD85B5816085BD80916E00816080938A
:101450006E001092810080918100826080938100F3
:101460008091810081608093810080918000816003
:1014700080938000809191008260809391008091A0
:1014800091008160809391008091900081608093B1
:1014900090008091C10084608093C1008091C10060
:1014A00082608093C1008091C10081608093C100FF
:1014B0008091C30081608093C3008091C0008260EE
:1014C0008093C0008091C20081608093C2008091AF
:1014D0007A00846080937A0080917A0082608093A1
:1014E0007A0080917A00816080937A0080917A00FE
:1014F000806880937A0010927C0110925E011092B5
:101500005D018091D70081608093D70080EA80934D
:10151000D80089B5806189BD89B5826089BD89B5EA
:10152000282F2170722E80FFFACF61E070E080E0FA
:1015300090E00E94B6028091D8008F7C80618093F9
:10154000D8008091E000807F8093E0008091E100EE
:101550008E7E8093E1008DE08093E200559A209A80
:101560008FEF9FEF90938A018093890185E0ECE1F2
:10157000F1E0DE01119601900D928A95E1F710924B
:10158000D6011092D5011092D8011092D701109275
:10159000DA011092D9011092DC011092DB01109255
:1015A000E4011092E30185E08093DF018091DD0189
:1015B0009091DE01892BC9F080E09091DF018917BD
:1015C00008F058C0282F30E0E091DD01F091DE01F5
:1015D000E20FF31F41E050E04C0F5D1F240F351F59
:1015E000D9019C9190838F5FE8CF85E090E00E94C5
:1015F000C40D9093DE018093DD01892BE9F680ED27
:1016000097E09093E2018093E10168EE73E080E05F
:1016100090E00E94B602F1EEEF2EFF24FA94BCE3B4
:10162000EB16F10458F588E39FEF0E947E0188ECE9
:1016300090E00E945E018091D7019091D801892BA2
:1016400021F50091DF0110E0C801880F991F0E9469
:10165000C40D9093D8018093D701009709F4B8C0C6
:10166000FC0190E080E0801791077CF411921192C8
:101670000196F9CF8BE08093E001C1CF88EC90E038
:101680000E947E0188E39FEFD4CF8091D501909195
:10169000D601892BE9F40091DF0110E0C801880F21
:1016A000991F0E94C40D9093D6018093D501009795
:1016B00009F48EC02091E1013091E201FC0190E03B
:1016C00080E08017910724F4219331930196F9CF9C
:1016D00010E000E083ED91E00E941705BE016F5B12
:1016E0007F4F83ED91E00E94800483ED91E00E94A2
:1016F0002B058090DF01912CFE0131965F019E0148
:101700002F5D3F4FBE016F5B7F4F2901DF0150E02E
:1017100040E04815590524F5FB0181919191BF01E5
:101720000115110599F0F201C080D180C816D906C3
:1017300068F0CD90DC9011978C159D0568F04F5F97
:101740005F4F1296F2E04F0E511CE3CFF2019183EE
:1017500080830115110569F711969C938E93EFCF45
:101760000F5F1F4F0A30110509F0B4CFA091D501CA
:10177000B091D6010091D7011091D80190E080E09E
:101780004091DF014817190619F114F1F501419153
:1017900051915F01F801619171918F016417750793
:1017A00030F4BF0162507109FB0151834083F9019C
:1017B000419151919F016D917D914617570730F4EA
:1017C000BD0162507109FB01518340830196D8CF5E
:1017D000FFEFEF1AFF0A29E5E216F10409F01FCF27
:1017E00090E080E00E947E0190E080E00E945E0137
:1017F00060E0862E60E0962E81EF91E00E94620507
:10180000882319F041E040935F0189EF91E00E9445
:101810003F05882351F010925F0190E080E00E9424
:101820007E0190E080E00E945E0180915F0188234C
:1018300009F4ECC00091CF011091D001780152E180
:10184000E50EF11CD80112968D919C911397892B6E
:1018500009F453C014968D919C91892B09F44DC0C5
:10186000C8010E941705B701C8010E948004C80181
:101870000E942B055701D12CC12CF80184858C15B1
:101880001D04D9F1D4F10280F381E02D9601220FDD
:10189000331FE20FF31F80819181D80114964D917F
:1018A0005C91240F351FD901ED91FC91E81BF90BD8
:1018B000D1F0D5012D913C9150E040E0281B390B2F
:1018C00041095109A8EEB3E00E94B90D9F0150E013
:1018D00040E00E94760D293EB3E03B0714F028EE6D
:1018E00033E037FF02C030E020E0F501219331936F
:1018F0005F01FFEFCF1ADF0AC0CFD8011C96BC9062
:10190000D12CC12C50E040E0212C312C2101612C44
:10191000A12CBA14E1F0D701ED91FD917D01E93CD4
:10192000F1059CF4E333F10554F09601DF010E94C8
:101930009B0D260E371E481E591E4E0F5F1FA39487
:10194000B8E1CB1ABCEFDB0AE4CF672CEECF611015
:1019500064C0EB2DE150FF0B9F0144EF51E0E49F89
:10196000C001E59F900DF49F900D1124D801509671
:101970004D915C91481759070CF45DC0E8EEF3E017
:101980002E9FC0012F9F900D3E9F900D1124805DD2
:1019900097402091D1013091D201FC01E21BF30B61
:1019A0009F01F6E0F29F8001F39F100D11249C012E
:1019B00097FF02C02D5F3F4F3595279535952795A9
:1019C000020F131F9093D2018093D10190E080E029
:1019D00000372EEF120744F0C8011016110614F458
:1019E00090E080E080579E4F0E947E0180E991E068
:1019F000801B910B813941E0940714F080E991E05C
:101A000097FF02C090E080E00E945E018114910483
:101A100009F4F2CE0E940000EFCE9A0150E040E0BF
:101A2000C201B1010E94540DC901D80151963C93E5
:101A30002E935097ACCF90E080E0A9CF84E491E062
:101A40009093D4018093D3018091DD019091DE01C8
:101A5000009711F00E94600E8091D7019091D801FB
:101A6000009711F00E94600E8091DB019091DC01E3
:101A7000009711F00E94600E8091D5019091D601DF
:101A8000009711F00E94600E8091D9019091DA01C7
:101A9000009711F00E94600E90E080E00E947E01AD
:101AA00090E080E00C945E01A1E21A2EAA1BBB1B01
:101AB000FD010DC0AA1FBB1FEE1FFF1FA217B3071A
:101AC000E407F50720F0A21BB30BE40BF50B661F30
:101AD000771F881F991F1A9469F7609570958095F4
:101AE00090959B01AC01BD01CF010895052E97FB98
:101AF0001EF400940E948D0D57FD07D00E94540DD6
:101B000007FC03D04EF40C948D0D50954095309504
:101B100021953F4F4F4F5F4F089590958095709559
:101B200061957F4F8F4F9F4F0895EE0FFF1F0590D8
:101B3000F491E02D09940E94A30D332312F48A1B23
:101B40009B0B0C94B40DA29FB001B39FC001A39F47
:101B5000700D811D1124911DB29F700D811D1124E6
:101B6000911D08950E94A30DB7FF0895821B930B4A
:101B700008950E94A30DA59F900DB49F900DA49F62
:101B8000800D911D112408950F931F93CF93DF9320
:101B90008230910510F482E090E0E0910702F0912C
:101BA000080230E020E0B0E0A0E0309799F4211581
:101BB000310509F44AC0281B390B24303105D8F50A
:101BC0008A819B816115710589F1FB019383828371
:101BD000FE0111C0408151810281138148175907CC
:101BE000E0F04817590799F4109761F012960C939A
:101BF000129713961C933296CF01DF91CF911F91CC
:101C00000F9108950093070210930802F4CF211555
:101C1000310551F04217530738F0A901DB019A0151
:101C2000BD01DF01F801C1CFEF01F9CF90930802A8
:101C300080930702CDCFFE01E20FF31F81939193B2
:101C40002250310939832883D7CF20910502309162
:101C50000602232B41F42091180130911901309391
:101C600006022093050220911601309117012115DB
:101C7000310541F42DB73EB740911A0150911B0137
:101C8000241B350BE0910502F0910602E217F307E1
:101C9000A0F42E1B3F0B2817390778F0AC014E5FDC
:101CA0005F4F2417350748F04E0F5F1F5093060211
:101CB00040930502819391939FCFF0E0E0E09CCFA9
:101CC000CF93DF930097E9F0FC01329713821282E1
:101CD000A0910702B0910802ED0130E020E01097DA
:101CE000A1F420813181820F931F20910502309150
:101CF00006022817390709F061C0F0930602E09345
:101D00000502DF91CF910895EA01CE17DF07E8F5CC
:101D10004A815B819E0141155105B1F7E901FB83C1
:101D2000EA8349915991C40FD51FEC17FD0761F45F
:101D3000808191810296840F951FE90199838883A0
:101D4000828193819B838A83F0E0E0E012968D91FB
:101D50009C9113970097B9F52D913C911197CD0166
:101D60000296820F931F20910502309106022817D8
:101D7000390739F6309751F5109208021092070290
:101D8000B0930602A0930502BCCFD383C2834081E7
:101D90005181840F951FC817D90761F44E5F5F4FBB
:101DA00088819981480F591F518340838A819B8183
:101DB000938382832115310509F0B0CFF093080297
:101DC000E09307029ECFFD01DC01C0CF1382128297
:101DD000D7CF81E090E0F8940C94EE0E10E0CAEDBD
:101DE000D0E004C0FE010E94950D2196CB3DD107A5
:061DF000C9F7F894FFCFD3
:101DF600FFFFFFFF00E1000000000000400140017E
:101E0600400140014001000009028000121415043F
:101E16000C00C1808100000000000000FF037A036F
:101E26002004150466042404420400000000800413
:101E360000000000600500000000620500000000D0
:021E46003F0556
:00000001FF
