:100000000C94DB000C942C090C9405090C94DE086C
:100010000C94B7080C9403010C9403010C94900801
:100020000C9403010C9453090C94E8090C94570A9E
:100030000C9403010C9403010C9403010C94030130
:100040000C9403010C9403010C9403010C94030120
:100050000C9403010C9403010C9403010C949E096D
:100060000C9403010C94AF0C0C94890C0C940301B8
:100070000C9403010C9403010C9403010C940301F0
:100080000C9403010C9403010C9403010C940301E0
:100090000C9403010C9403010C9403010C940301D0
:1000A0000C9403010C9403010C940301080B00024F
:1000B0000202000009040000010202000005240001
:1000C0001001052401010104240206052406000193
:1000D0000705810310004009040100020A00000026
:1000E00007050202400000070583024000000403E8
:1000F000090412010002EF020140FB1F002300016E
:1001000001020301506F6C6F6C7520436F72706F4A
:10011000726174696F6E00506F6C6F6C7520412D49
:100120005374617220333255340000000000240003
:1001300027002A002D0030000000000025002800C4
:100140002B002E00310000000000230026002900B3
:100150002C002F000404040404030405020202021C
:100160000403020202020606060606060404020250
:100170000204040408020110408040102040804026
:1001800080080204018040201002011080102040ED
:1001900040200000000200090F0000030401000CD1
:1001A000000000000000000000000000000000004F
:1001B0000000140D6D1111241FBECFEFDAE0DEBF79
:1001C000CDBF12E0A0E0B1E0E6EEF6E202C005909D
:1001D0000D92A230B107D9F723E0A2E0B2E001C04E
:1001E0001D92A636B207E1F710E0CAEDD0E004C0D8
:1001F0002197FE010E940812C93DD107C9F70E944C
:10020000990D0C9466130C940000FC0180912D0252
:10021000882311F13FB7F89482E08093E9002091A0
:10022000F200822F90E01816190614F481E090E095
:10023000882339F0289844E640932C024091F1003D
:100240004083222339F02091F200211103C02BE6D4
:100250002093E8003FBF08958FEF9FEF08952FB7D9
:10026000F89483E08093E9009091E800892F8072F0
:1002700095FF04C09091F20080E4891B2FBF089580
:1002800008952E98269A2D98259A2A98229A299888
:10029000219A80EA8093800081E18093810080E947
:1002A00091E09093870080938600109289001092CD
:1002B000880010928B0010928A000895CF93DF93EC
:1002C000EC0180912602811105C081E08093260215
:1002D0000E94410180E0D7FF04C0D195C195D109AA
:1002E00081E0C13991E0D90714F0C0E9D1E0D093A1
:1002F0008900C0938800882329F0299A219ADF91E8
:10030000CF9108952998FACFCF93DF93EC01809194
:100310002602811105C081E0809326020E944101DE
:1003200080E0D7FF04C0D195C195D10981E0C139E2
:1003300091E0D90714F0C0E9D1E0D0938B00C093CD
:100340008A00882329F02A9A229ADF91CF91089572
:100350002A98FACFCF93DF93EB010E948401CE015C
:10036000DF91CF910C945E0180911E0281110DC02E
:1003700082E080931A0284E080931B0210921D0297
:1003800010921C0281E080931E028AE192E008959F
:1003900081508F3008F047C0E82FF0E0EE52FE4F5A
:1003A0000C940812EF01F301E101E701EB011302E4
:1003B00013021302F601FC01000204020A021302F6
:1003C0000E02809180008F77809380000895809145
:1003D00080008F7DF9CF80918000877FF5CF84B535
:1003E0008F7784BD089584B58F7DFBCF8091900079
:1003F0008F77809390000895809190008F7DF9CF42
:1004000080919000877FF5CF8091C0008F77809397
:10041000C00008958091C0008F7DF9CF8091C20007
:10042000877F8093C2000895CF93DF93282F30E019
:10043000F901EE56FE4F8491F901ED58FE4FD4912B
:10044000F901EC5AFE4FC491CC23A1F081110E9416
:10045000C801EC2FF0E0EE0FFF1FEA5BFE4FA59105
:10046000B491EC91ED2381E090E009F480E0DF911C
:10047000CF91089580E090E0FACF1F93CF93DF9360
:10048000282F30E0F901EE56FE4F8491F901ED5826
:10049000FE4FD491F901EC5AFE4FC491CC23A9F040
:1004A000162F81110E94C801EC2FF0E0EE0FFF1F04
:1004B000E85CFE4FA591B4918FB7F894EC911111BF
:1004C00008C0D095DE23DC938FBFDF91CF911F91C1
:1004D0000895DE2BF8CFCF93DF9390E0FC01ED5829
:1004E000FE4F24918C5A9E4FFC0184918823C9F0C1
:1004F00090E0880F991FFC01E65DFE4FA591B49135
:10050000FC01E85CFE4FC591D49161110DC09FB70D
:10051000F8948C91209582238C93888128232883BA
:100520009FBFDF91CF910895623051F49FB7F89447
:100530003C91822F809583238C93E8812E2BEFCFE3
:100540008FB7F894EC912E2B2C938FBFEACF3FB747
:10055000F8948091160290911702A0911802B09120
:10056000190226B5A89B05C02F3F19F00196A11DC1
:10057000B11D3FBFBA2FA92F982F8827BC01CD01ED
:10058000620F711D811D911D42E0660F771F881F4C
:10059000991F4A95D1F708958F929F92AF92BF927B
:1005A000CF92DF92EF92FF924B015C010E94A70273
:1005B0006B017C010E94A7026C197D098E099F09BD
:1005C000683E734081059105A8F321E0821A9108E5
:1005D000A108B10888EEC80E83E0D81EE11CF11C0A
:1005E00081149104A104B10429F7FF90EF90DF90EA
:1005F000CF90BF90AF909F908F9008954091090247
:1006000050910A02209107023091080242175307C5
:10061000B4F49091E8009570E1F39091E80092FDB8
:1006200019C08093F1008091090290910A0201960D
:100630008F739927892B19F48EEF8093E8008091AE
:10064000090290910A02019690930A02809309028E
:1006500081E0089580E00895DF92EF92FF920F937A
:100660001F93CF93DF93D82E8A01EB017B01E40E19
:10067000F51ECE15DF0559F0D7FE12C0FE0184919C
:100680000E94FE0221968111F4CF0FEF1FEFC801E7
:10069000DF91CF911F910F91FF90EF90DF90089520
:1006A0008881EECF0F931F93CF93DF931F92CDB727
:1006B000DEB782E0898342E450E06CEA70E080E8D3
:1006C0000E942C030E94B401DC0112960D911C9132
:1006D0000115110589F0D801ED91FC910280F3819B
:1006E000E02DBE016F5F7F4FC801099597FD04C0E3
:1006F000F80100851185ECCF89810F90DF91CF91B2
:100700001F910F910895615030F02091F100FC018C
:1007100020830196F8CF289884E680932C020895D0
:10072000AF92BF92CF92DF92EF92FF920F931F93FF
:10073000CF93DF936C017B018B01040F151FEB013D
:100740005E01AE18BF08C017D10759F06991D601F4
:10075000ED91FC910190F081E02DC6010995892B66
:1007600079F7C501DF91CF911F910F91FF90EF9025
:10077000DF90CF90BF90AF900895FC01538D448DD2
:10078000252F30E0842F90E0821B930B541710F03C
:10079000CF96089501970895FC01918D828D981749
:1007A00061F0A28DAE0FBF2FB11D5D968C91928D21
:1007B0009F5F9F73928F90E008958FEF9FEF089552
:1007C000FC01918D828D981731F0828DE80FF11D1B
:1007D000858D90E008958FEF9FEF0895FC01918D36
:1007E000228D892F90E0805C9F4F821B91098F732F
:1007F000992708958EE292E00E94EE0321E0892B72
:1008000009F420E0822F089580E090E0892B29F000
:100810000E94FA0381110C9400000895FC01A48D3C
:10082000A80FB92FB11DA35ABF4F2C91848D90E012
:1008300001968F739927848FA689B7892C93A089F5
:10084000B1898C9182748C93938D848D981306C09A
:100850000288F389E02D80818F7D80830895EF9257
:10086000FF920F931F93CF93DF93EC0181E0888F6A
:100870009B8D8C8D981319C0E889F989808185FF3B
:1008800014C09FB7F894EE89FF896083E889F989DD
:100890008081827480839FBF81E090E0DF91CF915F
:1008A0001F910F91FF90EF900895F62E0B8D10E0A1
:1008B0000F5F1F4F0F731127E02E8C8D8E110CC010
:1008C0000FB607FCFACFE889F989808185FFF5CF5B
:1008D000CE010E940E04F1CFEB8DEC0FFD2FF11D28
:1008E000E35AFF4FF0829FB7F8940B8FEA89FB8998
:1008F00080818062CFCFCF93DF93EC01888D8823F6
:10090000B9F0AA89BB89E889F9898C9185FD03C072
:10091000808186FD0DC00FB607FCF7CF8C9185FF57
:10092000F2CF808185FFEDCFCE010E940E04E9CF8A
:10093000DF91CF9108958F929F92AF92BF92CF9205
:10094000DF92EF92FF920F931F93CF93DF936C018F
:100950007B018A0180910B01882309F45CC080919E
:100960002D02882309F457C080910D0280FF05C035
:100970008091E00082608093E000E801B12C8AEF72
:10098000A82E93E0892E2AE3922E209711F4BB2003
:10099000D9F10E942F0181110AC0AA94AA20D9F18D
:1009A00061E070E080E090E00E94CC02EECF8C1716
:1009B0001D0611F00CF08C2F9FB7F8948092E9007F
:1009C0002091E80025FD02C09FBFDFCF282F30E037
:1009D000C21BD30BF701815020F041914093F100ED
:1009E000FACFE20EF31EBB2021F09092E800B12C6A
:1009F000EBCF8091E80085FDE7CF9092E800BB2423
:100A0000B394209709F3F3CF5D9884E680930C02AA
:100A1000101611063CF081E090E0F601938382838A
:100A200010E000E0C801DF91CF911F910F91FF907E
:100A3000EF90DF90CF90BF90AF909F908F900895F0
:100A4000CF93DF931F92CDB7DEB76983DC01ED91C1
:100A5000FC910280F381E02D41E050E0BE016F5F28
:100A60007F4F09950F90DF91CF91089583E0809398
:100A7000E9008091F200882319F08AE38093E8006E
:100A800008950E942F0190E00895CF93DF931F9265
:100A9000CDB7DEB7FC018485958597FD08C02FEFA3
:100AA0003FEF358724870F90DF91CF910895CE01D6
:100AB00001960E940501019719F4898190E0F3CF16
:100AC0008FEF9FEFF0CF0F931F93CF93DF931F9282
:100AD000CDB7DEB78C01FC018485958597FF0BC0EF
:100AE000CE0101960E940501019771F4898190E081
:100AF000F80195878487F801848595850F90DF91AB
:100B0000CF911F910F9108958FEF9FEFF1CFFC01CF
:100B10008485958597FD0BC09FB7F89482E08093FC
:100B2000E9008091F2009FBF90E0019608959FB781
:100B3000F89482E08093E9008091F2009FBF90E0FA
:100B40000895FC0161157105D9F0683181E07807DD
:100B5000A0F06A3D7240A0F482E090E0248D358DD3
:100B60002817390781F420A12F5F20A3273010F028
:100B7000978F868F868D978D089581E090E0EECFD8
:100B800090E080E0EBCF958F848F81E080A3F2CF5F
:100B9000FC017296DC015C9620E060E070E0CB0125
:100BA000419151914F31510528F0640F751F811DFE
:100BB000911D2F5FEA17FB0799F7222339F030E0E8
:100BC00050E040E00E94C711C901089590E080E024
:100BD0000895CF93DF9380911D0390911E03FC0134
:100BE0006289738924893589620F731F76956795A9
:100BF0000E94A105019759F480912103909122034D
:100C000097FD019695958795DF91CF9108958091F5
:100C10001D0390911E03FC01608D718D228D338D1B
:100C2000620F731F769567950E94A105019721F3C6
:100C3000C0911D03D0911E03CE010E94C805BC01C6
:100C4000CE010E94A1050197B9F2809121039091F4
:100C50002203DACF7F928F929F92AF92BF92CF9270
:100C6000DF92EF92FF920F931F93CF93DF93FC01DC
:100C700022853385232B09F476C06B01EC0110E04B
:100C80008C851817E8F4E12EF12C8E859F85F701ED
:100C9000EE0FFF1FEC0DFD1D91838083EA85FB8520
:100CA000EE0DFF1D61E080810E943D02EA85FB851B
:100CB000EE0DFF1D61E080810E946B021F5FE0CF9F
:100CC00083E290E00197F1F710E08C851817A0F40B
:100CD000E12EF12CEA85FB85EE0DFF1D60E08081A1
:100CE0000E946B02EA85FB85EE0DFF1D60E08081AE
:100CF0000E943D021F5FE9CF0E94A7024B015C01E9
:100D00000E94A702AB01BC01481959096A097B0975
:100D10008E859F85B0E0A0E0481759076A077B07DA
:100D200010F50E94A7027B01E818F908712C8C8548
:100D3000781630F7072D10E0EA85FB85E00FF11FEC
:100D400080810E941402892B61F4000F111FF601AB
:100D5000E00FF11F80819181E816F90610F4F1820D
:100D6000E0827394E4CFDF91CF911F910F91FF90B8
:100D7000EF90DF90CF90BF90AF909F908F907F903B
:100D80000895CF93DF93EC018D858F3F59F061E09B
:100D90000E946B0261E08D850E943D028BE193E031
:100DA0000197F1F7DF91CF910895CF93DF93EC0195
:100DB0008D858F3F59F061E00E946B0260E08D8568
:100DC0000E943D028BE193E00197F1F7DF91CF9113
:100DD0000895CF93DF93EC01888581110EC089853A
:100DE00091E098879A8562E0911101C060E00E94CD
:100DF0006B028FE090E00197F1F789850E94140261
:100E00003B8521E03817190609F420E0822FDF9195
:100E1000CF9108954F925F926F927F928F929F929F
:100E2000AF92BF92CF92DF92EF92FF920F931F93F8
:100E3000CF93DF9300D000D0CDB7DEB79A838983FC
:100E40008C010E5E1F4FDC0112968D919C911397C1
:100E5000892B09F458C014968D919C911597892B74
:100E600009F451C0CD010E94C106B80189819A815F
:100E70000E942A0689819A810E94D5066801F12C78
:100E8000E12CE981FA8184858E151F04E1F1DCF102
:100E90000280F381E02D9701220F331FE20FF31F31
:100EA00080819181A981BA8114964D915C91240F22
:100EB000351FD901ED91FC91E81BF90BD1F0D6015A
:100EC0002D913C9150E040E0281B390B410951091C
:100ED000A8EEB3E00E940E129F0150E040E00E9495
:100EE000E911293EB3E03B0714F028EE33E037FF69
:100EF00002C030E020E0F601219331936F01FFEF53
:100F0000EF1AFF0ABECFF801412C512C3201E12C1F
:100F1000F12C8701812C912C5401C190D1908FE14B
:100F2000C816D104A8F0C601B0E0A0E089839A8376
:100F3000AB83BC839601AD01C301B2010E94A31132
:100F4000E60EF71E081F191F820E931EA41EB51E63
:100F500098EE490E93E0591E611C711CA8E84A16D0
:100F6000A3E15A0661047104C1F680ED97E0811493
:100F70009104A104B10439F0C801B701A50194019D
:100F80000E94C711C9010F900F900F900F90DF9131
:100F9000CF911F910F91FF90EF90DF90CF90BF9076
:100FA000AF909F908F907F906F905F904F9008953B
:100FB0000E946113FB0101900020E9F73197AF0116
:100FC000461B570BDC01ED91FC910280F381E02D73
:100FD00009948F929F92AF92BF920F931F93CF93DA
:100FE000DF93CDB7DEB7A1970FB6F894DEBF0FBE83
:100FF000CDBF19A2423008F44AE08E010F5D1F4FA9
:10100000842E912CB12CA12CA50194010E94C71112
:10101000E62FB901CA01EA3004F5E05DD801EE938C
:101020008D01232B242B252B79F790E080E010975E
:1010300029F0BD018EE292E00E94DA07A1960FB678
:10104000F894DEBF0FBECDBFDF91CF911F910F91FE
:10105000BF90AF909F908F900895E95CDFCFCF93C2
:10106000DF93A2EEB0E09C911C92E9EEF0E02081CB
:101070001082C0EFD0E03881188240E028994160AA
:10108000209942602098289A80E18A95F1F783B1EF
:1010900041FB0EF0209840FB0EF028980EF4289AA1
:1010A00041FB0EF4209A1082388320839C93809514
:1010B0008170DF91CF910895CF93DF93A2EEB0E0DE
:1010C0009C911C92E9EEF0E020811082C0EFD0E00C
:1010D0003881188240E05D99416055994260559889
:1010E0005D9A80E18A95F1F789B141FB0EF0559840
:1010F00040FB0EF05D980EF45D9A41FB0EF4559A9C
:101100001082388320839C9390E025E09595879505
:101110002A95E1F7809590958170DF91CF910895A0
:101120001F920F920FB60F9211242F933F934F935C
:101130005F936F937F938F939F93AF93BF93EF933F
:10114000FF93E0911401F09115010995FF91EF9142
:10115000BF91AF919F918F917F916F915F914F91CF
:101160003F912F910F900FBE0F901F9018951F92D7
:101170000F920FB60F9211242F933F934F935F93CB
:101180006F937F938F939F93AF93BF93EF93FF934F
:10119000E0911201F09113010995FF91EF91BF9138
:1011A000AF919F918F917F916F915F914F913F91FF
:1011B0002F910F900FBE0F901F9018951F920F92B6
:1011C0000FB60F9211242F933F934F935F936F931A
:1011D0007F938F939F93AF93BF93EF93FF93E09190
:1011E0001001F09111010995FF91EF91BF91AF911D
:1011F0009F918F917F916F915F914F913F912F912F
:101200000F900FBE0F901F9018951F920F920FB660
:101210000F9211242F933F934F935F936F937F937C
:101220008F939F93AF93BF93EF93FF93E0910E0142
:10123000F0910F010995FF91EF91BF91AF919F91AF
:101240008F917F916F915F914F913F912F910F906F
:101250000FBE0F901F9018951F920F920FB60F920E
:1012600011242F933F934F935F936F937F938F93AB
:101270009F93AF93BF93EF93FF93E0910C01F09195
:101280000D010995FF91EF91BF91AF919F918F91C2
:101290007F916F915F914F913F912F910F900FBE72
:1012A0000F901F9018951F920F920FB60F92112456
:1012B0002F933F934F936F937F938F939F938CB113
:1012C000282F30E03595279535952795422F417089
:1012D00083B190E064E0959587956A95E1F7822760
:1012E000817020912B0290912A02609128027091C6
:1012F000290228279427291B330B260F371F3093E9
:1013000029022093280220912A0290912B0228176B
:1013100029F0941719F091E09093270280932A0204
:1013200040932B029F918F917F916F914F913F91AD
:101330002F910F900FBE0F901F9018951F920F9234
:101340000FB60F9211242F933F938F939F93AF93D8
:10135000BF938091120290911302A0911402B09158
:1013600015023091110223E0230F2D3758F5019615
:10137000A11DB11D209311028093120290931302BC
:10138000A0931402B0931502809116029091170257
:10139000A0911802B09119020196A11DB11D809370
:1013A000160290931702A0931802B0931902BF91EE
:1013B000AF919F918F913F912F910F900FBE0F9002
:1013C0001F90189526E8230F0296A11DB11DD2CFBC
:1013D0001F920F920FB60F9211248F939F938091BB
:1013E000E1009091E100937F9093E10083FF0FC0B3
:1013F0001092E90091E09093EB001092EC0092E3E0
:101400009093ED0010922D0298E09093F00082FFEF
:1014100022C093E09093E9009091F200992319F093
:101420009AE39093E80090910C02992341F09091F7
:101430000C02915090930C02911101C05D9A909111
:101440002C02992341F090912C02915090932C0200
:10145000911101C0289A84FF18C08091E2008E7E0D
:1014600081608093E2008091E1008F7E8093E100B3
:1014700080910D028E7E806180930D029F918F91ED
:101480000F900FBE0F901F90189580FFF7CF80919F
:10149000E2008E7E80618093E2008091E1008E7E8A
:1014A0008093E10080910D028E7E8160E5CF1F92D6
:1014B0000F920FB60F921124CF92DF92EF92FF920C
:1014C0000F931F932F933F934F935F936F937F934C
:1014D0008F939F93AF93BF93EF93FF93CF93DF933C
:1014E000CDB7DEB76C97DEBFCDBF1092E90080911B
:1014F000E80083FF25C068E0CE0145960E94830383
:1015000082EF8093E8008D8987FF39C09091E800D1
:1015100090FFFCCF982F907609F034C19E894F89B7
:10152000588D2F89F88C911131C0803861F58091E8
:101530000E028093F1001092F1008EEF8093E8008C
:101540006C960FB6F894DEBF0FBECDBFDF91CF9182
:10155000FF91EF91BF91AF919F918F917F916F918B
:101560005F914F913F912F911F910F91FF90EF90BD
:10157000DF90CF900F900FBE0F901F9018959EEFA9
:101580009093E800C7CF1092F100D5CF913059F475
:101590008111D3CF4130510581F680910E028D7FAC
:1015A00080930E02CACF933049F48111C6CF4130E7
:1015B000510519F680910E028260F2CF953041F408
:1015C0008091E80080FFFCCF20682093E300B5CF36
:1015D000963009F0A9C00B8D1C8D22E01092E90015
:1015E00010920A0210920902F2122EC01092080202
:1015F000109207020E9452031F8299E09983FA8297
:1016000091E09E8390EA98879AEF9987209109024A
:1016100030910A02275F3F4F3C832B838D831092CA
:10162000E90010920A021092090210930802009336
:10163000070249E050E0BE016F5F7F4F80E00E94EB
:101640002C030E94520379CF1093080200930702E3
:101650000E94B401DC0112960D911C910115110537
:1016600009F451C1D801ED91FC910480F581E02D80
:10167000BE016B5E7F4FC8010995009709F03EC11E
:10168000F80100851185EACFF3E0FF120EC08F89C3
:10169000882309F440C0823061F440E862E187E1C8
:1016A00091E00E94E10C811148CF81E28093EB0030
:1016B00047CF813029F440E862E184E091E0F1CF46
:1016C000833099F70E94B401DC011296ED90FC90F2
:1016D0008E010F5F1F4F6801E114F10479F0D7010B
:1016E000ED91FC910680F781E02DB801C7010995C5
:1016F000080F111DF701E084F184EECFD8011C9290
:10170000F60101900020E9F73197BF016C197D09BE
:1017100040E0C601C6CF6EEE70E0FB01449150E0A0
:1017200080E80E942C0309CF973009F4BECF98308F
:1017300021F481E08093F10000CF993009F0FDCED3
:10174000837009F0B2CFE2E2F1E081E031E096E3AC
:101750002191222371F08093E9003093EB00DF01A7
:1017600011972C912093EC009093ED008F5F8730C0
:1017700079F78EE78093EA001092EA008F898093D0
:101780002D02DBCE8B8D9C8D1092E90010920A0207
:10179000109209029093080280930702898D8111AB
:1017A00092C08E899D89913A49F4813209F07DCFAA
:1017B00047E050E064E071E080E0B3CF913209F09F
:1017C00074CF833269F48F89988DB0E0A0E0809364
:1017D000000190930101A0930201B0930301ADCEEB
:1017E000803269F48091E80082FFFCCF67E084E0FA
:1017F00091E00E9483038BEF8093E8009ECE8232BB
:1018000009F09BCE8F8980930B01EEEFFFE7859166
:1018100094918B3F9C4D51F1E0E0F8E08091040100
:1018200090910501A0910601B0910701803B944081
:10183000A105B105F1F480910B0180FD1AC0EE3FC6
:101840008AE0F80789F587E797E79183808380919D
:10185000600080930B0288E19BE00FB6F894A89596
:10186000809360000FBE9093600067CEEEEFFAE0C9
:10187000D5CF808191818737974709F05ECEA895B3
:101880008091600088618093600080910B0280935A
:101890006000EE3F2AE0F20789F08091FE0A909105
:1018A000FF0A9183808349CE808191818737980791
:1018B00051F29093FF0A8093FE0AC5CF1092FF0A5F
:1018C0001092FE0A3ACE0E94B401DC0112960D91EC
:1018D0001C910115110509F4E8CED801ED91FC9198
:1018E0000190F081E02DBE016B5E7F4FC80109952C
:1018F000811123CEF80100851185EBCF181619064A
:101900000CF41BCED2CEF1E0FF12BECE62EF70E03F
:1019100004CF1F920F920FB60F9211242F933F9373
:101920004F935F936F937F938F939F93AF93BF93E7
:10193000EF93FF938EE292E00E940E04FF91EF91ED
:10194000BF91AF919F918F917F916F915F914F91D7
:101950003F912F910F900FBE0F901F9018951F92DF
:101960000F920FB60F9211242F938F939F93EF93A3
:10197000FF93E0913E02F0913F028081E0914402AA
:10198000F091450282FD1BC09081809147028F5FDC
:101990008F7320914802821741F0E0914702F0E0F6
:1019A000E25DFD4F958F80934702FF91EF919F91EC
:1019B0008F912F910F900FBE0F901F9018958081DF
:1019C000F4CFEF92FF920F931F93CF93DF93F82EF4
:1019D000192FE62E042F81E0860F880F0E94FE0249
:1019E00083E00E94FE02CF2DD12FEC0EFD2EF11CC4
:1019F000CE15DF05B9F007FF13C0FE0184910E94E8
:101A0000FE02182F80E00E94FE02812321968111A0
:101A1000EFCFDF91CF911F910F91FF90EF9008953D
:101A20008881EDCF81E0F5CFEEE2F2E01382128201
:101A300088EE93E0A0E0B0E084839583A683B7832B
:101A40002CE231E0318320832DEC30E03587248790
:101A50002CEC30E03787268728EC30E0318B208B68
:101A600029EC30E0338B228B2AEC30E0358B248B51
:101A70002EEC30E0378B268B118E128E138E148E47
:101A8000EBECF2E01382128284839583A683B78302
:101A90008EE391E0918380838FEF9FEF958784871A
:101AA000E6E5F3E01282158210868EE0818781E000
:101AB0008287838788E691E091838083EEE4F3E078
:101AC0001282158282E691E091838083E6E4F3E05E
:101AD0001282158286E591E091838083E3E2F3E050
:101AE0001382128215821482178216821186108642
:101AF0001386128680E591E091838083158E148E83
:101B0000178E168E10A2ABE1B3E084E493E0119639
:101B10009C938E931396FC93EE93129715961C92BA
:101B20001E9214978CE291E017969C938E931697D1
:101B30000895CF93DF93CDB7DEB7C056D1090FB666
:101B4000F894DEBF0FBECDBF789484B5826084BDAB
:101B500084B5816084BD85B5826085BD85B58160B1
:101B600085BD80916E00816080936E00109281002F
:101B700080918100826080938100809181008160EA
:101B800080938100809180008160809380008091AB
:101B90009100826080939100809191008160809398
:101BA0009100809190008160809390008091C100AD
:101BB00084608093C1008091C10082608093C100E5
:101BC0008091C10081608093C1008091C3008160D9
:101BD0008093C3008091C00082608093C000809198
:101BE000C20081608093C20080917A0084608093FB
:101BF0007A0080917A00826080937A0080917A00E6
:101C0000816080937A0080917A00806880937A0066
:101C100010922D0210920E0210920D028091D700A8
:101C200081608093D70080EA8093D80089B5806175
:101C300089BD89B5826089BD09B400FEFDCF61E030
:101C400070E080E090E00E94CC028091D8008F7C10
:101C500080618093D8008091E000807F8093E000D5
:101C60008091E1008E7E8093E1008DE08093E20020
:101C7000559A209A8FEF9FEF9093D8028093D702C6
:101C8000E0913E02F0913F0282E08083E0913A02CF
:101C9000F0913B021082E0913C02F0913D028FEC0A
:101CA000808310924602E0914202F091430286E066
:101CB0008083E0914002F0914102808180618083C5
:101CC000E0914002F0914102808188608083E09140
:101CD0004002F0914102808180688083E09140025F
:101CE000F091410280818F7D808385E0ECE1F1E01D
:101CF000DE01119601900D928A95E1F7109226036C
:101D000010922503109228031092270310922A03A1
:101D10001092290310922C0310922B03109234037B
:101D20001092330385E080932F0380912D039091CF
:101D30002E03892BC9F080E090912F03891708F0BA
:101D40006CC0282F30E0E0912D03F0912E03E20FBC
:101D5000F31F41E050E04C0F5D1F240F351FD901E8
:101D60009C9190838F5FE8CF85E090E00E943C12C9
:101D700090932E0380932D03892BE9F680ED97E055
:101D800090933203809331036AE671E08BEC92E02A
:101D90000E94DA076CE871E08BEC92E00E94DA07AF
:101DA00086E593E00E94E9068823D1F368EE73E0AC
:101DB00080E090E00E94CC0251EEE52EFF24FA94E0
:101DC00068EC70E088E39FEFBCE3EB16F10420F0D1
:101DD00068E37FEF88EC90E00E94AA0180912703DE
:101DE00090912803892BE9F400912F0310E0C8019A
:101DF000880F991F0E943C12909328038093270319
:101E0000009709F4B1C0FC0190E080E080179107D1
:101E100044F4119211920196F9CF8BE08093300334
:101E2000ADCF8091250390912603892BE9F4009191
:101E30002F0310E0C801880F991F0E943C12909355
:101E4000260380932503009709F48EC02091310367
:101E500030913203FC0190E080E08017910724F478
:101E6000219331930196F9CF10E000E083E293E0F3
:101E70000E94C106BE016F5B7F4F83E293E00E9428
:101E80002A0683E293E00E94D50680902F03912CCE
:101E9000FE0131965F019E012F5D3F4FBE016F5BDA
:101EA0007F4F3901DF0150E040E04815590524F526
:101EB000FB0181919191BF010115110599F0F30189
:101EC000C080D180C816D90668F0CD90DC901197FB
:101ED0008C159D0568F04F5F5F4F1296F2E06F0E14
:101EE000711CE3CFF301918380830115110569F71C
:101EF00011969C938E93EFCF0F5F1F4F0A30110501
:101F000009F0B4CFA0912503B091260300912703D7
:101F10001091280390E080E040912F0348171906A4
:101F200019F114F1F501419151915F01F8016191AD
:101F300071918F016417750730F4BF016250710908
:101F4000FB0151834083F901419151919F016D91B2
:101F50007D914617570730F4BD0162507109FB01AE
:101F6000518340830196D8CF6AE070E080E090E032
:101F70000E94CC02FFEFEF1AFF0A49E5E416F104D4
:101F800009F01ECF70E060E090E080E00E94AA01BE
:101F90006FE871E08BEC92E00E94DA076CE871E088
:101FA0008BEC92E00E94DA075524539487EFA82E19
:101FB000BB24BA9497E0792E20E0C22E20E0D22EE6
:101FC000662463948EE493E00E945C08882341F0C9
:101FD0006CE271E080E090E00E94CC02609210021E
:101FE00086E593E00E94E906882351F010921002E2
:101FF00090E080E00E94840190E080E00E945E0119
:1020000086E493E00E942F08882359F06CE271E087
:1020100080E090E00E94CC0280910F0285258093A1
:102020000F0280911002882309F46DC080911D0376
:1020300090911E030E940A077C0100911D031091DC
:102040001E03C8010E94C805892B39F540911F0362
:10205000509120032091210330912203C90137FDC3
:10206000019695958795BA016D507E4F673E7340F6
:1020700020F4BC010E94AA0146C037FF02C02F5FB6
:102080003F4F35952795319521953109B9011416A2
:10209000150684F3BC01C901EDCFF8018689978943
:1020A0004E9708F0B4C08289938924893589820FBC
:1020B000931FCE9708F47FC0E0911D03F0911E039B
:1020C000868997894E97D8F48091210390912203B5
:1020D000BC0197FF02C06F5F7F4F7595679597FDB5
:1020E0000196959587959195819591090E94AA01F0
:1020F00080911D0390911E030E940A07DDCF10926C
:10210000200310921F0380910F02882309F447C017
:1021100083E293E00E940A0766EF71E08EE292E0AC
:102120000E94DA076091350370913603809137037E
:1021300090913803680F791F7695679590E080E05D
:102140004AE00E94E90769EF71E08EE292E00E94A6
:10215000DA076091390370913A0390E080E04AE039
:102160000E94E9076DEF71E08EE292E00E94DA07CB
:1021700060913B0370913C0380913D0390913E033D
:10218000680F791F7695679590E080E04AE00E949D
:10219000E9076CE871E08EE292E00E94DA07C11470
:1021A000D10409F40FCF0E94FA03882309F40ACF5F
:1021B0000E94000007CF808D918D228D338D820F7C
:1021C000931FCE9720F1E0911D03F0911E038689A5
:1021D00097894E9708F093CF809121039091220325
:1021E000BC0197FF02C06F5F7F4F75956795719532
:1021F0006195710997FD0196959587950E94AA01B1
:1022000080911D0390911E030E940A07DCCFB0ED60
:10221000EB1AB7E0FB0A0E94E9059C01C701F7FE33
:1022200004C0882799278E199F09B5010E94B31110
:102230008B01260F371F88EC90E0283C310564F0B5
:102240000E94E9054801880E991E0E94E90588153B
:102250009905DCF50E94E90520911F0330912003C8
:10226000A701421B530B749E9001759E300D1124E3
:10227000A701F7FE02C04F5F5F4F55954795240FAA
:10228000351FF0922003E0921F03A901480F591F48
:102290004037EEEF5E07F4F0F82FE92F48175907A3
:1022A00014F4F42FE52FAC01421B530B9A0160E7A5
:1022B0007EEF20375EEF35072CF0BC012817390779
:1022C0000CF4B9018F2F9E2FD5CE0E94E905800F07
:1022D000911FC2CFF0E7EEEFE6CF8CE591E090934F
:1022E00024038093230380912D0390912E03009764
:1022F00011F00E94D8128091270390912803009733
:1023000011F00E94D81280912B0390912C0300971A
:1023100011F00E94D8128091250390912603009716
:1023200011F00E94D8128091290390912A030097FE
:1023300011F00E94D81290E080E00E94840190E0A9
:1023400080E00C945E01DB018F939F930E940E123C
:10235000BF91AF91A29F800D911DA39F900DB29F41
:10236000900D1124089597FB072E16F4009407D0C2
:1023700077FD09D00E94191207FC05D03EF4909514
:1023800081959F4F0895709561957F4F0895A1E2C3
:102390001A2EAA1BBB1BFD010DC0AA1FBB1FEE1FDF
:1023A000FF1FA217B307E407F50720F0A21BB30B2A
:1023B000E40BF50B661F771F881F991F1A9469F7A6
:1023C00060957095809590959B01AC01BD01CF0102
:1023D0000895052E97FB1EF400940E94001257FDED
:1023E00007D00E94C71107FC03D04EF40C940012D2
:1023F00050954095309521953F4F4F4F5F4F089531
:1024000090958095709561957F4F8F4F9F4F089560
:10241000EE0FFF1F0590F491E02D09940E942D12FC
:10242000A59F900DB49F900DA49F800D911D112428
:102430000895AA1BBB1B51E107C0AA1FBB1FA6170B
:10244000B70710F0A61BB70B881F991F5A95A9F75D
:1024500080959095BC01CD010895A29FB001B39FD6
:10246000C001A39F700D811D1124911DB29F700D9D
:10247000811D1124911D08950F931F93CF93DF9316
:102480008230910510F482E090E0E0916403F091D5
:10249000650330E020E0B0E0A0E0309799F421152A
:1024A000310509F44AC0281B390B24303105D8F511
:1024B0008A819B816115710589F1FB019383828378
:1024C000FE0111C0408151810281138148175907D3
:1024D000E0F04817590799F4109761F012960C93A1
:1024E000129713961C933296CF01DF91CF911F91D3
:1024F0000F9108950093640310936503F4CF2115A1
:10250000310551F04217530738F0A901DB019A0158
:10251000BD01DF01F801C1CFEF01F9CF9093650351
:1025200080936403CDCFFE01E20FF31F819391935B
:102530002250310939832883D7CF2091620330910B
:102540006303232B41F4209118013091190130933A
:102550006303209362032091160130911701211526
:10256000310541F42DB73EB740911A0150911B013E
:10257000241B350BE0916203F0916303E217F3072C
:10258000A0F42E1B3F0B2817390778F0AC014E5FE3
:102590005F4F2417350748F04E0F5F1F50936303BA
:1025A00040936203819391939FCFF0E0E0E09CCF52
:1025B000CF93DF930097E9F0FC01329713821282E8
:1025C000A0916403B0916503ED0130E020E0109725
:1025D000A1F420813181820F931F209162033091F9
:1025E00063032817390709F061C0F0936303E09390
:1025F0006203DF91CF910895EA01CE17DF07E8F576
:102600004A815B819E0141155105B1F7E901FB83C8
:10261000EA8349915991C40FD51FEC17FD0761F466
:10262000808191810296840F951FE90199838883A7
:10263000828193819B838A83F0E0E0E012968D9102
:102640009C9113970097B9F52D913C911197CD016D
:102650000296820F931F2091620330916303281723
:10266000390739F6309751F51092650310926403DB
:10267000B0936303A0936203BCCFD383C283408132
:102680005181840F951FC817D90761F44E5F5F4FC2
:1026900088819981480F591F518340838A819B818A
:1026A000938382832115310509F0B0CFF093650340
:1026B000E09364039ECFFD01DC01C0CF1382128240
:1026C000D7CF81E090E0F8940C94661310E0CAED47
:1026D000D0E004C0FE010E9408122196CB3DD10734
:0626E000C9F7F894FFCFDA
:1026E600FFFFFFFF00E10000000000004001400185
:1026F60040014001400100006603800012141504E9
:102706000C00C18081000000000000002F0490032F
:10271600BD037B04EE03CC03E003000000002005AC
:102726009B04410536058705450563050000000045
:102736002A06000000002F0800000000D80700004D
:1027460000005C0800000000E90650726573732003
:102756004120746F2063616C696272617465206CDC
:10276600696E652073656E736F7273000D0A0043A0
:10277600616C6962726174696F6E20636F6D706CF3
:102786006574652E205072657373204220746F2025
:10279600737461727420666F6C6C6F77696E6720F4
:1027A600746865206C696E652C204120746F2073F7
:1027B600746F702C20616E64204320746F20746FD8
:1027C60067676C652073656E736F72207072696ED1
:1027D60074696E672E004C3A00204D3A0020523A3A
:0227E6000000F1
:00000001FF
