:100000000C94DB000C9440080C9419080C94F20733
:100010000C94CB070C9403010C9403010C94A407DB
:100020000C9403010C9467080C94FC080C946B0965
:100030000C9403010C9403010C9403010C94030130
:100040000C9403010C9403010C9403010C94030120
:100050000C9403010C9403010C9403010C94B2085A
:100060000C9403010C9403010C9403010C94030100
:100070000C9403010C9403010C9403010C940301F0
:100080000C9403010C9403010C9403010C940301E0
:100090000C9403010C9403010C9403010C940301D0
:1000A0000C9403010C9403010C9403010000000064
:1000B000250028002B002E00310000000000240045
:1000C00027002A002D003000000000002300260039
:1000D00029002C002F000404040404030405020278
:1000E00002020403020202020606060606060404D1
:1000F0000202020404040802011040804010204063
:10010000804080080204018040201002011080100D
:10011000204040200000000200090F0000030401FD
:10012000000C0000000000000000000000000000C3
:10013000000000080B000202020000090400000198
:10014000020200000524001001052401010104241D
:10015000020605240600010705810310004009047A
:100160000100020A00000007050202400000070526
:1001700083024000000403090412010002EF02019F
:1001800040FB1F0023000101020301506F6C6F6CE4
:100190007520436F72706F726174696F6E00506F7B
:1001A0006C6F6C7520412D5374617220333255345D
:1001B00000009D0BB50C11241FBECFEFDAE0DEBFAF
:1001C000CDBF11E0A0E0B1E0E6E6FEE102C005909F
:1001D0000D92AA35B107D9F721E0AAE5B1E001C037
:1001E0001D92A13FB207E1F710E0CAEDD0E004C0D4
:1001F0002197FE010E94DF0CC93DD107C9F70E947B
:10020000D00B0C94260F0C940000FC01809180010F
:10021000882311F13FB7F89482E08093E9002091A0
:10022000F200822F90E01816190614F481E090E095
:10023000882339F0289844E640937F014091F100EB
:100240004083222339F02091F200211103C02BE6D4
:100250002093E8003FBF08958FEF9FEF08952FB7D9
:10026000F89483E08093E9009091E800892F8072F0
:1002700095FF04C09091F20080E4891B2FBF089580
:1002800008952E98269A2D98259A2A98229A299888
:10029000219A80EA8093800081E18093810080E947
:1002A00091E09093870080938600109289001092CD
:1002B000880010928B0010928A000895CF93DF93EC
:1002C000EC0180917E01811105C081E080937E0167
:1002D0000E94410180E0D7FF04C0D195C195D109AA
:1002E00081E0C13991E0D90714F0C0E9D1E0D093A1
:1002F0008900C0938800882329F0299A219ADF91E8
:10030000CF9108952998FACFCF93DF93EC01809194
:100310007E01811105C081E080937E010E94410130
:1003200080E0D7FF04C0D195C195D10981E0C139E2
:1003300091E0D90714F0C0E9D1E0D0938B00C093CD
:100340008A00882329F02A9A229ADF91CF91089572
:100350002A98FACF9FB191708CB186FB882780F9DB
:10036000892720917D0130917C014091810150913C
:10037000820128273927231B330B240F351F309385
:1003800082012093810130917C0120917D013817F9
:1003900029F0291719F021E020937B0180937C013B
:1003A00090937D01089580917701811145C081E08E
:1003B0008093770124982C9A6A98729A6E98769A0C
:1003C0008098889A8093680090E190936B008BBB33
:1003D0008AEA91E0909315018093140180916A005C
:1003E0008F7C806180936A00EE9A8CB182FB8827B3
:1003F00080F980937A0193B180917A0192959170FE
:1004000089278093790110928401109283011092C0
:1004100078018FB1817080937D019CB180917D01C5
:1004200096FB992790F9892780937C01109282018D
:100430001092810110927B01089580916F018111CA
:100440000DC082E080936B0184E080936C01109278
:100450006E0110926D0181E080936F018BE691E057
:1004600008953FB7F8948091670190916801A09139
:100470006901B0916A0126B5A89B05C02F3F19F00C
:100480000196A11DB11D3FBFBA2FA92F982F882714
:10049000BC01CD01620F711D811D911D42E0660FEF
:1004A000771F881F991F4A95D1F708958F929F92C1
:1004B000AF92BF92CF92DF92EF92FF924B015C011D
:1004C0000E9431026B017C010E9431026C197D098E
:1004D0008E099F09683E734081059105A8F321E0CC
:1004E000821A9108A108B10888EEC80E83E0D81ED0
:1004F000E11CF11C81149104A104B10429F7FF90BF
:10050000EF90DF90CF90BF90AF909F908F90089525
:1005100040915C0150915D0120915A0130915B0145
:1005200042175307B4F49091E8009570E1F390916D
:10053000E80092FD19C08093F10080915C019091D8
:100540005D0101968F739927892B19F48EEF8093A3
:10055000E80080915C0190915D01019690935D01AE
:1005600080935C0181E0089580E00895EF92FF920E
:100570000F931F93CF93DF93F82E192FE62E042F9E
:1005800081E0860F880F0E94880283E00E94880223
:10059000CF2DD12FEC0EFD2EF11CCE15DF05B9F0BD
:1005A00007FF13C0FE0184910E948802182F80E08B
:1005B0000E948802812321968111EFCFDF91CF9194
:1005C0001F910F91FF90EF9008958881EDCF81E00A
:1005D000F5CFDF92EF92FF920F931F93CF93DF93AC
:1005E000D82E8A01EB017B01E40EF51ECE15DF0546
:1005F00059F0D7FE12C0FE0184910E948802219614
:100600008111F4CF0FEF1FEFC801DF91CF911F9140
:100610000F91FF90EF90DF9008958881EECF0F93B8
:100620001F93CF93DF931F92CDB7DEB782E089830C
:1006300042E450E063E371E080E80E94E9020E9436
:100640001D02DC0112960D911C910115110589F016
:10065000D801ED91FC910280F381E02DBE016F5F26
:100660007F4FC801099597FD04C0F80100851185E9
:10067000ECCF89810F90DF91CF911F910F91089559
:10068000615030F02091F100FC0120830196F8CFF9
:10069000289884E680937F0108958F929F92AF926D
:1006A000BF92CF92DF92EF92FF920F931F93CF935F
:1006B000DF936C017B018A0180910B01882309F48F
:1006C0005CC080918001882309F457C0809160014B
:1006D00080FF05C08091E00082608093E000E80127
:1006E000B12C8AEFA82E93E0892E2AE3922E209730
:1006F00011F4BB20D9F10E942F0181110AC0AA94E4
:10070000AA20D9F161E070E080E090E00E945602FA
:10071000EECF8C171D0611F00CF08C2F9FB7F894BC
:100720008092E9002091E80025FD02C09FBFDFCF45
:10073000282F30E0C21BD30BF701815020F04191EC
:100740004093F100FACFE20EF31EBB2021F090920D
:10075000E800B12CEBCF8091E80085FDE7CF9092C7
:10076000E800BB24B394209709F3F3CF5D9884E6A7
:1007700080935F01101611063CF081E090E0F601D5
:100780009383828310E000E0C801DF91CF911F9135
:100790000F91FF90EF90DF90CF90BF90AF909F9020
:1007A0008F900895CF93DF931F92CDB7DEB7698303
:1007B000DC01ED91FC910280F381E02D41E050E0FD
:1007C000BE016F5F7F4F09950F90DF91CF91089524
:1007D00083E08093E9008091F200882319F08AE396
:1007E0008093E80008950E942F0190E00895CF9330
:1007F000DF931F92CDB7DEB7FC018485958597FD09
:1008000008C02FEF3FEF358724870F90DF91CF91FE
:100810000895CE0101960E940501019719F489817E
:1008200090E0F3CF8FEF9FEFF0CF0F931F93CF9315
:10083000DF931F92CDB7DEB78C01FC0184859585CF
:1008400097FF0BC0CE0101960E940501019771F43C
:10085000898190E0F80195878487F80184859585E2
:100860000F90DF91CF911F910F9108958FEF9FEF20
:10087000F1CFFC018485958597FD0BC09FB7F89457
:1008800082E08093E9008091F2009FBF90E00196A2
:1008900008959FB7F89482E08093E9008091F20078
:1008A0009FBF90E00895CF93DF93DC0118968C9161
:1008B0001897811135C019962C91199730E0F901DC
:1008C000EB50FF4F2A523F4F81E018968C931897B8
:1008D0001A968C911A97882309F451C08491F901D2
:1008E00024912223C9F030E0220F331FF901E6548E
:1008F000FF4F45915491F901E455FF4FC591D491B3
:100900002FB7F894FA013081982F90959323908314
:10091000E881E82BE8832FBF8FE090E00197F1F7A3
:1009200019962C91199730E0F901EC5EFE4F8491F5
:10093000F901EB50FF4F94912A523F4FF901249156
:10094000222309F483C0882309F43EC081508F30EC
:1009500008F03AC0E82FF0E0E055FB4F0C94DF0CB4
:1009600001050505DF04F904FD04E404E404E404DE
:1009700008050E05120516051C05E40420058491E2
:10098000F9012491222309F4C7CF30E0220F331F4D
:10099000F901E654FF4F45915491F901E455FF4F99
:1009A000C591D4912FB7F894FA019081382F3095E2
:1009B000892F832380838881E32FE823ABCF809125
:1009C00080008F7780938000E22FF0E0EE0FFF1F12
:1009D000E853FF4FC591D491E8819E2331E009F49B
:1009E00030E0832F1B962C9182278170DF91CF916D
:1009F0000895809180008F7DE5CF80918000877F72
:100A0000E1CF84B58F7784BDDFCF84B58F7DFBCFF9
:100A1000809190008F7780939000D6CF8091900046
:100A20008F7DF9CF80919000877FF5CF8091C000B6
:100A30008F778093C000C8CF8091C0008F7DF9CFA1
:100A40008091C200877F8093C200BECF80E0CACF72
:100A5000FC012FB7F8948091630190916401A091FB
:100A60006501B09166012FBF2081213079F030F00F
:100A70002230C9F02330E9F060E006C06111FCCFFC
:100A80009283818381E08083862F0895662311F00D
:100A90001082F2CF21813281821B930B0F97A0F33A
:100AA00082E08083E9CF662379F39283818383E0B8
:100AB000F8CF6623A9F321813281821B930B0F9714
:100AC000D8F21082E1CFFC0101900020E9F73197C4
:100AD000AF01481B590BBC0185E891E00C944D0314
:100AE0008F929F92AF92BF920F931F93CF93DF93FA
:100AF000CDB7DEB7A1970FB6F894DEBF0FBECDBF5E
:100B000019A2423008F44AE08E010F5D1F4F842E77
:100B1000912CB12CA12CA50194010E94BD0CE62FB3
:100B2000B901CA01EA30F4F4E05DD801EE938D0119
:100B3000232B242B252B79F790E080E0109719F0D8
:100B4000CD010E946305A1960FB6F894DEBF0FBEDB
:100B5000CDBFDF91CF911F910F91BF90AF909F902C
:100B60008F900895E95CE1CF4F925F926F927F92F0
:100B70008F929F92AF92BF92CF92DF92EF92FF92AD
:100B80000F931F93CF936B017C01742EAC019B01DB
:100B90000E941C0F882399F081E491E0CF911F916E
:100BA0000F91FF90EF90DF90CF90BF90AF909F900C
:100BB0008F907F906F905F904F900C9463054601EB
:100BC0005701E894B7F82FEF3FEF4FE75FE7C50114
:100BD000B4010E941C0F81110DC02FEF3FEF4FE7B2
:100BE0005FE7C501B4010E94520D18161CF485E49C
:100BF00091E0D4CF2FEF3FEF4FE75FE4C701B6019D
:100C00000E94AA0E18161CF489E491E0C7CF2FEFBA
:100C10003FEF4FE75FECC701B6010E94520D87FD21
:100C2000F3CF20E030E0A901C701B6010E94520DC8
:100C300010E000E087FF0AC06DE285E891E00E94C5
:100C4000D2038C01F7FAF094F7F8F094C0E060E07A
:100C500070E080E09FE37C1641F020E030E040E26D
:100C600051E40E94570DCF5FF6CFA70196010E9475
:100C7000E60C2B013C010E94C90D4B015C014AE0CE
:100C80000E9470057C01E00EF11ECC23C1F1C5016C
:100C9000B4010E94F80D9B01AC01C301B2010E9496
:100CA000E50C4B015C016EE285E891E00E94D20305
:100CB000E80EF91EC15018F120E030E040E251E4A6
:100CC000C501B4010E94AF0E2B013C010E94C90D69
:100CD0004B01B12CA12C4AE0C501B4010E94700562
:100CE000E80EF91EC501B4010E94F80D9B01AC018C
:100CF000C301B2010E94E50C4B015C01DBCFC701CF
:100D0000CF911F910F91FF90EF90DF90CF90BF9008
:100D1000AF909F908F907F906F905F904F900895CD
:100D20008F929F92AF92BF92CF92DF92EF92FF92FB
:100D30000F931F93CF93DF93EC010E94D301F8949C
:100D4000809183019091840110928401109283011B
:100D500078940E94D301F89480918101909182014E
:100D600010928201109281017894CE010E94840138
:100D7000CE010E945E018E010C5E1F4F0E94D301C6
:100D8000F89480908301909084017894092C000C51
:100D9000AA08BB08B7FE08C0B094A09490948094B1
:100DA000811C911CA11CB11C0E94D301F894C0901D
:100DB0008101D090820178940D2C000CEE08FF0880
:100DC000F7FE08C0F094E094D094C094C11CD11CEC
:100DD000E11CF11C8DE491E00E946305C501B401A2
:100DE0000E94FA0D20E030E046E954E40E94570DDD
:100DF00042E00E94B40581E591E00E946305C701CD
:100E0000B6010E94FA0D20E030E046E954E40E9469
:100E1000570D42E00E94B40587E591E00E9463050A
:100E200080E8881685E29806A104B1047CF080E889
:100E3000C81685E2D806E104F104B4F4CE017801C5
:100E40000E948401C7010E945E0198CFC8018C14E2
:100E50009D04AE04BF040CF0CE01C814D904EA040A
:100E6000FB046CF37E01ECCFDF91CF911F910F91CA
:100E7000FF90EF90DF90CF90BF90AF909F908F90BA
:100E800008950E94210FCF93DF93A2EEB0E09C91D2
:100E90001C92E9EEF0E020811082C0EFD0E03881B2
:100EA000188240E028994160209942602098289A51
:100EB00080E18A95F1F783B141FB0EF0209840FB69
:100EC0000EF028980EF4289A41FB0EF4209A108216
:100ED000388320839C9380958170DF91CF91089512
:100EE000CF93DF93A2EEB0E09C911C92E9EEF0E08C
:100EF00020811082C0EFD0E03881188240E05D99F7
:100F000041605599426055985D9A80E18A95F1F764
:100F100089B141FB0EF0559840FB0EF05D980EF440
:100F20005D9A41FB0EF4559A1082388320839C937E
:100F300090E025E0959587952A95E1F78095909525
:100F40008170DF91CF9108951F920F920FB60F928B
:100F500011242F933F934F935F936F937F938F93BE
:100F60009F93AF93BF93EF93FF93E0911401F091A0
:100F700015010995FF91EF91BF91AF919F918F91CD
:100F80007F916F915F914F913F912F910F900FBE85
:100F90000F901F9018951F920F920FB60F92112469
:100FA0002F933F934F935F936F937F938F939F9371
:100FB000AF93BF93EF93FF93E0911201F091130170
:100FC0000995FF91EF91BF91AF919F918F917F9183
:100FD0006F915F914F913F912F910F900FBE0F90A6
:100FE0001F9018951F920F920FB60F9211242F93F6
:100FF0003F934F935F936F937F938F939F93AF93A1
:10100000BF93EF93FF93E0911001F09111010995C7
:10101000FF91EF91BF91AF919F918F917F916F91D0
:101020005F914F913F912F910F900FBE0F901F90A6
:1010300018951F920F920FB60F9211242F933F9382
:101040004F935F936F937F938F939F93AF93BF93D0
:10105000EF93FF93E0910E01F0910F010995FF913D
:10106000EF91BF91AF919F918F917F916F915F9120
:101070004F913F912F910F900FBE0F901F90189599
:101080001F920F920FB60F9211242F933F934F93FD
:101090005F936F937F938F939F93AF93BF93EF93E0
:1010A000FF93E0910C01F0910D010995FF91EF91F3
:1010B000BF91AF919F918F917F916F915F914F9170
:1010C0003F912F910F900FBE0F901F9018951F9278
:1010D0000F920FB60F9211242F933F934F936F935C
:1010E0007F938F939F938CB1282F30E03595279570
:1010F00035952795422F417083B190E064E0959536
:1011000087956A95E1F78227817020917A01909105
:101110007901609183017091840128279427291B0C
:10112000330B260F371F30938401209383012091C6
:10113000790190917A01281729F0941719F091E01C
:10114000909378018093790140937A019F918F91D8
:101150007F916F914F913F912F910F900FBE0F9004
:101160001F9018951F920F920FB60F9211242F9374
:101170003F938F939F93AF93BF938091630190911F
:101180006401A0916501B09166013091620123E094
:10119000230F2D3758F50196A11DB11D2093620133
:1011A0008093630190936401A0936501B0936601FD
:1011B0008091670190916801A0916901B0916A01E5
:1011C0000196A11DB11D8093670190936801A093C2
:1011D0006901B0936A01BF91AF919F918F913F9147
:1011E0002F910F900FBE0F901F90189526E8230F98
:1011F0000296A11DB11DD2CF1F920F920FB60F9272
:1012000011248F939F938091E1009091E100937F4F
:101210009093E10083FF0FC01092E90091E090935A
:10122000EB001092EC0092E39093ED00109280019D
:1012300098E09093F00082FF22C093E09093E90041
:101240009091F200992319F09AE39093E80090911D
:101250005F01992341F090915F01915090935F015C
:10126000911101C05D9A90917F01992341F0909175
:101270007F01915090937F01911101C0289A84FFC2
:1012800018C08091E2008E7E81608093E2008091A0
:10129000E1008F7E8093E100809160018E7E80610D
:1012A000809360019F918F910F900FBE0F901F90C0
:1012B000189580FFF7CF8091E2008E7E8061809349
:1012C000E2008091E1008E7E8093E10080916001D8
:1012D0008E7E8160E5CF1F920F920FB60F92112480
:1012E000CF92DF92EF92FF920F931F932F933F9332
:1012F0004F935F936F937F938F939F93AF93BF931E
:10130000EF93FF93CF93DF93CDB7DEB76C97DEBF3C
:10131000CDBF1092E9008091E80083FF25C068E00E
:10132000CE0145960E94400382EF8093E8008D89AC
:1013300087FF39C09091E80090FFFCCF982F9076FE
:1013400009F034C19E894F89588D2F89F88C9111ED
:1013500031C0803861F5809161018093F100109275
:10136000F1008EEF8093E8006C960FB6F894DEBF24
:101370000FBECDBFDF91CF91FF91EF91BF91AF91A4
:101380009F918F917F916F915F914F913F912F919D
:101390001F910F91FF90EF90DF90CF900F900FBEB5
:1013A0000F901F9018959EEF9093E800C7CF109272
:1013B000F100D5CF913059F48111D3CF413051058F
:1013C00081F6809161018D7F80936101CACF933056
:1013D00049F48111C6CF4130510519F68091610160
:1013E0008260F2CF953041F48091E80080FFFCCF1D
:1013F00020682093E300B5CF963009F0A9C00B8D8B
:101400001C8D22E01092E90010925D0110925C01A7
:10141000F2122EC010925B0110925A010E940F032B
:101420001F8299E09983FA8291E09E8390EA9887DF
:101430009AEF998720915C0130915D01275F3F4FC2
:101440003C832B838D831092E90010925D011092F2
:101450005C0110935B0100935A0149E050E0BE012A
:101460006F5F7F4F80E00E94E9020E940F0379CFF7
:1014700010935B0100935A010E941D02DC01129639
:101480000D911C910115110509F451C1D801ED917F
:10149000FC910480F581E02DBE016B5E7F4FC80199
:1014A0000995009709F03EC1F80100851185EACF42
:1014B000F3E0FF120EC08F89882309F440C0823008
:1014C00061F440E862E18EE991E00E94B602811188
:1014D00048CF81E28093EB0047CF813029F440E888
:1014E00062E18BE891E0F1CF833099F70E941D0211
:1014F000DC011296ED90FC908E010F5F1F4F68018A
:10150000E114F10479F0D701ED91FC910680F781A7
:10151000E02DB801C7010995080F111DF701E084FE
:10152000F184EECFD8011C92F60101900020E9F77A
:101530003197BF016C197D0940E0C601C6CF65E750
:1015400071E0FB01449150E080E80E94E90209CF7C
:10155000973009F4BECF983021F481E08093F100F8
:1015600000CF993009F0FDCE837009F0B2CFE7E1EA
:10157000F1E081E031E096E32191222371F0809344
:10158000E9003093EB00DF0111972C912093EC00E0
:101590009093ED008F5F873079F78EE78093EA00B4
:1015A0001092EA008F8980938001DBCE8B8D9C8D19
:1015B0001092E90010925D0110925C0190935B0122
:1015C00080935A01898D811192C08E899D89913AAB
:1015D00049F4813209F07DCF47E050E064E071E0EA
:1015E00080E0B3CF913209F074CF833269F48F89F0
:1015F000988DB0E0A0E08093000190930101A0934A
:101600000201B0930301ADCE803269F48091E8000D
:1016100082FFFCCF67E084E091E00E9440038BEF03
:101620008093E8009ECE823209F09BCE8F89809312
:101630000B01EEEFFFE7859194918B3F9C4D51F1AB
:10164000E0E0F8E08091040190910501A09106018D
:10165000B0910701803B9440A105B105F1F4809160
:101660000B0180FD1AC0EE3F8AE0F80789F587E795
:1016700097E7918380838091600080935E0188E189
:101680009BE00FB6F894A895809360000FBE9093EE
:10169000600067CEEEEFFAE0D5CF80819181873789
:1016A000974709F05ECEA89580916000886180938D
:1016B000600080915E0180936000EE3F2AE0F207B7
:1016C00089F08091FE0A9091FF0A9183808349CE30
:1016D000808191818737980751F29093FF0A809318
:1016E000FE0AC5CF1092FF0A1092FE0A3ACE0E945F
:1016F0001D02DC0112960D911C910115110509F4D2
:10170000E8CED801ED91FC910190F081E02DBE0171
:101710006B5E7F4FC8010995811123CEF8010085CA
:101720001185EBCF181619060CF41BCED2CEF1E0C2
:10173000FF12BECE69E771E004CFE5E8F1E0138265
:10174000128288EE93E0A0E0B0E084839583A683C4
:10175000B78381E291E0918380838FEF9FEF95873C
:101760008487E5EEF1E01282158210868EE0818793
:1017700081E0828783878FE391E091838083EDED21
:10178000F1E01282158289E391E091838083E5ED97
:10179000F1E01282158283E391E0918380830895C2
:1017A000789484B5826084BD84B5816084BD85B53C
:1017B000826085BD85B5816085BD80916E00816048
:1017C00080936E00109281008091810082608093EE
:1017D00081008091810081608093810080918000F0
:1017E000816080938000809191008260809391005D
:1017F0008091910081608093910080919000816040
:10180000809390008091C10084608093C10080919A
:10181000C10082608093C1008091C100816080938B
:10182000C1008091C30081608093C3008091C0009B
:1018300082608093C0008091C20081608093C2006A
:1018400080917A00846080937A0080917A0082602F
:1018500080937A0080917A00816080937A008091F1
:101860007A00806880937A00109280011092610162
:10187000109260018091D70081608093D70080EA48
:101880008093D80089B5806189BD89B5826089BDA2
:1018900009B400FEFDCF61E070E080E090E00E94BE
:1018A00056028091D8008F7C80618093D80080910F
:1018B000E000807F8093E0008091E1008E7E809345
:1018C000E1008DE08093E200559A209A8FEF9FEF20
:1018D0009093920180939101C0E0D0E085EE91E079
:1018E0000E945304682F87EE91E00E942805882308
:1018F00051F164EF71E080E090E00E94560288ECC4
:1019000090E00E9490068DED91E00E947007682F94
:101910008FED91E00E9428058823F1F064EF71E0DB
:1019200080E090E00E94560288E39FEF0E949006BC
:1019300068EE73E080E090E00E945602209771F21A
:101940000E940000CBCF90E080E00E94840190E0F4
:1019500080E00E945E01D7CF90E080E00E94840189
:1019600090E080E00E945E01E9CF90E080E00E947C
:10197000840190E080E00C945E01A1E21A2EAA1B83
:10198000BB1BFD010DC0AA1FBB1FEE1FFF1FA2172F
:10199000B307E407F50720F0A21BB30BE40BF50B2C
:1019A000661F771F881F991F1A9469F760957095B5
:1019B000809590959B01AC01BD01CF010895EE0F7C
:1019C000FF1F0590F491E02D09945058BB27AA27DA
:1019D0000E94FD0C0C94700E0E94620E38F00E9462
:1019E000690E20F039F49F3F19F426F40C945F0E31
:1019F0000EF4E095E7FB0C94590EE92F0E94810E3E
:101A000058F3BA17620773078407950720F079F433
:101A1000A6F50C94A30E0EF4E0950B2EBA2FA02D74
:101A20000B01B90190010C01CA01A0011124FF278B
:101A3000591B99F0593F50F4503E68F11A16F04086
:101A4000A22F232F342F4427585FF3CF4695379585
:101A50002795A795F0405395C9F77EF41F16BA0B4A
:101A6000620B730B840BBAF09150A1F0FF0FBB1FF8
:101A7000661F771F881FC2F70EC0BA0F621F731F41
:101A8000841F48F4879577956795B795F7959E3F9E
:101A900008F0B0CF9395880F08F09927EE0F97952F
:101AA000879508950E94350E08F481E008950E94FC
:101AB0006B0D0C94700E0E94690E58F00E94620E1D
:101AC00040F029F45F3F29F00C94590E51110C9409
:101AD000A40E0C945F0E0E94810E68F39923B1F35B
:101AE000552391F3951B550BBB27AA276217730744
:101AF000840738F09F5F5F4F220F331F441FAA1FD8
:101B0000A9F335D00E2E3AF0E0E832D09150504093
:101B1000E695001CCAF72BD0FE2F29D0660F771F41
:101B2000881FBB1F261737074807AB07B0E809F027
:101B3000BB0B802DBF01FF2793585F4F3AF09E3FAC
:101B4000510578F00C94590E0C94A40E5F3FE4F309
:101B5000983ED4F3869577956795B795F7959F5FEF
:101B6000C9F7880F911D9695879597F90895E1E03B
:101B7000660F771F881FBB1F621773078407BA079A
:101B800020F0621B730B840BBA0BEE1F88F7E095F5
:101B900008950E94890E88F09F5798F0B92F9927D1
:101BA000B751B0F0E1F0660F771F881F991F1AF048
:101BB000BA95C9F714C0B13091F00E94A30EB1E0FC
:101BC00008950C94A30E672F782F8827B85F39F0FB
:101BD000B93FCCF3869577956795B395D9F73EF4E1
:101BE00090958095709561957F4F8F4F9F4F089589
:101BF000E89409C097FB3EF49095809570956195A7
:101C00007F4F8F4F9F4F9923A9F0F92F96E9BB275C
:101C10009395F695879577956795B795F111F8CFD8
:101C2000FAF4BB0F11F460FF1BC06F5F7F4F8F4F43
:101C30009F4F16C0882311F096E911C0772321F039
:101C40009EE8872F762F05C0662371F096E8862FD1
:101C500070E060E02AF09A95660F771F881FDAF728
:101C6000880F9695879597F90895990F0008550F55
:101C7000AA0BE0E8FEEF16161706E807F907C0F012
:101C800012161306E407F50798F0621B730B840B1A
:101C9000950B39F40A2661F0232B242B252B21F4F4
:101CA00008950A2609F4A140A6958FEF811D811D94
:101CB000089597F99F6780E870E060E008959FEFCE
:101CC00080EC089500240A941616170618060906D3
:101CD000089500240A9412161306140605060895A2
:101CE000092E0394000C11F4882352F0BB0F40F42A
:101CF000BF2B11F460FF04C06F5F7F4F8F4F9F4F6A
:101D0000089557FD9058440F551F59F05F3F71F0EB
:101D10004795880F97FB991F61F09F3F79F0879552
:101D20000895121613061406551FF2CF4695F1DFDB
:101D300008C0161617061806991FF1CF869571056B
:101D4000610508940895E894BB2766277727CB019F
:101D500097F908950E94350E08F48FEF08950E94B8
:101D6000C20E0C94700E0E94620E38F00E94690E32
:101D700020F0952311F00C94590E0C945F0E112451
:101D80000C94A40E0E94810E70F3959FC1F3950FE1
:101D900050E0551F629FF001729FBB27F00DB11DEF
:101DA000639FAA27F00DB11DAA1F649F6627B00D7F
:101DB000A11D661F829F2227B00DA11D621F739F68
:101DC000B00DA11D621F839FA00D611D221F749F76
:101DD0003327A00D611D231F849F600D211D822FBD
:101DE000762F6A2F11249F5750409AF0F1F08823E4
:101DF0004AF0EE0FFF1FBB1F661F771F881F915011
:101E00005040A9F79E3F510580F00C94590E0C9458
:101E1000A40E5F3FE4F3983ED4F3869577956795DB
:101E2000B795F795E7959F5FC1F7FE2B880F911D3A
:101E30009695879597F908950E94350E880B990B12
:101E4000089581E090E0F8940C94260F10E0CAED1C
:101E5000D0E004C0FE010E94DF0C2196CB3DD107EB
:061E6000C9F7F894FFCF62
:101E6600FFFFFFFF00E1000000000000400140010D
:101E760040014001400100C18081000000000000D7
:101E860000D2034D03F303E8033904F703150400F6
:101E96000000004307000000007007000000005328
:101EA600046E616E00696E66006F7666004C3A20BD
:0A1EB600002020523A20000D0A001F
:00000001FF
