:100000000C94DA000C9402010C9402010C9402018D
:100010000C9402010C9402010C9402010C94020154
:100020000C9402010C9402010C94D3040C9442052C
:100030000C9402010C9402010C9402010C94020134
:100040000C9402010C9402010C9402010C94020124
:100050000C9402010C9402010C9402010C9474079C
:100060000C9402010C9402010C9402010C94020104
:100070000C9402010C9402010C9402010C940201F4
:100080000C9402010C9402010C9402010C940201E4
:100090000C9402010C9402010C9402010C940201D4
:1000A0000C9402010C9402010C9402010000000067
:1000B000250028002B002E00310000000000240045
:1000C00027002A002D003000000000002300260039
:1000D00029002C002F000404040404030405020278
:1000E00002020403020202020606060606060404D1
:1000F0000202020404040802011040804010204063
:10010000804080080204018040201002011080100D
:10011000204040200000000200090F0000030401FD
:10012000000C0000000000000000000000000000C3
:10013000000000080B000202020000090400000198
:10014000020200000524001001052401010104241D
:10015000020605240600010705810310004009047A
:100160000100020A00000007050202400000070526
:1001700083024000000403090412010002EF02019F
:1001800040FB1F0023000101020301506F6C6F6CE4
:100190007520436F72706F726174696F6E00506F7B
:1001A0006C6F6C7520412D5374617220333255345D
:1001B0000000BE0711241FBECFEFDAE0DEBFCDBFC7
:1001C00011E0A0E0B1E0E8E0F2E102C005900D929C
:1001D000AC32B107D9F721E0ACE2B1E001C01D9229
:1001E000A83AB207E1F710E0CAEDD0E004C02197C9
:1001F000FE010E94FC08C93DD107C9F70E94E10732
:100200000C9402090C940000FC0180914B0188239E
:1002100011F13FB7F89482E08093E9002091F20059
:10022000822F90E01816190614F481E090E08823DC
:1002300039F0289844E640934A014091F100408308
:10024000222339F02091F200211103C02BE62093E4
:10025000E8003FBF08958FEF9FEF08952FB7F89400
:1002600083E08093E9009091E800892F807295FFE8
:1002700004C09091F20080E4891B2FBF0895809103
:10028000420181110DC082E080933E0184E08093A1
:100290003F01109241011092400181E080934201A0
:1002A0008EE391E00895CF93DF931F92CDB7DEB731
:1002B0006983DC01ED91FC910280F381E02D41E046
:1002C00050E0BE016F5F7F4F09950F90DF91CF9196
:1002D000089583E08093E9008091F200882319F06B
:1002E0008AE38093E80008950E942E0190E008952B
:1002F000CF93DF931F92CDB7DEB7FC018485958540
:1003000097FD08C02FEF3FEF358724870F90DF91CF
:10031000CF910895CE0101960E940401019719F42E
:10032000898190E0F3CF8FEF9FEFF0CF0F931F9372
:10033000CF93DF931F92CDB7DEB78C01FC0184858C
:10034000958597FF0BC0CE0101960E94040101978D
:1003500071F4898190E0F80195878487F80184859C
:1003600095850F90DF91CF911F910F9108958FEF99
:100370009FEFF1CFFC018485958597FD0BC09FB75A
:10038000F89482E08093E9008091F2009FBF90E0B2
:10039000019608959FB7F89482E08093E9008091D8
:1003A000F2009FBF90E008954091380150913901CB
:1003B000209136013091370142175307B4F49091E0
:1003C000E8009570E1F39091E80092FD19C08093E8
:1003D000F100809138019091390101968F7399272E
:1003E000892B19F48EEF8093E80080913801909169
:1003F00039010196909339018093380181E0089585
:1004000080E00895EF92FF920F931F93CF93DF93B5
:10041000F82E192FE62E042F81E0860F880F0E94F8
:10042000D40183E00E94D401CF2DD12FEC0EFD2EFC
:10043000F11CCE15DF05B9F007FF13C0FE01849152
:100440000E94D401182F80E00E94D40181232196BC
:100450008111EFCFDF91CF911F910F91FF90EF901E
:1004600008958881EDCF81E0F5CFDF92EF92FF9282
:100470000F931F93CF93DF93D82E8A01EB017B015B
:10048000E40EF51ECE15DF0559F0D7FE12C0FE01B1
:1004900084910E94D40121968111F4CF0FEF1FEFB8
:1004A000C801DF91CF911F910F91FF90EF90DF90E6
:1004B00008958881EECF0F931F93CF93DF931F9200
:1004C000CDB7DEB782E0898342E450E063E371E0B8
:1004D00080E80E9435020E943F01DC0112960D91D6
:1004E0001C910115110589F0D801ED91FC91028054
:1004F000F381E02DBE016F5F7F4FC801099597FD25
:1005000004C0F80100851185ECCF89810F90DF913F
:10051000CF911F910F910895615030F02091F1001B
:10052000FC0120830196F8CF289884E680934A0145
:1005300008953FB7F8948091320190913301A091D2
:100540003401B091350126B5A89B05C02F3F19F0A5
:100550000196A11DB11D3FBFBA2FA92F982F882743
:10056000BC01CD01620F711D811D911D42E0660F1E
:10057000771F881F991F4A95D1F708958F929F92F0
:10058000AF92BF92CF92DF92EF92FF924B015C014C
:100590000E9499026B017C010E9499026C197D09ED
:1005A0008E099F09683E734081059105A8F321E0FB
:1005B000821A9108A108B10888EEC80E83E0D81EFF
:1005C000E11CF11C81149104A104B10429F7FF90EE
:1005D000EF90DF90CF90BF90AF909F908F90089555
:1005E0008F929F92AF92BF92CF92DF92EF92FF9243
:1005F0000F931F93CF93DF936C017B018A0180914E
:100600000B01882309F45CC080914B01882309F415
:1006100057C080913D0180FF05C08091E00082605D
:100620008093E000E801B12C8AEFA82E93E0892E98
:100630002AE3922E209711F4BB20D9F10E942E01BB
:1006400081110AC0AA94AA20D9F161E070E080E08B
:1006500090E00E94BE02EECF8C171D0611F00CF048
:100660008C2F9FB7F8948092E9002091E80025FD37
:1006700002C09FBFDFCF282F30E0C21BD30BF70192
:10068000815020F041914093F100FACFE20EF31E29
:10069000BB2021F09092E800B12CEBCF8091E800D4
:1006A00085FDE7CF9092E800BB24B394209709F32F
:1006B000F3CF5D9884E680933C01101611063CF060
:1006C00081E090E0F6019383828310E000E0C801AE
:1006D000DF91CF911F910F91FF90EF90DF90CF901E
:1006E000BF90AF909F908F9008952E98269A2D9846
:1006F000259A2A98229A2998219A80EA8093800044
:1007000081E18093810080E991E09093870080935C
:100710008600109289001092880010928B0010922F
:100720008A000895CF93DF93EC0180912C01811111
:1007300005C081E080932C010E947503D7FF1EC085
:10074000CF368EEFD80799F0D195C195D10981E0C8
:10075000D0938900C09388008823C1F0299A219AF8
:10076000DF91CF91089580E0C0E9D1E0F1CF80E939
:1007700091E09093890080938800F0CFC13981E0A7
:10078000D80789F3D0938900C09388002998E7CFD0
:10079000CF93DF93EC0180912C01811105C081E0A2
:1007A00080932C010E947503D7FF1EC0CF368EEFB9
:1007B000D80799F0D195C195D10981E0D0938B00EC
:1007C000C0938A008823C1F02A9A229ADF91CF91A0
:1007D000089580E0C0E9D1E0F1CF80E991E0909305
:1007E0008B0080938A00F0CFC13981E0D80789F36C
:1007F000D0938B00C0938A002A98E7CFCF93DF93E2
:10080000DC0118968C911897811135C019962C919E
:10081000199730E0F901EB50FF4F2A523F4F81E02A
:1008200018968C9318971A968C911A97882309F426
:1008300051C08491F90124912223C9F030E0220FA4
:10084000331FF901E654FF4F45915491F901E455E6
:10085000FF4FC591D4912FB7F894FA013081982FAA
:10086000909593239083E881E82BE8832FBF8FE056
:1008700090E00197F1F719962C91199730E0F90162
:10088000EC5EFE4F8491F901EB50FF4F94912A5298
:100890003F4FF9012491222309F483C0882309F4EE
:1008A0003EC081508F3008F03AC0E82FF0E0E55AA2
:1008B000FB4F0C94FC08AC04B0048A04A404A80404
:1008C0008F048F048F04B304B904BD04C104C704AA
:1008D0008F04CB048491F9012491222309F4C7CF1A
:1008E00030E0220F331FF901E654FF4F4591549138
:1008F000F901E455FF4FC591D4912FB7F894FA014F
:100900009081382F3095892F832380838881E32F2E
:10091000E823ABCF809180008F7780938000E22F17
:10092000F0E0EE0FFF1FE853FF4FC591D491E8812F
:100930009E2331E009F430E0832F1B962C9182270F
:100940008170DF91CF910895809180008F7DE5CFF8
:1009500080918000877FE1CF84B58F7784BDDFCF22
:1009600084B58F7DFBCF809190008F77809390002E
:10097000D6CF809190008F7DF9CF80919000877FB6
:10098000F5CF8091C0008F778093C000C8CF809151
:10099000C0008F7DF9CF8091C200877F8093C20015
:1009A000BECF80E0CACF1F920F920FB60F921124D4
:1009B0008F939F938091E1009091E100937F9093BA
:1009C000E10083FF0FC01092E90091E09093EB00EB
:1009D0001092EC0092E39093ED0010924B0198E09E
:1009E0009093F00082FF22C093E09093E9009091F1
:1009F000F200992319F09AE39093E80090913C015A
:100A0000992341F090913C01915090933C019111B8
:100A100001C05D9A90914A01992341F090914A0159
:100A2000915090934A01911101C0289A84FF18C0F7
:100A30008091E2008E7E81608093E2008091E100EF
:100A40008F7E8093E10080913D018E7E8061809356
:100A50003D019F918F910F900FBE0F901F901895A1
:100A600080FFF7CF8091E2008E7E80618093E2006C
:100A70008091E1008E7E8093E10080913D018E7E29
:100A80008160E5CF1F920F920FB60F921124CF9283
:100A9000DF92EF92FF920F931F932F933F934F9309
:100AA0005F936F937F938F939F93AF93BF93EF93D6
:100AB000FF93CF93DF93CDB7DEB76C97DEBFCDBF8B
:100AC0001092E9008091E80083FF25C068E0CE0124
:100AD00045960E948C0282EF8093E8008D8987FF03
:100AE00039C09091E80090FFFCCF982F907609F0E4
:100AF00034C19E894F89588D2F89F88C911131C04E
:100B0000803861F580913B018093F1001092F100F3
:100B10008EEF8093E8006C960FB6F894DEBF0FBEA0
:100B2000CDBFDF91CF91FF91EF91BF91AF919F9199
:100B30008F917F916F915F914F913F912F911F9175
:100B40000F91FF90EF90DF90CF900F900FBE0F901E
:100B50001F9018959EEF9093E800C7CF1092F10078
:100B6000D5CF913059F48111D3CF4130510581F661
:100B700080913B018D7F80933B01CACF933049F434
:100B80008111C6CF4130510519F680913B01826039
:100B9000F2CF953041F48091E80080FFFCCF2068CF
:100BA0002093E300B5CF963009F0A9C00B8D1C8DC2
:100BB00022E01092E9001092390110923801F212ED
:100BC0002EC010923701109236010E945B021F82E4
:100BD00099E09983FA8291E09E8390EA98879AEF50
:100BE00099872091380130913901275F3F4F3C832D
:100BF0002B838D831092E9001092390110923801F5
:100C0000109337010093360149E050E0BE016F5F59
:100C10007F4F80E00E9435020E945B0279CF1093E3
:100C20003701009336010E943F01DC0112960D91BD
:100C30001C910115110509F451C1D801ED91FC91E8
:100C40000480F581E02DBE016B5E7F4FC8010995E0
:100C5000009709F03EC1F80100851185EACFF3E065
:100C6000FF120EC08F89882309F440C0823061F4DE
:100C700040E862E18EE991E00E940202811148CFD2
:100C800081E28093EB0047CF813029F440E862E1B4
:100C90008BE891E0F1CF833099F70E943F01DC01AE
:100CA0001296ED90FC908E010F5F1F4F6801E114CA
:100CB000F10479F0D701ED91FC910680F781E02DE8
:100CC000B801C7010995080F111DF701E084F184EF
:100CD000EECFD8011C92F60101900020E9F7319780
:100CE000BF016C197D0940E0C601C6CF65E771E020
:100CF000FB01449150E080E80E94350209CF973013
:100D000009F4BECF983021F481E08093F10000CF48
:100D1000993009F0FDCE837009F0B2CFEDE0F1E03B
:100D200081E031E096E32191222371F08093E90084
:100D30003093EB00DF0111972C912093EC009093FE
:100D4000ED008F5F873079F78EE78093EA0010928D
:100D5000EA008F8980934B01DBCE8B8D9C8D1092A6
:100D6000E900109239011092380190933701809375
:100D70003601898D811192C08E899D89913A49F4FD
:100D8000813209F07DCF47E050E064E071E080E01F
:100D9000B3CF913209F074CF833269F48F89988D83
:100DA000B0E0A0E08093000190930101A0930201C4
:100DB000B0930301ADCE803269F48091E80082FFE8
:100DC000FCCF67E084E091E00E948C028BEF80937F
:100DD000E8009ECE823209F09BCE8F8980930B0172
:100DE000EEEFFFE7859194918B3F9C4D51F1E0E050
:100DF000F8E08091040190910501A0910601B09165
:100E00000701803B9440A105B105F1F480910B01ED
:100E100080FD1AC0EE3F8AE0F80789F587E797E77B
:100E2000918380838091600080933A0188E19BE008
:100E30000FB6F894A895809360000FBE9093600061
:100E400067CEEEEFFAE0D5CF808191818737974763
:100E500009F05ECEA8958091600088618093600063
:100E600080913A0180936000EE3F2AE0F20789F01A
:100E70008091FE0A9091FF0A9183808349CE808100
:100E800091818737980751F29093FF0A8093FE0A69
:100E9000C5CF1092FF0A1092FE0A3ACE0E943F017F
:100EA000DC0112960D911C910115110509F4E8CE93
:100EB000D801ED91FC910190F081E02DBE016B5EB7
:100EC0007F4FC8010995811123CEF8010085118556
:100ED000EBCF181619060CF41BCED2CEF1E0FF12A0
:100EE000BECE69E771E004CF1F920F920FB60F924A
:100EF00011242F933F938F939F93AF93BF93809130
:100F00002E0190912F01A0913001B09131013091CB
:100F10002D0123E0230F2D3758F50196A11DB11D9A
:100F200020932D0180932E0190932F01A0933001E7
:100F3000B09331018091320190913301A09134013D
:100F4000B09135010196A11DB11D8093320190939E
:100F50003301A0933401B0933501BF91AF919F91BC
:100F60008F913F912F910F900FBE0F901F9018956A
:100F700026E8230F0296A11DB11DD2CFECE4F1E0CB
:100F80001382128288EE93E0A0E0B0E08483958320
:100F9000A683B78387E191E0918380838FEF9FEFF2
:100FA00095878487ECE9F1E01282158210868EE045
:100FB000818781E08287838789E291E091838083C2
:100FC0000895789484B5826084BD84B5816084BDC1
:100FD00085B5826085BD85B5816085BD80916E00D7
:100FE000816080936E001092810080918100826008
:100FF0008093810080918100816080938100809145
:101000008000816080938000809191008260809355
:101010009100809191008160809391008091900077
:101020008160809390008091C10084608093C100B2
:101030008091C10082608093C1008091C100816075
:101040008093C1008091C30081608093C300809130
:10105000C00082608093C0008091C2008160809354
:10106000C20080917A00846080937A0080917A0037
:10107000826080937A0080917A00816080937A0008
:1010800080917A00806880937A0010924B011092D0
:101090003B0110923D018091D70081608093D70081
:1010A00080EA8093D80089B5806189BD89B5826066
:1010B00089BD09B400FEFDCF61E070E080E090E002
:1010C0000E94BE028091D8008F7C80618093D800FE
:1010D0008091E000807F8093E0008091E1008E7E2F
:1010E0008093E1008DE08093E200559A209A8CE98C
:1010F00091E00E94FE038823D1F36AE070E080E073
:1011000090E00E94BE028CE991E00E94FE038823D9
:1011100071F38CE991E00E94FE038111FACF6AE03D
:1011200070E080E090E00E94BE028CE991E00E94B5
:10113000FE038111EECF68EE73E080E090E00E9444
:10114000BE0200E010E0479A3F9AD0E0C0E0CE0136
:101150000E94C803CE010E94920362E070E080E02A
:1011600090E00E94BE022196C13981E0D80779F74C
:10117000C0E9D1E0CE010E94C803CE010E949203D3
:1011800062E070E080E090E00E94BE02219790F75C
:1011900047983F9AD0E0C0E0CE010E94C803CE013C
:1011A0000E94920362E070E080E090E00E94BE0244
:1011B0002197CF368EEFD80779F7C0E7DEEFCE0163
:1011C0000E94C803CE010E94920362E070E080E0BA
:1011D00090E00E94BE022196C130D10581F764EFF4
:1011E00071E080E090E00E94BE020115110509F453
:1011F000AACF0E940000A7CFEE0FFF1F0590F49129
:08120000E02D0994F894FFCFE2
:10120800FFFFFFFF00E100000000000000C1808137
:10121800000000000000005301F00274016901BAE7
:0C122800017801960100000000FE0300A8
:00000001FF
